{
  "_format": "hh-sol-artifact-1",
  "contractName": "Bank",
  "sourceName": "contracts/lending/Bank.sol",
  "abi": [
    {
      "inputs": [
        {
          "internalType": "contract IPriceOracle",
          "name": "_priceOracle",
          "type": "address"
        },
        {
          "internalType": "contract IKIP7",
          "name": "_YDEXT",
          "type": "address"
        }
      ],
      "stateMutability": "nonpayable",
      "type": "constructor"
    },
    {
      "anonymous": false,
      "inputs": [
        {
          "indexed": true,
          "internalType": "address",
          "name": "_from",
          "type": "address"
        },
        {
          "indexed": true,
          "internalType": "address",
          "name": "token",
          "type": "address"
        },
        {
          "indexed": false,
          "internalType": "uint256",
          "name": "amount",
          "type": "uint256"
        },
        {
          "indexed": false,
          "internalType": "uint256",
          "name": "newCollateralRatio",
          "type": "uint256"
        }
      ],
      "name": "Borrow",
      "type": "event"
    },
    {
      "anonymous": false,
      "inputs": [
        {
          "indexed": true,
          "internalType": "address",
          "name": "_from",
          "type": "address"
        },
        {
          "indexed": true,
          "internalType": "address",
          "name": "token",
          "type": "address"
        },
        {
          "indexed": false,
          "internalType": "uint256",
          "name": "amount",
          "type": "uint256"
        }
      ],
      "name": "Deposit",
      "type": "event"
    },
    {
      "anonymous": false,
      "inputs": [
        {
          "indexed": true,
          "internalType": "address",
          "name": "liquidator",
          "type": "address"
        },
        {
          "indexed": true,
          "internalType": "address",
          "name": "accountLiquidated",
          "type": "address"
        },
        {
          "indexed": true,
          "internalType": "address",
          "name": "collateralToken",
          "type": "address"
        },
        {
          "indexed": false,
          "internalType": "uint256",
          "name": "amountOfCollateral",
          "type": "uint256"
        },
        {
          "indexed": false,
          "internalType": "uint256",
          "name": "amountSentBack",
          "type": "uint256"
        }
      ],
      "name": "Liquidate",
      "type": "event"
    },
    {
      "anonymous": false,
      "inputs": [
        {
          "indexed": true,
          "internalType": "address",
          "name": "_from",
          "type": "address"
        },
        {
          "indexed": true,
          "internalType": "address",
          "name": "token",
          "type": "address"
        },
        {
          "indexed": false,
          "internalType": "uint256",
          "name": "remainingDebt",
          "type": "uint256"
        }
      ],
      "name": "Repay",
      "type": "event"
    },
    {
      "anonymous": false,
      "inputs": [
        {
          "indexed": true,
          "internalType": "address",
          "name": "_from",
          "type": "address"
        },
        {
          "indexed": true,
          "internalType": "address",
          "name": "token",
          "type": "address"
        },
        {
          "indexed": false,
          "internalType": "uint256",
          "name": "amount",
          "type": "uint256"
        }
      ],
      "name": "Withdraw",
      "type": "event"
    },
    {
      "inputs": [],
      "name": "ETHADDRESS",
      "outputs": [
        {
          "internalType": "address",
          "name": "",
          "type": "address"
        }
      ],
      "stateMutability": "view",
      "type": "function"
    },
    {
      "inputs": [],
      "name": "YDEXT",
      "outputs": [
        {
          "internalType": "contract IKIP7",
          "name": "",
          "type": "address"
        }
      ],
      "stateMutability": "view",
      "type": "function"
    },
    {
      "inputs": [
        {
          "internalType": "address",
          "name": "token",
          "type": "address"
        },
        {
          "internalType": "uint256",
          "name": "amount",
          "type": "uint256"
        }
      ],
      "name": "borrow",
      "outputs": [
        {
          "internalType": "uint256",
          "name": "",
          "type": "uint256"
        }
      ],
      "stateMutability": "nonpayable",
      "type": "function"
    },
    {
      "inputs": [
        {
          "internalType": "address",
          "name": "token",
          "type": "address"
        },
        {
          "internalType": "uint256",
          "name": "amount",
          "type": "uint256"
        }
      ],
      "name": "deposit",
      "outputs": [
        {
          "internalType": "bool",
          "name": "",
          "type": "bool"
        }
      ],
      "stateMutability": "payable",
      "type": "function"
    },
    {
      "inputs": [
        {
          "internalType": "address",
          "name": "token",
          "type": "address"
        }
      ],
      "name": "getBalance",
      "outputs": [
        {
          "internalType": "uint256",
          "name": "",
          "type": "uint256"
        }
      ],
      "stateMutability": "view",
      "type": "function"
    },
    {
      "inputs": [
        {
          "internalType": "address",
          "name": "token",
          "type": "address"
        },
        {
          "internalType": "address",
          "name": "account",
          "type": "address"
        }
      ],
      "name": "getCollateralRatio",
      "outputs": [
        {
          "internalType": "uint256",
          "name": "",
          "type": "uint256"
        }
      ],
      "stateMutability": "view",
      "type": "function"
    },
    {
      "inputs": [
        {
          "internalType": "address",
          "name": "token",
          "type": "address"
        },
        {
          "internalType": "address",
          "name": "account",
          "type": "address"
        }
      ],
      "name": "liquidate",
      "outputs": [
        {
          "internalType": "bool",
          "name": "",
          "type": "bool"
        }
      ],
      "stateMutability": "payable",
      "type": "function"
    },
    {
      "inputs": [],
      "name": "priceOracle",
      "outputs": [
        {
          "internalType": "contract IPriceOracle",
          "name": "",
          "type": "address"
        }
      ],
      "stateMutability": "view",
      "type": "function"
    },
    {
      "inputs": [
        {
          "internalType": "address",
          "name": "token",
          "type": "address"
        },
        {
          "internalType": "uint256",
          "name": "amount",
          "type": "uint256"
        }
      ],
      "name": "repay",
      "outputs": [
        {
          "internalType": "uint256",
          "name": "",
          "type": "uint256"
        }
      ],
      "stateMutability": "payable",
      "type": "function"
    },
    {
      "inputs": [],
      "name": "repayKlayAmount",
      "outputs": [
        {
          "internalType": "uint256",
          "name": "",
          "type": "uint256"
        }
      ],
      "stateMutability": "view",
      "type": "function"
    },
    {
      "inputs": [
        {
          "internalType": "address",
          "name": "token",
          "type": "address"
        },
        {
          "internalType": "uint256",
          "name": "amount",
          "type": "uint256"
        }
      ],
      "name": "withdraw",
      "outputs": [
        {
          "internalType": "uint256",
          "name": "",
          "type": "uint256"
        }
      ],
      "stateMutability": "nonpayable",
      "type": "function"
    }
  ],
  "bytecode": "0x608060405234801561001057600080fd5b5060405161151838038061151883398101604081905261002f9161007b565b600080546001600160a01b039283166001600160a01b031991821617909155600180549390921692169190911790556100b5565b6001600160a01b038116811461007857600080fd5b50565b6000806040838503121561008e57600080fd5b825161009981610063565b60208401519092506100aa81610063565b809150509250929050565b611454806100c46000396000f3fe60806040526004361061009c5760003560e01c80637510a9ba116100645780637510a9ba1461016257806386b9d81f146101825780638f26aa8114610195578063f1ef593e146101b7578063f3fef3a3146101df578063f8b2cb4f146101ff57600080fd5b806322867d78146100a15780632630c12f146100c75780633a357a27146100ff57806347e7ef241461011f5780634b8a352914610142575b600080fd5b6100b46100af3660046112b8565b61021f565b6040519081526020015b60405180910390f35b3480156100d357600080fd5b506001546100e7906001600160a01b031681565b6040516001600160a01b0390911681526020016100be565b34801561010b57600080fd5b506100b461011a3660046112e2565b610442565b61013261012d3660046112b8565b610616565b60405190151581526020016100be565b34801561014e57600080fd5b506100b461015d3660046112b8565b61081d565b34801561016e57600080fd5b506000546100e7906001600160a01b031681565b6101326101903660046112e2565b6109d7565b3480156101a157600080fd5b50336000908152600360205260409020546100b4565b3480156101c357600080fd5b506100e773eeeeeeeeeeeeeeeeeeeeeeeeeeeeeeeeeeeeeeee81565b3480156101eb57600080fd5b506100b46101fa3660046112b8565b610caa565b34801561020b57600080fd5b506100b461021a366004611315565b610f94565b60006001600160a01b03831673eeeeeeeeeeeeeeeeeeeeeeeeeeeeeeeeeeeeeeee146102665760405162461bcd60e51b815260040161025d90611330565b60405180910390fd5b336000908152600360205260409020546102b55760405162461bcd60e51b815260206004820152601060248201526f6e6f7468696e6720746f20726570617960801b604482015260640161025d565b348211156103055760405162461bcd60e51b815260206004820152601b60248201527f6d73672e76616c7565203c20616d6f756e7420746f2072657061790000000000604482015260640161025d565b61030e33610ffc565b336000908152600360205260409020600101543490811161035657336000908152600360205260408120600101805483929061034b908490611373565b909155506103ca9050565b336000908152600360205260409020600101546103739082611373565b33600090815260036020526040812060018101919091555490915081116103b357336000908152600360205260408120805483929061034b908490611373565b336000908152600360205260408120818155600201555b336000818152600360205260409020600181015490546001600160a01b03871692917f05f2eeda0e08e4b437f487c8d7d29b14537d15e3488170dc3de5dbdf8dac468491610418919061138a565b60405190815260200160405180910390a35050336000908152600360205260409020545b92915050565b6001600160a01b03808216600090815260026020908152604080832083549094168352929052908120546104785750600061043c565b6001600160a01b03821660009081526003602052604090205461049e575060001961043c565b6001600160a01b0382166000908152600360205260408120600201546104c49043611373565b6001600160a01b038416600090815260036020526040812054919250906127109083906104f29060056113a2565b6104fc91906113a2565b61050691906113c1565b6001600160a01b03851660009081526003602052604090206001015461052c919061138a565b6001600160a01b0385166000908152600360205260408120549192509061055490839061138a565b61056690670de0b6b3a76400006113a2565b6001546000546040516378df075d60e11b81526001600160a01b03918216600482015291169063f1be0eba90602401602060405180830381865afa1580156105b2573d6000803e3d6000fd5b505050506040513d601f19601f820116820180604052508101906105d691906113e3565b6000546105ec906001600160a01b0316886110b4565b6105f691906113a2565b610602906127106113a2565b61060c91906113c1565b9695505050505050565b600080546001600160a01b038481169116148061064f57506001600160a01b03831673eeeeeeeeeeeeeeeeeeeeeeeeeeeeeeeeeeeeeeee145b61066b5760405162461bcd60e51b815260040161025d90611330565b3360009081526002602090815260408083206001600160a01b0387168452909152902054156106a35761069e83336111ac565b6106cc565b3360009081526002602081815260408084206001600160a01b0388168552909152909120439101555b6000546001600160a01b038481169116141561079b573360009081526002602090815260408083206001600160a01b03871684529091528120805484929061071590849061138a565b90915550506000546040516323b872dd60e01b8152336004820152306024820152604481018490526001600160a01b03909116906323b872dd906064016020604051808303816000875af1158015610771573d6000803e3d6000fd5b505050506040513d601f19601f8201168201806040525081019061079591906113fc565b506107d4565b3360009081526002602090815260408083206001600160a01b0387168452909152812080543492906107ce90849061138a565b90915550505b6040518281526001600160a01b0384169033907f5548c837ab068cf56a2c2479df0882a4922fd203edb7517321831d95078c5f629060200160405180910390a350600192915050565b33600090815260026020908152604080832083546001600160a01b0316845290915281205461088e5760405162461bcd60e51b815260206004820152601760248201527f6e6f20636f6c6c61746572616c206465706f7369746564000000000000000000604482015260640161025d565b336000908152600360205260409020548290156108b3576108ae33610ffc565b6108ca565b336000908152600360205260409020436002909101555b33600090815260036020526040812080548392906108e990849061138a565b90915550600090506108fb8533610442565b9050613a9881101561095b5760405162461bcd60e51b8152602060048201526024808201527f626f72726f7720776f756c642065786365656420636f6c6c61746572616c20726044820152636174696f60e01b606482015260840161025d565b604051339083156108fc029084906000818181858888f19350505050158015610988573d6000803e3d6000fd5b5060408051838152602081018390526001600160a01b0387169133917fc1561b330e73faa7d5d1ac03c968d8f359b0191ccdb9cc002cf7d8eb6ae038cb910160405180910390a3949350505050565b600080546001600160a01b03848116911614610a055760405162461bcd60e51b815260040161025d90611330565b6001600160a01b038216331415610a5e5760405162461bcd60e51b815260206004820152601d60248201527f63616e6e6f74206c6971756964617465206f776e20706f736974696f6e000000604482015260640161025d565b6000610a6a8484610442565b9050613a988110610aaf5760405162461bcd60e51b815260206004820152600f60248201526e3432b0b63a3c903837b9b4ba34b7b760891b604482015260640161025d565b610ab883610ffc565b6001600160a01b038316600090815260036020526040812060018101549054610ae1919061138a565b905034811115610b3f5760405162461bcd60e51b815260206004820152602360248201527f696e73756666696369656e74204554482073656e74206279206c6971756964616044820152623a37b960e91b606482015260840161025d565b6000610b4b8234611373565b6001600160a01b038616600090815260036020526040812081815560018101829055600201819055909150610b8087876110b4565b6001600160a01b0387811660009081526002602081815260408084208d86168552909152808320838155600181018490559091018290559054905163a9059cbb60e01b815233600482015260248101849052929350169063a9059cbb906044016020604051808303816000875af1158015610bff573d6000803e3d6000fd5b505050506040513d601f19601f82011682018060405250810190610c2391906113fc565b50604051339083156108fc029084906000818181858888f19350505050158015610c51573d6000803e3d6000fd5b5060408051828152602081018490526001600160a01b03808a16929089169133917f8246cc71ab01533b5bebc672a636df812f10637ad720797319d5741d5ebb3962910160405180910390a45060019695505050505050565b600080546001600160a01b0384811691161480610ce357506001600160a01b03831673eeeeeeeeeeeeeeeeeeeeeeeeeeeeeeeeeeeeeeee145b610cff5760405162461bcd60e51b815260040161025d90611330565b3360009081526002602090815260408083206001600160a01b0387168452909152902054610d5c5760405162461bcd60e51b815260206004820152600a6024820152696e6f2062616c616e636560b01b604482015260640161025d565b3360009081526002602090815260408083206001600160a01b0387168452909152902054821115610dc85760405162461bcd60e51b8152602060048201526016602482015275616d6f756e7420657863656564732062616c616e636560501b604482015260640161025d565b610dd283336111ac565b8180610dfe57503360009081526002602090815260408083206001600160a01b03871684529091529020545b3360009081526002602090815260408083206001600160a01b038816845290915281208054839290610e31908490611373565b90915550503360009081526002602090815260408083206001600160a01b0388168452909152902060010154610e67908261138a565b3360009081526002602090815260408083206001600160a01b03898116808652919093529083206001018390559154929350919091161415610f1e5760005460405163a9059cbb60e01b8152336004820152602481018390526001600160a01b039091169063a9059cbb906044016020604051808303816000875af1158015610ef4573d6000803e3d6000fd5b505050506040513d601f19601f82011682018060405250810190610f1891906113fc565b50610f4d565b604051339082156108fc029083906000818181858888f19350505050158015610f4b573d6000803e3d6000fd5b505b6040518181526001600160a01b0385169033907f9b1bfa7fa9ee420a16e124f794c35ac9f90472acc99140eb2f6447c714cad8eb9060200160405180910390a39392505050565b600080546001600160a01b0383811691161480610fcd57506001600160a01b03821673eeeeeeeeeeeeeeeeeeeeeeeeeeeeeeeeeeeeeeee145b610fe95760405162461bcd60e51b815260040161025d90611330565b6000610ff583336110b4565b9392505050565b6001600160a01b0381166000908152600360205260408120600201546110229043611373565b6001600160a01b03831660009081526003602052604090205490915061271090829061104f9060056113a2565b61105991906113a2565b61106391906113c1565b6001600160a01b0383166000908152600360205260408120600101805490919061108e90849061138a565b9091555050506001600160a01b0316600090815260036020526040902043600290910155565b6001600160a01b03808216600090815260026020818152604080842094871684529390529181209091015481906110eb9043611373565b6001600160a01b038085166000908152600260209081526040808320938916835292905290812054919250906127109083906111289060036113a2565b61113291906113a2565b61113c91906113c1565b6001600160a01b038086166000908152600260209081526040808320938a168352929052206001015461116f919061138a565b6001600160a01b038086166000908152600260209081526040808320938a16835292905220549091506111a390829061138a565b95945050505050565b6001600160a01b0380821660009081526002602081815260408084209487168452939052918120909101546111e19043611373565b6001600160a01b0380841660009081526002602090815260408083209388168352929052205490915061271090829061121b9060036113a2565b61122591906113a2565b61122f91906113c1565b6001600160a01b0380841660009081526002602090815260408083209388168352929052908120600101805490919061126990849061138a565b9091555050506001600160a01b039081166000908152600260208181526040808420959094168352939093522043910155565b80356001600160a01b03811681146112b357600080fd5b919050565b600080604083850312156112cb57600080fd5b6112d48361129c565b946020939093013593505050565b600080604083850312156112f557600080fd5b6112fe8361129c565b915061130c6020840161129c565b90509250929050565b60006020828403121561132757600080fd5b610ff58261129c565b6020808252601390820152721d1bdad95b881b9bdd081cdd5c1c1bdc9d1959606a1b604082015260600190565b634e487b7160e01b600052601160045260246000fd5b6000828210156113855761138561135d565b500390565b6000821982111561139d5761139d61135d565b500190565b60008160001904831182151516156113bc576113bc61135d565b500290565b6000826113de57634e487b7160e01b600052601260045260246000fd5b500490565b6000602082840312156113f557600080fd5b5051919050565b60006020828403121561140e57600080fd5b81518015158114610ff557600080fdfea26469706673582212208966988bfa6d9ebc18582578a55f9e059c33795ec2a3d664bfcade823a834f7b64736f6c634300080c0033",
  "linkReferences": {},
  "deployedLinkReferences": {}
}