{
  "_format": "hh-sol-artifact-1",
  "contractName": "Marketplace",
  "sourceName": "contracts/marketplace/Marketplace.sol",
  "abi": [
    {
      "inputs": [
        {
          "internalType": "uint256",
          "name": "_feePercent",
          "type": "uint256"
        },
        {
          "internalType": "address",
          "name": "_nftCollection",
          "type": "address"
        }
      ],
      "stateMutability": "nonpayable",
      "type": "constructor"
    },
    {
      "anonymous": false,
      "inputs": [
        {
          "indexed": false,
          "internalType": "uint256",
          "name": "itemId",
          "type": "uint256"
        },
        {
          "indexed": false,
          "internalType": "uint256",
          "name": "tokenId",
          "type": "uint256"
        },
        {
          "indexed": false,
          "internalType": "uint256",
          "name": "price",
          "type": "uint256"
        },
        {
          "indexed": true,
          "internalType": "address",
          "name": "seller",
          "type": "address"
        },
        {
          "indexed": true,
          "internalType": "address",
          "name": "buyer",
          "type": "address"
        }
      ],
      "name": "Bought",
      "type": "event"
    },
    {
      "anonymous": false,
      "inputs": [
        {
          "indexed": false,
          "internalType": "uint256",
          "name": "itemId",
          "type": "uint256"
        },
        {
          "indexed": false,
          "internalType": "uint256",
          "name": "tokenId",
          "type": "uint256"
        },
        {
          "indexed": false,
          "internalType": "uint256",
          "name": "price",
          "type": "uint256"
        },
        {
          "indexed": true,
          "internalType": "address",
          "name": "seller",
          "type": "address"
        }
      ],
      "name": "Offered",
      "type": "event"
    },
    {
      "inputs": [],
      "name": "feeAccount",
      "outputs": [
        {
          "internalType": "address payable",
          "name": "",
          "type": "address"
        }
      ],
      "stateMutability": "view",
      "type": "function"
    },
    {
      "inputs": [],
      "name": "feePercent",
      "outputs": [
        {
          "internalType": "uint256",
          "name": "",
          "type": "uint256"
        }
      ],
      "stateMutability": "view",
      "type": "function"
    },
    {
      "inputs": [
        {
          "internalType": "uint256",
          "name": "_itemId",
          "type": "uint256"
        }
      ],
      "name": "getTotalPrice",
      "outputs": [
        {
          "internalType": "uint256",
          "name": "",
          "type": "uint256"
        }
      ],
      "stateMutability": "view",
      "type": "function"
    },
    {
      "inputs": [],
      "name": "itemCount",
      "outputs": [
        {
          "internalType": "uint256",
          "name": "",
          "type": "uint256"
        }
      ],
      "stateMutability": "view",
      "type": "function"
    },
    {
      "inputs": [
        {
          "internalType": "uint256",
          "name": "",
          "type": "uint256"
        }
      ],
      "name": "items",
      "outputs": [
        {
          "internalType": "uint256",
          "name": "itemId",
          "type": "uint256"
        },
        {
          "internalType": "uint256",
          "name": "tokenId",
          "type": "uint256"
        },
        {
          "internalType": "uint256",
          "name": "price",
          "type": "uint256"
        },
        {
          "internalType": "address payable",
          "name": "seller",
          "type": "address"
        },
        {
          "internalType": "bool",
          "name": "sold",
          "type": "bool"
        }
      ],
      "stateMutability": "view",
      "type": "function"
    },
    {
      "inputs": [
        {
          "internalType": "uint256",
          "name": "_tokenId",
          "type": "uint256"
        },
        {
          "internalType": "uint256",
          "name": "_price",
          "type": "uint256"
        }
      ],
      "name": "makeItem",
      "outputs": [],
      "stateMutability": "nonpayable",
      "type": "function"
    },
    {
      "inputs": [
        {
          "internalType": "uint256",
          "name": "_itemId",
          "type": "uint256"
        }
      ],
      "name": "purchaseItem",
      "outputs": [],
      "stateMutability": "payable",
      "type": "function"
    }
  ],
  "bytecode": "0x60c060405234801561001057600080fd5b5060405161094138038061094183398101604081905261002f91610062565b60016000553360805260a091909152600280546001600160a01b0319166001600160a01b0390921691909117905561009f565b6000806040838503121561007557600080fd5b825160208401519092506001600160a01b038116811461009457600080fd5b809150509250929050565b60805160a0516108706100d16000396000818161011e01526103fc01526000818160a9015261061101526108706000f3fe6080604052600436106100705760003560e01c80637fd6f15c1161004e5780637fd6f15c1461010c578063bfb231d214610140578063ca7dd375146101cc578063d38ea5bf146101ec57600080fd5b80630a50e3be1461007557806365e17c9d146100975780636bfb0d01146100e8575b600080fd5b34801561008157600080fd5b5061009561009036600461075e565b6101ff565b005b3480156100a357600080fd5b506100cb7f000000000000000000000000000000000000000000000000000000000000000081565b6040516001600160a01b0390911681526020015b60405180910390f35b3480156100f457600080fd5b506100fe60015481565b6040519081526020016100df565b34801561011857600080fd5b506100fe7f000000000000000000000000000000000000000000000000000000000000000081565b34801561014c57600080fd5b5061019961015b366004610780565b60036020819052600091825260409091208054600182015460028301549290930154909291906001600160a01b03811690600160a01b900460ff1685565b604080519586526020860194909452928401919091526001600160a01b031660608301521515608082015260a0016100df565b3480156101d857600080fd5b506100fe6101e7366004610780565b6103f3565b6100956101fa366004610780565b61044d565b600260005414156102575760405162461bcd60e51b815260206004820152601f60248201527f5265656e7472616e637947756172643a207265656e7472616e742063616c6c0060448201526064015b60405180910390fd5b6002600055806102a95760405162461bcd60e51b815260206004820152601f60248201527f5072696365206d7573742062652067726561746572207468616e207a65726f00604482015260640161024e565b600180549060006102b9836107af565b90915550506002546040516323b872dd60e01b8152336004820152306024820152604481018490526001600160a01b03909116906323b872dd90606401600060405180830381600087803b15801561031057600080fd5b505af1158015610324573d6000803e3d6000fd5b50506040805160a081018252600180548083526020808401898152848601898152336060808801828152600060808a018181529781526003808852908b902099518a5594518989015592516002890155915196909201805494511515600160a01b026001600160a81b03199095166001600160a01b039097169690961793909317909455915484519081529182018890529281018690529093507fd846d2cfaaa23a2723be747ef18b5d16a1484d901d581da4843cc27638c862ad92500160405180910390a250506001600055565b600061042060647f00000000000000000000000000000000000000000000000000000000000000006107ca565b61042b9060646107ec565b6000838152600360205260409020600201546104479190610804565b92915050565b600260005414156104a05760405162461bcd60e51b815260206004820152601f60248201527f5265656e7472616e637947756172643a207265656e7472616e742063616c6c00604482015260640161024e565b600260009081556104b0826103f3565b600083815260036020526040902090915082158015906104d257506001548311155b6105135760405162461bcd60e51b81526020600482015260126024820152711a5d195b48191bd95cdb89dd08195e1a5cdd60721b604482015260640161024e565b8134101561057e5760405162461bcd60e51b815260206004820152603260248201527f4e6f7420656e6f756768206b6c617920746f20636f766572206974656d20707260448201527169636520616e64206d61726b65742066656560701b606482015260840161024e565b6003810154600160a01b900460ff16156105ce5760405162461bcd60e51b81526020600482015260116024820152701a5d195b48185b1c9958591e481cdbdb19607a1b604482015260640161024e565b600381015460028201546040516001600160a01b039092169181156108fc0291906000818181858888f1935050505015801561060e573d6000803e3d6000fd5b507f00000000000000000000000000000000000000000000000000000000000000006001600160a01b03166108fc82600201548461064c9190610823565b6040518115909202916000818181858888f19350505050158015610674573d6000803e3d6000fd5b5060038101805460ff60a01b1916600160a01b17905560025460018201546040516323b872dd60e01b815230600482015233602482015260448101919091526001600160a01b03909116906323b872dd90606401600060405180830381600087803b1580156106e257600080fd5b505af11580156106f6573d6000803e3d6000fd5b5050505060038101546001820154600283015460408051878152602081019390935282015233916001600160a01b0316907fb085dc883b64c92d87743e5a1968be3b32761fc31aedacb744268b19a1da21db9060600160405180910390a35050600160005550565b6000806040838503121561077157600080fd5b50508035926020909101359150565b60006020828403121561079257600080fd5b5035919050565b634e487b7160e01b600052601160045260246000fd5b60006000198214156107c3576107c3610799565b5060010190565b6000826107e757634e487b7160e01b600052601260045260246000fd5b500490565b600082198211156107ff576107ff610799565b500190565b600081600019048311821515161561081e5761081e610799565b500290565b60008282101561083557610835610799565b50039056fea2646970667358221220e81c3b59f675ef3cc3d7102637004e95d475051608268f8ea1a3f1e052ded77764736f6c634300080c0033",
  "linkReferences": {},
  "deployedLinkReferences": {}
}