{
  "_format": "hh-sol-artifact-1",
  "contractName": "DexPair",
  "sourceName": "contracts/swap/DexPair.sol",
  "abi": [
    {
      "inputs": [],
      "stateMutability": "nonpayable",
      "type": "constructor"
    },
    {
      "inputs": [
        {
          "internalType": "string",
          "name": "",
          "type": "string"
        }
      ],
      "name": "InsufficientAmount",
      "type": "error"
    },
    {
      "inputs": [
        {
          "internalType": "string",
          "name": "",
          "type": "string"
        }
      ],
      "name": "InsufficientLiquidity",
      "type": "error"
    },
    {
      "inputs": [
        {
          "internalType": "string",
          "name": "",
          "type": "string"
        }
      ],
      "name": "InvalidAddressParameters",
      "type": "error"
    },
    {
      "inputs": [],
      "name": "Locked",
      "type": "error"
    },
    {
      "inputs": [],
      "name": "Overflow",
      "type": "error"
    },
    {
      "inputs": [],
      "name": "Unauthorized",
      "type": "error"
    },
    {
      "anonymous": false,
      "inputs": [
        {
          "indexed": true,
          "internalType": "address",
          "name": "owner",
          "type": "address"
        },
        {
          "indexed": true,
          "internalType": "address",
          "name": "spender",
          "type": "address"
        },
        {
          "indexed": false,
          "internalType": "uint256",
          "name": "value",
          "type": "uint256"
        }
      ],
      "name": "Approval",
      "type": "event"
    },
    {
      "anonymous": false,
      "inputs": [
        {
          "indexed": true,
          "internalType": "address",
          "name": "sender",
          "type": "address"
        },
        {
          "indexed": false,
          "internalType": "uint256",
          "name": "amount0",
          "type": "uint256"
        },
        {
          "indexed": false,
          "internalType": "uint256",
          "name": "amount1",
          "type": "uint256"
        },
        {
          "indexed": true,
          "internalType": "address",
          "name": "to",
          "type": "address"
        }
      ],
      "name": "Burn",
      "type": "event"
    },
    {
      "anonymous": false,
      "inputs": [
        {
          "indexed": true,
          "internalType": "address",
          "name": "sender",
          "type": "address"
        },
        {
          "indexed": false,
          "internalType": "uint256",
          "name": "amount0",
          "type": "uint256"
        },
        {
          "indexed": false,
          "internalType": "uint256",
          "name": "amount1",
          "type": "uint256"
        }
      ],
      "name": "Mint",
      "type": "event"
    },
    {
      "anonymous": false,
      "inputs": [
        {
          "indexed": true,
          "internalType": "address",
          "name": "sender",
          "type": "address"
        },
        {
          "indexed": false,
          "internalType": "uint256",
          "name": "amount0In",
          "type": "uint256"
        },
        {
          "indexed": false,
          "internalType": "uint256",
          "name": "amount1In",
          "type": "uint256"
        },
        {
          "indexed": false,
          "internalType": "uint256",
          "name": "amount0Out",
          "type": "uint256"
        },
        {
          "indexed": false,
          "internalType": "uint256",
          "name": "amount1Out",
          "type": "uint256"
        },
        {
          "indexed": true,
          "internalType": "address",
          "name": "to",
          "type": "address"
        }
      ],
      "name": "Swap",
      "type": "event"
    },
    {
      "anonymous": false,
      "inputs": [
        {
          "indexed": false,
          "internalType": "uint112",
          "name": "reserve0",
          "type": "uint112"
        },
        {
          "indexed": false,
          "internalType": "uint112",
          "name": "reserve1",
          "type": "uint112"
        }
      ],
      "name": "Sync",
      "type": "event"
    },
    {
      "anonymous": false,
      "inputs": [
        {
          "indexed": true,
          "internalType": "address",
          "name": "from",
          "type": "address"
        },
        {
          "indexed": true,
          "internalType": "address",
          "name": "to",
          "type": "address"
        },
        {
          "indexed": false,
          "internalType": "uint256",
          "name": "value",
          "type": "uint256"
        }
      ],
      "name": "Transfer",
      "type": "event"
    },
    {
      "inputs": [],
      "name": "DOMAIN_SEPARATOR",
      "outputs": [
        {
          "internalType": "bytes32",
          "name": "",
          "type": "bytes32"
        }
      ],
      "stateMutability": "view",
      "type": "function"
    },
    {
      "inputs": [],
      "name": "MINIMUM_LIQUIDITY",
      "outputs": [
        {
          "internalType": "uint256",
          "name": "",
          "type": "uint256"
        }
      ],
      "stateMutability": "view",
      "type": "function"
    },
    {
      "inputs": [],
      "name": "PERMIT_TYPEHASH",
      "outputs": [
        {
          "internalType": "bytes32",
          "name": "",
          "type": "bytes32"
        }
      ],
      "stateMutability": "view",
      "type": "function"
    },
    {
      "inputs": [
        {
          "internalType": "address",
          "name": "",
          "type": "address"
        },
        {
          "internalType": "address",
          "name": "",
          "type": "address"
        }
      ],
      "name": "allowance",
      "outputs": [
        {
          "internalType": "uint256",
          "name": "",
          "type": "uint256"
        }
      ],
      "stateMutability": "view",
      "type": "function"
    },
    {
      "inputs": [
        {
          "internalType": "address",
          "name": "spender",
          "type": "address"
        },
        {
          "internalType": "uint256",
          "name": "amount",
          "type": "uint256"
        }
      ],
      "name": "approve",
      "outputs": [
        {
          "internalType": "bool",
          "name": "",
          "type": "bool"
        }
      ],
      "stateMutability": "nonpayable",
      "type": "function"
    },
    {
      "inputs": [
        {
          "internalType": "address",
          "name": "",
          "type": "address"
        }
      ],
      "name": "balanceOf",
      "outputs": [
        {
          "internalType": "uint256",
          "name": "",
          "type": "uint256"
        }
      ],
      "stateMutability": "view",
      "type": "function"
    },
    {
      "inputs": [
        {
          "internalType": "address",
          "name": "to",
          "type": "address"
        }
      ],
      "name": "burn",
      "outputs": [
        {
          "internalType": "uint256",
          "name": "amount0",
          "type": "uint256"
        },
        {
          "internalType": "uint256",
          "name": "amount1",
          "type": "uint256"
        }
      ],
      "stateMutability": "nonpayable",
      "type": "function"
    },
    {
      "inputs": [],
      "name": "decimals",
      "outputs": [
        {
          "internalType": "uint8",
          "name": "",
          "type": "uint8"
        }
      ],
      "stateMutability": "view",
      "type": "function"
    },
    {
      "inputs": [],
      "name": "factory",
      "outputs": [
        {
          "internalType": "address",
          "name": "",
          "type": "address"
        }
      ],
      "stateMutability": "view",
      "type": "function"
    },
    {
      "inputs": [],
      "name": "getReserves",
      "outputs": [
        {
          "internalType": "uint112",
          "name": "_reserve0",
          "type": "uint112"
        },
        {
          "internalType": "uint112",
          "name": "_reserve1",
          "type": "uint112"
        },
        {
          "internalType": "uint32",
          "name": "_blockTimestampLast",
          "type": "uint32"
        }
      ],
      "stateMutability": "view",
      "type": "function"
    },
    {
      "inputs": [
        {
          "internalType": "address",
          "name": "_token0",
          "type": "address"
        },
        {
          "internalType": "address",
          "name": "_token1",
          "type": "address"
        }
      ],
      "name": "initialize",
      "outputs": [],
      "stateMutability": "nonpayable",
      "type": "function"
    },
    {
      "inputs": [],
      "name": "kLast",
      "outputs": [
        {
          "internalType": "uint256",
          "name": "",
          "type": "uint256"
        }
      ],
      "stateMutability": "view",
      "type": "function"
    },
    {
      "inputs": [
        {
          "internalType": "address",
          "name": "to",
          "type": "address"
        }
      ],
      "name": "mint",
      "outputs": [
        {
          "internalType": "uint256",
          "name": "liquidity",
          "type": "uint256"
        }
      ],
      "stateMutability": "nonpayable",
      "type": "function"
    },
    {
      "inputs": [],
      "name": "name",
      "outputs": [
        {
          "internalType": "string",
          "name": "",
          "type": "string"
        }
      ],
      "stateMutability": "view",
      "type": "function"
    },
    {
      "inputs": [
        {
          "internalType": "address",
          "name": "",
          "type": "address"
        }
      ],
      "name": "nonces",
      "outputs": [
        {
          "internalType": "uint256",
          "name": "",
          "type": "uint256"
        }
      ],
      "stateMutability": "view",
      "type": "function"
    },
    {
      "inputs": [
        {
          "internalType": "address",
          "name": "owner",
          "type": "address"
        },
        {
          "internalType": "address",
          "name": "spender",
          "type": "address"
        },
        {
          "internalType": "uint256",
          "name": "value",
          "type": "uint256"
        },
        {
          "internalType": "uint256",
          "name": "deadline",
          "type": "uint256"
        },
        {
          "internalType": "uint8",
          "name": "v",
          "type": "uint8"
        },
        {
          "internalType": "bytes32",
          "name": "r",
          "type": "bytes32"
        },
        {
          "internalType": "bytes32",
          "name": "s",
          "type": "bytes32"
        }
      ],
      "name": "permit",
      "outputs": [],
      "stateMutability": "nonpayable",
      "type": "function"
    },
    {
      "inputs": [],
      "name": "price0CumulativeLast",
      "outputs": [
        {
          "internalType": "uint256",
          "name": "",
          "type": "uint256"
        }
      ],
      "stateMutability": "view",
      "type": "function"
    },
    {
      "inputs": [],
      "name": "price1CumulativeLast",
      "outputs": [
        {
          "internalType": "uint256",
          "name": "",
          "type": "uint256"
        }
      ],
      "stateMutability": "view",
      "type": "function"
    },
    {
      "inputs": [
        {
          "internalType": "address",
          "name": "recipient",
          "type": "address"
        },
        {
          "internalType": "uint256",
          "name": "amount",
          "type": "uint256"
        }
      ],
      "name": "safeTransfer",
      "outputs": [],
      "stateMutability": "nonpayable",
      "type": "function"
    },
    {
      "inputs": [
        {
          "internalType": "address",
          "name": "recipient",
          "type": "address"
        },
        {
          "internalType": "uint256",
          "name": "amount",
          "type": "uint256"
        },
        {
          "internalType": "bytes",
          "name": "data",
          "type": "bytes"
        }
      ],
      "name": "safeTransfer",
      "outputs": [],
      "stateMutability": "nonpayable",
      "type": "function"
    },
    {
      "inputs": [
        {
          "internalType": "address",
          "name": "sender",
          "type": "address"
        },
        {
          "internalType": "address",
          "name": "recipient",
          "type": "address"
        },
        {
          "internalType": "uint256",
          "name": "amount",
          "type": "uint256"
        }
      ],
      "name": "safeTransferFrom",
      "outputs": [],
      "stateMutability": "nonpayable",
      "type": "function"
    },
    {
      "inputs": [
        {
          "internalType": "address",
          "name": "sender",
          "type": "address"
        },
        {
          "internalType": "address",
          "name": "recipient",
          "type": "address"
        },
        {
          "internalType": "uint256",
          "name": "amount",
          "type": "uint256"
        },
        {
          "internalType": "bytes",
          "name": "data",
          "type": "bytes"
        }
      ],
      "name": "safeTransferFrom",
      "outputs": [],
      "stateMutability": "nonpayable",
      "type": "function"
    },
    {
      "inputs": [
        {
          "internalType": "address",
          "name": "to",
          "type": "address"
        }
      ],
      "name": "skim",
      "outputs": [],
      "stateMutability": "nonpayable",
      "type": "function"
    },
    {
      "inputs": [
        {
          "internalType": "bytes4",
          "name": "interfaceId",
          "type": "bytes4"
        }
      ],
      "name": "supportsInterface",
      "outputs": [
        {
          "internalType": "bool",
          "name": "",
          "type": "bool"
        }
      ],
      "stateMutability": "view",
      "type": "function"
    },
    {
      "inputs": [
        {
          "internalType": "uint256",
          "name": "amount0Out",
          "type": "uint256"
        },
        {
          "internalType": "uint256",
          "name": "amount1Out",
          "type": "uint256"
        },
        {
          "internalType": "address",
          "name": "to",
          "type": "address"
        },
        {
          "internalType": "bytes",
          "name": "data",
          "type": "bytes"
        }
      ],
      "name": "swap",
      "outputs": [],
      "stateMutability": "nonpayable",
      "type": "function"
    },
    {
      "inputs": [],
      "name": "symbol",
      "outputs": [
        {
          "internalType": "string",
          "name": "",
          "type": "string"
        }
      ],
      "stateMutability": "view",
      "type": "function"
    },
    {
      "inputs": [],
      "name": "sync",
      "outputs": [],
      "stateMutability": "nonpayable",
      "type": "function"
    },
    {
      "inputs": [],
      "name": "token0",
      "outputs": [
        {
          "internalType": "address",
          "name": "",
          "type": "address"
        }
      ],
      "stateMutability": "view",
      "type": "function"
    },
    {
      "inputs": [],
      "name": "token1",
      "outputs": [
        {
          "internalType": "address",
          "name": "",
          "type": "address"
        }
      ],
      "stateMutability": "view",
      "type": "function"
    },
    {
      "inputs": [],
      "name": "totalSupply",
      "outputs": [
        {
          "internalType": "uint256",
          "name": "",
          "type": "uint256"
        }
      ],
      "stateMutability": "view",
      "type": "function"
    },
    {
      "inputs": [
        {
          "internalType": "address",
          "name": "to",
          "type": "address"
        },
        {
          "internalType": "uint256",
          "name": "amount",
          "type": "uint256"
        }
      ],
      "name": "transfer",
      "outputs": [
        {
          "internalType": "bool",
          "name": "",
          "type": "bool"
        }
      ],
      "stateMutability": "nonpayable",
      "type": "function"
    },
    {
      "inputs": [
        {
          "internalType": "address",
          "name": "from",
          "type": "address"
        },
        {
          "internalType": "address",
          "name": "to",
          "type": "address"
        },
        {
          "internalType": "uint256",
          "name": "amount",
          "type": "uint256"
        }
      ],
      "name": "transferFrom",
      "outputs": [
        {
          "internalType": "bool",
          "name": "",
          "type": "bool"
        }
      ],
      "stateMutability": "nonpayable",
      "type": "function"
    }
  ],
  "bytecode": "0x60c06040526001600b553480156200001657600080fd5b5060405146907f8b73c3c69bb8fe3d512ecc4cf759cc79239f7b179b0ffacaa9a75d522b39400f906200004c90600090620000d5565b60408051918290038220828201825260018352603160f81b6020938401528151928301939093528101919091527fc89efdaa54c0f20c7adf612882df0950f5a951637e0307cdcb4c672f298b8bc66060820152608081018290523060a082015260c00160408051601f198184030181529190528051602090910120608052503360a05262000179565b600080835481600182811c915080831680620000f257607f831692505b60208084108214156200011357634e487b7160e01b86526022600452602486fd5b8180156200012a57600181146200013c576200016b565b60ff198616895284890196506200016b565b60008a81526020902060005b86811015620001635781548b82015290850190830162000148565b505084890196505b509498975050505050505050565b60805160a0516129cf620001b46000396000818161048701528181610bd90152611db2015260008181610329015261164d01526129cf6000f3fe608060405234801561001057600080fd5b50600436106101f05760003560e01c80636a6278421161010f578063ba9a7a56116100a2578063d505accf11610071578063d505accf146104bc578063dd62ed3e146104cf578063eb795549146104fa578063fff6cae91461050d57600080fd5b8063ba9a7a5614610466578063bc25cf771461046f578063c45a015514610482578063d21220a7146104a957600080fd5b806389afcb44116100de57806389afcb44146103f257806395d89b411461041a578063a9059cbb14610440578063b88d4fde1461045357600080fd5b80636a6278421461039657806370a08231146103a95780637464fc3d146103c95780637ecebe00146103d257600080fd5b806330adf81f1161018757806342842e0e1161015657806342842e0e1461035e578063485cc955146103715780635909c0d5146103845780635a3d54931461038d57600080fd5b806330adf81f146102e3578063313ce5671461030a5780633644e51514610324578063423f6cef1461034b57600080fd5b8063095ea7b3116101c3578063095ea7b31461027b5780630dfe16811461028e57806318160ddd146102b957806323b872dd146102d057600080fd5b806301ffc9a7146101f5578063022c0d9f1461021d57806306fdde03146102325780630902f1ac14610247575b600080fd5b610208610203366004612214565b610515565b60405190151581526020015b60405180910390f35b61023061022b366004612246565b610567565b005b61023a610a50565b6040516102149190612338565b61024f610ade565b604080516001600160701b03948516815293909216602084015263ffffffff1690820152606001610214565b61020861028936600461234b565b610b08565b6005546102a1906001600160a01b031681565b6040516001600160a01b039091168152602001610214565b6102c260015481565b604051908152602001610214565b6102086102de366004612377565b610b1e565b6102c27f6e71edae12b1b97f4d1f60370fef10105fa2faae0126114a169c64845d6126c981565b610312601281565b60405160ff9091168152602001610214565b6102c27f000000000000000000000000000000000000000000000000000000000000000081565b61023061035936600461234b565b610b90565b61023061036c366004612377565b610bae565b61023061037f3660046123b8565b610bce565b6102c260085481565b6102c260095481565b6102c26103a43660046123f1565b610d42565b6102c26103b73660046123f1565b60026020526000908152604090205481565b6102c2600a5481565b6102c26103e03660046123f1565b60046020526000908152604090205481565b6104056104003660046123f1565b611006565b60408051928352602083019190915201610214565b61023a604051806040016040528060078152602001660594445582d4c560cc1b81525081565b61020861044e36600461234b565b611363565b6102306104613660046124d3565b611370565b6102c26103e881565b61023061047d3660046123f1565b6114de565b6102a17f000000000000000000000000000000000000000000000000000000000000000081565b6006546102a1906001600160a01b031681565b6102306104ca36600461253f565b6115f2565b6102c26104dd3660046123b8565b600360209081526000928352604080842090915290825290205481565b6102306105083660046125b6565b611814565b61023061186d565b60006001600160e01b03198216636578737160e01b148061054657506001600160e01b0319821663a219a02560e01b145b8061056157506301ffc9a760e01b6001600160e01b03198316145b92915050565b600b5460011461058a576040516303cb96db60e21b815260040160405180910390fd5b6000600b558415801561059b575083155b156105ee5760405163240bf61760e11b815260206004820152601f60248201527f4445583a20494e53554646494349454e545f4f55545055545f414d4f554e540060448201526064015b60405180910390fd5b6000806105f9610ade565b5091509150816001600160701b03168710158061061f5750806001600160701b03168610155b1561066d5760405163abd6d26960e01b815260206004820152601b60248201527f4445583a20494e53554646494349454e545f4c4951554944495459000000000060448201526064016105e5565b60055460065460009182916001600160a01b03918216919081169089168214806106a85750806001600160a01b0316896001600160a01b0316145b156106e857604051631fadb98760e11b815260206004820152600f60248201526e4445583a20494e56414c49445f544f60881b60448201526064016105e5565b8a156106f9576106f9828a8d611992565b891561070a5761070a818a8c611992565b8615610777576040516304347a1760e21b81526001600160a01b038a16906310d1e85c906107449033908f908f908e908e9060040161260f565b600060405180830381600087803b15801561075e57600080fd5b505af1158015610772573d6000803e3d6000fd5b505050505b6040516370a0823160e01b81523060048201526001600160a01b038316906370a0823190602401602060405180830381865afa1580156107bb573d6000803e3d6000fd5b505050506040513d601f19601f820116820180604052508101906107df919061265b565b6040516370a0823160e01b81523060048201529094506001600160a01b038216906370a0823190602401602060405180830381865afa158015610826573d6000803e3d6000fd5b505050506040513d601f19601f8201168201806040525081019061084a919061265b565b92505050600089856001600160701b0316610865919061268a565b831161087257600061088f565b6108858a6001600160701b03871661268a565b61088f908461268a565b905060006108a68a6001600160701b03871661268a565b83116108b35760006108d0565b6108c68a6001600160701b03871661268a565b6108d0908461268a565b9050811580156108de575080155b1561092c5760405163240bf61760e11b815260206004820152601e60248201527f4445583a20494e53554646494349454e545f494e5055545f414d4f554e54000060448201526064016105e5565b60006109398360036126a1565b610945866103e86126a1565b61094f919061268a565b9050600061095e8360036126a1565b61096a866103e86126a1565b610974919061268a565b905061098c6001600160701b03808916908a166126a1565b61099990620f42406126a1565b6109a382846126a1565b10156109db5760405163240bf61760e11b81526020600482015260066024820152654445583a204b60d01b60448201526064016105e5565b50506109e984848888611a9d565b60408051838152602081018390529081018c9052606081018b90526001600160a01b038a169033907fd78ad95fa46c994b6551d0da85fc275fe613ce37657fb8d5e3d130840159d8229060800160405180910390a350506001600b55505050505050505050565b60008054610a5d906126c0565b80601f0160208091040260200160405190810160405280929190818152602001828054610a89906126c0565b8015610ad65780601f10610aab57610100808354040283529160200191610ad6565b820191906000526020600020905b815481529060010190602001808311610ab957829003601f168201915b505050505081565b6007546001600160701b0380821692600160701b830490911691600160e01b900463ffffffff1690565b6000610b15338484611c44565b50600192915050565b6001600160a01b03831660009081526003602090815260408083203384529091528120546000198114610b7a57610b55838261268a565b6001600160a01b03861660009081526003602090815260408083203384529091529020555b610b85858585611ca5565b506001949350505050565b610baa828260405180602001604052806000815250611814565b5050565b610bc983838360405180602001604052806000815250611370565b505050565b336001600160a01b037f00000000000000000000000000000000000000000000000000000000000000001614610c16576040516282b42960e81b815260040160405180910390fd5b600580546001600160a01b038085166001600160a01b031992831681179093556006805491851691909216179055604080516395d89b4160e01b815290516395d89b41916004808201926000929091908290030181865afa158015610c7f573d6000803e3d6000fd5b505050506040513d6000823e601f3d908101601f19168201604052610ca791908101906126f5565b816001600160a01b03166395d89b416040518163ffffffff1660e01b8152600401600060405180830381865afa158015610ce5573d6000803e3d6000fd5b505050506040513d6000823e601f3d908101601f19168201604052610d0d91908101906126f5565b604051602001610d1e92919061276c565b60405160208183030381529060405260009080519060200190610bc9929190612162565b6000600b54600114610d67576040516303cb96db60e21b815260040160405180910390fd5b6000600b81905580610d77610ade565b506005546040516370a0823160e01b81523060048201529294509092506000916001600160a01b03909116906370a0823190602401602060405180830381865afa158015610dc9573d6000803e3d6000fd5b505050506040513d601f19601f82011682018060405250810190610ded919061265b565b6006546040516370a0823160e01b81523060048201529192506000916001600160a01b03909116906370a0823190602401602060405180830381865afa158015610e3b573d6000803e3d6000fd5b505050506040513d601f19601f82011682018060405250810190610e5f919061265b565b90506000610e766001600160701b0386168461268a565b90506000610e8d6001600160701b0386168461268a565b90506000610e9b8787611dad565b60015490915080610ed9576103e8610ebb610eb685876126a1565b611ef7565b610ec5919061268a565b9850610ed460006103e8611f67565b610f20565b610f1d6001600160701b038916610ef083876126a1565b610efa91906127d3565b6001600160701b038916610f0e84876126a1565b610f1891906127d3565b611ff9565b98505b88610f795760405163abd6d26960e01b815260206004820152602260248201527f4445583a20494e53554646494349454e545f4c49515549444954595f4d494e54604482015261115160f21b60648201526084016105e5565b610f838a8a611f67565b610f8f86868a8a611a9d565b8115610fb857600754610fb4906001600160701b03600160701b8204811691166126a1565b600a555b604080518581526020810185905233917f4c209b5fc8ad50758f13e2e1088ba56a560dff690a1c6fef26394f4c03821c4f910160405180910390a250506001600b5550949695505050505050565b600080600b5460011461102c576040516303cb96db60e21b815260040160405180910390fd5b6000600b8190558061103c610ade565b506005546006546040516370a0823160e01b81523060048201529395509193506001600160a01b039081169291169060009083906370a0823190602401602060405180830381865afa158015611096573d6000803e3d6000fd5b505050506040513d601f19601f820116820180604052508101906110ba919061265b565b6040516370a0823160e01b81523060048201529091506000906001600160a01b038416906370a0823190602401602060405180830381865afa158015611104573d6000803e3d6000fd5b505050506040513d601f19601f82011682018060405250810190611128919061265b565b306000908152600260205260408120549192506111458888611dad565b6001549091508061115686856126a1565b61116091906127d3565b9a508061116d85856126a1565b61117791906127d3565b99508a1580611184575089155b156111dd5760405163abd6d26960e01b815260206004820152602260248201527f4445583a20494e53554646494349454e545f4c49515549444954595f4255524e604482015261115160f21b60648201526084016105e5565b6111e73084612011565b6111f2878d8d611992565b6111fd868d8c611992565b6040516370a0823160e01b81523060048201526001600160a01b038816906370a0823190602401602060405180830381865afa158015611241573d6000803e3d6000fd5b505050506040513d601f19601f82011682018060405250810190611265919061265b565b6040516370a0823160e01b81523060048201529095506001600160a01b038716906370a0823190602401602060405180830381865afa1580156112ac573d6000803e3d6000fd5b505050506040513d601f19601f820116820180604052508101906112d0919061265b565b93506112de85858b8b611a9d565b811561130757600754611303906001600160701b03600160701b8204811691166126a1565b600a555b604080518c8152602081018c90526001600160a01b038e169133917fdccd412f0b1252819cb1fd330b93224ca42612892bb3f4f789976e6d81936496910160405180910390a35050505050505050506001600b81905550915091565b6000610b15338484611ca5565b6001600160a01b0384166113d25760405162461bcd60e51b8152602060048201526024808201527f4b4950373a207472616e736665722066726f6d20746865207a65726f206164646044820152637265737360e01b60648201526084016105e5565b6001600160a01b0383166113f85760405162461bcd60e51b81526004016105e5906127e7565b6001600160a01b038416600090815260036020908152604080832033845290915290205460001981146114a457828110156114755760405162461bcd60e51b815260206004820152601c60248201527f4b4950373a20696e73756666696369656e7420616c6c6f77616e63650000000060448201526064016105e5565b61147f838261268a565b6001600160a01b03861660009081526003602090815260408083203384529091529020555b6114af858585611ca5565b6114bb8585858561209d565b6114d75760405162461bcd60e51b81526004016105e590612829565b5050505050565b600b54600114611501576040516303cb96db60e21b815260040160405180910390fd5b6000600b556005546006546007546040516370a0823160e01b81523060048201526001600160a01b0393841693909216916115a091849186916001600160701b03169083906370a08231906024015b602060405180830381865afa15801561156d573d6000803e3d6000fd5b505050506040513d601f19601f82011682018060405250810190611591919061265b565b61159b919061268a565b611992565b6007546040516370a0823160e01b81523060048201526115e89183918691600160701b90046001600160701b0316906001600160a01b038416906370a0823190602401611550565b50506001600b5550565b428410156116315760405162461bcd60e51b815260206004820152600c60248201526b1111560e881156141254915160a21b60448201526064016105e5565b6001600160a01b038716600090815260046020526040812080547f0000000000000000000000000000000000000000000000000000000000000000917f6e71edae12b1b97f4d1f60370fef10105fa2faae0126114a169c64845d6126c9918b918b918b918761169f83612877565b909155506040805160208101969096526001600160a01b0394851690860152929091166060840152608083015260a082015260c0810187905260e0016040516020818303038152906040528051906020012060405160200161171892919061190160f01b81526002810192909252602282015260420190565b60408051601f198184030181528282528051602091820120600080855291840180845281905260ff88169284019290925260608301869052608083018590529092509060019060a0016020604051602081039080840390855afa158015611783573d6000803e3d6000fd5b5050604051601f1901519150506001600160a01b038116158015906117b95750886001600160a01b0316816001600160a01b0316145b6117fe5760405162461bcd60e51b81526020600482015260166024820152754445583a20494e56414c49445f5349474e415455524560501b60448201526064016105e5565b611809898989611c44565b505050505050505050565b6001600160a01b03831661183a5760405162461bcd60e51b81526004016105e5906127e7565b611845338484611ca5565b6118513384848461209d565b610bc95760405162461bcd60e51b81526004016105e590612829565b600b54600114611890576040516303cb96db60e21b815260040160405180910390fd5b6000600b556005546040516370a0823160e01b815230600482015261198b916001600160a01b0316906370a0823190602401602060405180830381865afa1580156118df573d6000803e3d6000fd5b505050506040513d601f19601f82011682018060405250810190611903919061265b565b6006546040516370a0823160e01b81523060048201526001600160a01b03909116906370a0823190602401602060405180830381865afa15801561194b573d6000803e3d6000fd5b505050506040513d601f19601f8201168201806040525081019061196f919061265b565b6007546001600160701b0380821691600160701b900416611a9d565b6001600b55565b604080516001600160a01b038481166024830152604480830185905283518084039091018152606490920183526020820180516001600160e01b031663a9059cbb60e01b17905291516000928392908716916119ee9190612892565b6000604051808303816000865af19150503d8060008114611a2b576040519150601f19603f3d011682016040523d82523d6000602084013e611a30565b606091505b5091509150818015611a5a575080511580611a5a575080806020019051810190611a5a91906128ae565b6114d75760405162461bcd60e51b81526020600482015260146024820152731111560e881514905394d1915497d1905253115160621b60448201526064016105e5565b6001600160701b03841180611ab857506001600160701b0383115b15611ad657604051631a93c68960e11b815260040160405180910390fd5b6000611ae7640100000000426128d0565b60075490915063ffffffff600160e01b9091048116820390811615801590611b1757506001600160701b03841615155b8015611b2b57506001600160701b03831615155b15611bac5763ffffffff8116611b5c85607086901b600160701b600160e01b03165b6001600160e01b03169061214d565b600880546001600160e01b03929092169290920201905563ffffffff8116611b9484607087901b600160701b600160e01b0316611b4d565b600980546001600160e01b0392909216929092020190555b506007805463ffffffff8316600160e01b026001600160e01b036001600160701b03888116600160701b9081026001600160e01b03199095168b83161794909417918216831794859055604080519382169282169290921783529290930490911660208201527f1c411e9a96e071241c2f21f7726b17ae89e3cab4c78be50e062b03a9fffbbad1910160405180910390a15050505050565b6001600160a01b0383811660008181526003602090815260408083209487168084529482529182902085905590518481527f8c5be1e5ebec7d5bd14f71427d1e84f3dd0314c0f7b2291e5b200ac8c7c3b925910160405180910390a3505050565b6001600160a01b03831660009081526002602052604090205481811015611d1c5760405162461bcd60e51b815260206004820152602560248201527f4b4950373a207472616e7366657220616d6f756e7420657863656564732062616044820152646c616e636560d81b60648201526084016105e5565b6001600160a01b03808516600090815260026020526040808220858503905591851681529081208054849290611d539084906128e4565b92505081905550826001600160a01b0316846001600160a01b03167fddf252ad1be2c89b69c2b068fc378daa952ba7f163c4a11628f55a4df523b3ef84604051611d9f91815260200190565b60405180910390a350505050565b6000807f00000000000000000000000000000000000000000000000000000000000000006001600160a01b031663017e7e586040518163ffffffff1660e01b8152600401602060405180830381865afa158015611e0e573d6000803e3d6000fd5b505050506040513d601f19601f82011682018060405250810190611e3291906128fc565b600a546001600160a01b038216158015945091925090611ee3578015611ede576000611e6d610eb66001600160701b038088169089166126a1565b90506000611e7a83611ef7565b905080821115611edb576000611e90828461268a565b600154611e9d91906126a1565b9050600082611ead8560056126a1565b611eb791906128e4565b90506000611ec582846127d3565b90508015611ed757611ed78782611f67565b5050505b50505b611eef565b8015611eef576000600a555b505092915050565b60006003821115611f585750806000611f116002836127d3565b611f1c9060016128e4565b90505b81811015611f5257905080600281611f3781866127d3565b611f4191906128e4565b611f4b91906127d3565b9050611f1f565b50919050565b8115611f62575060015b919050565b80600154611f7591906128e4565b6001556001600160a01b038216600090815260026020526040902054611f9c9082906128e4565b6001600160a01b0383166000818152600260205260408082209390935591519091907fddf252ad1be2c89b69c2b068fc378daa952ba7f163c4a11628f55a4df523b3ef90611fed9085815260200190565b60405180910390a35050565b6000818310612008578161200a565b825b9392505050565b6001600160a01b03821660009081526002602052604090205461203590829061268a565b6001600160a01b03831660009081526002602052604090205560015461205c90829061268a565b6001556040518181526000906001600160a01b038416907fddf252ad1be2c89b69c2b068fc378daa952ba7f163c4a11628f55a4df523b3ef90602001611fed565b60006001600160a01b0384163b6120b657506001612145565b604051634e8c461160e11b81526000906001600160a01b03861690639d188c22906120eb9033908a9089908990600401612919565b6020604051808303816000875af115801561210a573d6000803e3d6000fd5b505050506040513d601f19601f8201168201806040525081019061212e9190612956565b6001600160e01b031916634e8c461160e11b149150505b949350505050565b600061200a6001600160701b03831684612973565b82805461216e906126c0565b90600052602060002090601f01602090048101928261219057600085556121d6565b82601f106121a957805160ff19168380011785556121d6565b828001600101855582156121d6579182015b828111156121d65782518255916020019190600101906121bb565b506121e29291506121e6565b5090565b5b808211156121e257600081556001016121e7565b6001600160e01b03198116811461221157600080fd5b50565b60006020828403121561222657600080fd5b813561200a816121fb565b6001600160a01b038116811461221157600080fd5b60008060008060006080868803121561225e57600080fd5b8535945060208601359350604086013561227781612231565b9250606086013567ffffffffffffffff8082111561229457600080fd5b818801915088601f8301126122a857600080fd5b8135818111156122b757600080fd5b8960208285010111156122c957600080fd5b9699959850939650602001949392505050565b60005b838110156122f75781810151838201526020016122df565b83811115612306576000848401525b50505050565b600081518084526123248160208601602086016122dc565b601f01601f19169290920160200192915050565b60208152600061200a602083018461230c565b6000806040838503121561235e57600080fd5b823561236981612231565b946020939093013593505050565b60008060006060848603121561238c57600080fd5b833561239781612231565b925060208401356123a781612231565b929592945050506040919091013590565b600080604083850312156123cb57600080fd5b82356123d681612231565b915060208301356123e681612231565b809150509250929050565b60006020828403121561240357600080fd5b813561200a81612231565b634e487b7160e01b600052604160045260246000fd5b604051601f8201601f1916810167ffffffffffffffff8111828210171561244d5761244d61240e565b604052919050565b600067ffffffffffffffff82111561246f5761246f61240e565b50601f01601f191660200190565b600082601f83011261248e57600080fd5b81356124a161249c82612455565b612424565b8181528460208386010111156124b657600080fd5b816020850160208301376000918101602001919091529392505050565b600080600080608085870312156124e957600080fd5b84356124f481612231565b9350602085013561250481612231565b925060408501359150606085013567ffffffffffffffff81111561252757600080fd5b6125338782880161247d565b91505092959194509250565b600080600080600080600060e0888a03121561255a57600080fd5b873561256581612231565b9650602088013561257581612231565b95506040880135945060608801359350608088013560ff8116811461259957600080fd5b9699959850939692959460a0840135945060c09093013592915050565b6000806000606084860312156125cb57600080fd5b83356125d681612231565b925060208401359150604084013567ffffffffffffffff8111156125f957600080fd5b6126058682870161247d565b9150509250925092565b60018060a01b038616815284602082015283604082015260806060820152816080820152818360a0830137600081830160a090810191909152601f909201601f19160101949350505050565b60006020828403121561266d57600080fd5b5051919050565b634e487b7160e01b600052601160045260246000fd5b60008282101561269c5761269c612674565b500390565b60008160001904831182151516156126bb576126bb612674565b500290565b600181811c908216806126d457607f821691505b60208210811415611f5257634e487b7160e01b600052602260045260246000fd5b60006020828403121561270757600080fd5b815167ffffffffffffffff81111561271e57600080fd5b8201601f8101841361272f57600080fd5b805161273d61249c82612455565b81815285602083850101111561275257600080fd5b6127638260208301602086016122dc565b95945050505050565b6000835161277e8184602088016122dc565b602d60f81b908301908152835161279c8160018401602088016122dc565b6702059444558204c560c41b60019290910191820152600901949350505050565b634e487b7160e01b600052601260045260246000fd5b6000826127e2576127e26127bd565b500490565b60208082526022908201527f4b4950373a207472616e7366657220746f20746865207a65726f206164647265604082015261737360f01b606082015260800190565b6020808252602e908201527f4b4950373a207472616e7366657220746f206e6f6e204b49503752656365697660408201526d32b91034b6b83632b6b2b73a32b960911b606082015260800190565b600060001982141561288b5761288b612674565b5060010190565b600082516128a48184602087016122dc565b9190910192915050565b6000602082840312156128c057600080fd5b8151801515811461200a57600080fd5b6000826128df576128df6127bd565b500690565b600082198211156128f7576128f7612674565b500190565b60006020828403121561290e57600080fd5b815161200a81612231565b6001600160a01b038581168252841660208201526040810183905260806060820181905260009061294c9083018461230c565b9695505050505050565b60006020828403121561296857600080fd5b815161200a816121fb565b60006001600160e01b038381168061298d5761298d6127bd565b9216919091049291505056fea26469706673582212203bdebc6308451cf935f668dec77d242475bfe9be0277a665215bae17e3fc5b3c64736f6c634300080c0033",
  "linkReferences": {},
  "deployedLinkReferences": {}
}