{
  "_format": "hh-sol-artifact-1",
  "contractName": "YDEXNFT",
  "sourceName": "contracts/marketplace/YDEXNFT.sol",
  "abi": [
    {
      "inputs": [
        {
          "internalType": "address",
          "name": "_tokenAddress",
          "type": "address"
        }
      ],
      "stateMutability": "nonpayable",
      "type": "constructor"
    },
    {
      "anonymous": false,
      "inputs": [
        {
          "indexed": true,
          "internalType": "address",
          "name": "owner",
          "type": "address"
        },
        {
          "indexed": true,
          "internalType": "address",
          "name": "approved",
          "type": "address"
        },
        {
          "indexed": true,
          "internalType": "uint256",
          "name": "tokenId",
          "type": "uint256"
        }
      ],
      "name": "Approval",
      "type": "event"
    },
    {
      "anonymous": false,
      "inputs": [
        {
          "indexed": true,
          "internalType": "address",
          "name": "owner",
          "type": "address"
        },
        {
          "indexed": true,
          "internalType": "address",
          "name": "operator",
          "type": "address"
        },
        {
          "indexed": false,
          "internalType": "bool",
          "name": "approved",
          "type": "bool"
        }
      ],
      "name": "ApprovalForAll",
      "type": "event"
    },
    {
      "anonymous": false,
      "inputs": [
        {
          "indexed": true,
          "internalType": "address",
          "name": "previousOwner",
          "type": "address"
        },
        {
          "indexed": true,
          "internalType": "address",
          "name": "newOwner",
          "type": "address"
        }
      ],
      "name": "OwnershipTransferred",
      "type": "event"
    },
    {
      "anonymous": false,
      "inputs": [
        {
          "indexed": true,
          "internalType": "address",
          "name": "from",
          "type": "address"
        },
        {
          "indexed": true,
          "internalType": "address",
          "name": "to",
          "type": "address"
        },
        {
          "indexed": true,
          "internalType": "uint256",
          "name": "tokenId",
          "type": "uint256"
        }
      ],
      "name": "Transfer",
      "type": "event"
    },
    {
      "inputs": [
        {
          "internalType": "address",
          "name": "to",
          "type": "address"
        },
        {
          "internalType": "uint256",
          "name": "tokenId",
          "type": "uint256"
        }
      ],
      "name": "approve",
      "outputs": [],
      "stateMutability": "nonpayable",
      "type": "function"
    },
    {
      "inputs": [
        {
          "internalType": "address",
          "name": "owner",
          "type": "address"
        }
      ],
      "name": "balanceOf",
      "outputs": [
        {
          "internalType": "uint256",
          "name": "",
          "type": "uint256"
        }
      ],
      "stateMutability": "view",
      "type": "function"
    },
    {
      "inputs": [
        {
          "internalType": "uint256",
          "name": "tokenId",
          "type": "uint256"
        }
      ],
      "name": "getApproved",
      "outputs": [
        {
          "internalType": "address",
          "name": "",
          "type": "address"
        }
      ],
      "stateMutability": "view",
      "type": "function"
    },
    {
      "inputs": [
        {
          "internalType": "address",
          "name": "owner",
          "type": "address"
        },
        {
          "internalType": "address",
          "name": "operator",
          "type": "address"
        }
      ],
      "name": "isApprovedForAll",
      "outputs": [
        {
          "internalType": "bool",
          "name": "",
          "type": "bool"
        }
      ],
      "stateMutability": "view",
      "type": "function"
    },
    {
      "inputs": [],
      "name": "name",
      "outputs": [
        {
          "internalType": "string",
          "name": "",
          "type": "string"
        }
      ],
      "stateMutability": "view",
      "type": "function"
    },
    {
      "inputs": [],
      "name": "owner",
      "outputs": [
        {
          "internalType": "address",
          "name": "",
          "type": "address"
        }
      ],
      "stateMutability": "view",
      "type": "function"
    },
    {
      "inputs": [
        {
          "internalType": "uint256",
          "name": "tokenId",
          "type": "uint256"
        }
      ],
      "name": "ownerOf",
      "outputs": [
        {
          "internalType": "address",
          "name": "",
          "type": "address"
        }
      ],
      "stateMutability": "view",
      "type": "function"
    },
    {
      "inputs": [],
      "name": "rate",
      "outputs": [
        {
          "internalType": "uint256",
          "name": "",
          "type": "uint256"
        }
      ],
      "stateMutability": "view",
      "type": "function"
    },
    {
      "inputs": [],
      "name": "renounceOwnership",
      "outputs": [],
      "stateMutability": "nonpayable",
      "type": "function"
    },
    {
      "inputs": [
        {
          "internalType": "string",
          "name": "uri",
          "type": "string"
        }
      ],
      "name": "safeMint",
      "outputs": [],
      "stateMutability": "nonpayable",
      "type": "function"
    },
    {
      "inputs": [
        {
          "internalType": "address",
          "name": "from",
          "type": "address"
        },
        {
          "internalType": "address",
          "name": "to",
          "type": "address"
        },
        {
          "internalType": "uint256",
          "name": "tokenId",
          "type": "uint256"
        }
      ],
      "name": "safeTransferFrom",
      "outputs": [],
      "stateMutability": "nonpayable",
      "type": "function"
    },
    {
      "inputs": [
        {
          "internalType": "address",
          "name": "from",
          "type": "address"
        },
        {
          "internalType": "address",
          "name": "to",
          "type": "address"
        },
        {
          "internalType": "uint256",
          "name": "tokenId",
          "type": "uint256"
        },
        {
          "internalType": "bytes",
          "name": "_data",
          "type": "bytes"
        }
      ],
      "name": "safeTransferFrom",
      "outputs": [],
      "stateMutability": "nonpayable",
      "type": "function"
    },
    {
      "inputs": [
        {
          "internalType": "address",
          "name": "operator",
          "type": "address"
        },
        {
          "internalType": "bool",
          "name": "approved",
          "type": "bool"
        }
      ],
      "name": "setApprovalForAll",
      "outputs": [],
      "stateMutability": "nonpayable",
      "type": "function"
    },
    {
      "inputs": [
        {
          "internalType": "bytes4",
          "name": "interfaceId",
          "type": "bytes4"
        }
      ],
      "name": "supportsInterface",
      "outputs": [
        {
          "internalType": "bool",
          "name": "",
          "type": "bool"
        }
      ],
      "stateMutability": "view",
      "type": "function"
    },
    {
      "inputs": [],
      "name": "symbol",
      "outputs": [
        {
          "internalType": "string",
          "name": "",
          "type": "string"
        }
      ],
      "stateMutability": "view",
      "type": "function"
    },
    {
      "inputs": [],
      "name": "tokenAddress",
      "outputs": [
        {
          "internalType": "contract IKIP7",
          "name": "",
          "type": "address"
        }
      ],
      "stateMutability": "view",
      "type": "function"
    },
    {
      "inputs": [
        {
          "internalType": "uint256",
          "name": "tokenId",
          "type": "uint256"
        }
      ],
      "name": "tokenURI",
      "outputs": [
        {
          "internalType": "string",
          "name": "",
          "type": "string"
        }
      ],
      "stateMutability": "view",
      "type": "function"
    },
    {
      "inputs": [
        {
          "internalType": "address",
          "name": "from",
          "type": "address"
        },
        {
          "internalType": "address",
          "name": "to",
          "type": "address"
        },
        {
          "internalType": "uint256",
          "name": "tokenId",
          "type": "uint256"
        }
      ],
      "name": "transferFrom",
      "outputs": [],
      "stateMutability": "nonpayable",
      "type": "function"
    },
    {
      "inputs": [
        {
          "internalType": "address",
          "name": "newOwner",
          "type": "address"
        }
      ],
      "name": "transferOwnership",
      "outputs": [],
      "stateMutability": "nonpayable",
      "type": "function"
    },
    {
      "inputs": [],
      "name": "withdrawToken",
      "outputs": [],
      "stateMutability": "nonpayable",
      "type": "function"
    }
  ],
  "bytecode": "0x608060405268015af1d78b58c400006009553480156200001e57600080fd5b5060405162001e0c38038062001e0c8339810160408190526200004191620001e1565b60408051808201825260078152661651115613919560ca1b6020808301918252835180850190945260048452631653919560e21b9084015281519192916200008c916000916200013b565b508051620000a29060019060208401906200013b565b505050620000bf620000b9620000e560201b60201c565b620000e9565b600880546001600160a01b0319166001600160a01b039290921691909117905562000250565b3390565b600680546001600160a01b038381166001600160a01b0319831681179093556040519116919082907f8be0079c531659141344cd1fd0a4f28419497f9722a3daafe3b4186f6b6457e090600090a35050565b828054620001499062000213565b90600052602060002090601f0160209004810192826200016d5760008555620001b8565b82601f106200018857805160ff1916838001178555620001b8565b82800160010185558215620001b8579182015b82811115620001b85782518255916020019190600101906200019b565b50620001c6929150620001ca565b5090565b5b80821115620001c65760008155600101620001cb565b600060208284031215620001f457600080fd5b81516001600160a01b03811681146200020c57600080fd5b9392505050565b600181811c908216806200022857607f821691505b602082108114156200024a57634e487b7160e01b600052602260045260246000fd5b50919050565b611bac80620002606000396000f3fe608060405234801561001057600080fd5b506004361061012c5760003560e01c8063715018a6116100ad578063b88d4fde11610071578063b88d4fde1461026b578063c87b56dd1461027e578063ca628c7814610291578063e985e9c514610299578063f2fde38b146102d557600080fd5b8063715018a6146102245780638da5cb5b1461022c57806395d89b411461023d5780639d76ea5814610245578063a22cb4651461025857600080fd5b80632c4e722e116100f45780632c4e722e146101c157806342842e0e146101d85780636352211e146101eb578063695850fb146101fe57806370a082311461021157600080fd5b806301ffc9a71461013157806306fdde0314610159578063081812fc1461016e578063095ea7b31461019957806323b872dd146101ae575b600080fd5b61014461013f3660046115d5565b6102e8565b60405190151581526020015b60405180910390f35b61016161033a565b604051610150919061164a565b61018161017c36600461165d565b6103cc565b6040516001600160a01b039091168152602001610150565b6101ac6101a7366004611692565b610458565b005b6101ac6101bc3660046116bc565b610564565b6101ca60095481565b604051908152602001610150565b6101ac6101e63660046116bc565b610595565b6101816101f936600461165d565b6105b0565b6101ac61020c366004611784565b610626565b6101ca61021f3660046117cd565b6106d9565b6101ac61075e565b6006546001600160a01b0316610181565b610161610794565b600854610181906001600160a01b031681565b6101ac6102663660046117f6565b6107a3565b6101ac61027936600461182d565b6107ae565b61016161028c36600461165d565b6107e6565b6101ac6107f1565b6101446102a73660046118a9565b6001600160a01b03918216600090815260056020908152604080832093909416825291909152205460ff1690565b6101ac6102e33660046117cd565b610903565b60006001600160e01b031982166380ac58cd60e01b148061031957506001600160e01b03198216635b5e139f60e01b145b8061033457506301ffc9a760e01b6001600160e01b03198316145b92915050565b606060008054610349906118dc565b80601f0160208091040260200160405190810160405280929190818152602001828054610375906118dc565b80156103c25780601f10610397576101008083540402835291602001916103c2565b820191906000526020600020905b8154815290600101906020018083116103a557829003601f168201915b5050505050905090565b60006103d78261099b565b61043c5760405162461bcd60e51b815260206004820152602b60248201527f4b495031373a20617070726f76656420717565727920666f72206e6f6e65786960448201526a39ba32b73a103a37b5b2b760a91b60648201526084015b60405180910390fd5b506000908152600460205260409020546001600160a01b031690565b6000610463826105b0565b9050806001600160a01b0316836001600160a01b031614156104c75760405162461bcd60e51b815260206004820181905260248201527f4b495031373a20617070726f76616c20746f2063757272656e74206f776e65726044820152606401610433565b336001600160a01b03821614806104e357506104e381336102a7565b6105555760405162461bcd60e51b815260206004820152603760248201527f4b495031373a20617070726f76652063616c6c6572206973206e6f74206f776e60448201527f6572206e6f7220617070726f76656420666f7220616c6c0000000000000000006064820152608401610433565b61055f83836109b8565b505050565b61056e3382610a26565b61058a5760405162461bcd60e51b815260040161043390611917565b61055f838383610b0f565b61055f838383604051806020016040528060008152506107ae565b6000818152600260205260408120546001600160a01b0316806103345760405162461bcd60e51b815260206004820152602860248201527f4b495031373a206f776e657220717565727920666f72206e6f6e657869737465604482015267373a103a37b5b2b760c11b6064820152608401610433565b6008546009546040516323b872dd60e01b815233600482015230602482015260448101919091526001600160a01b03909116906323b872dd906064016020604051808303816000875af1158015610681573d6000803e3d6000fd5b505050506040513d601f19601f820116820180604052508101906106a59190611967565b5060006106b1600a5490565b90506106c1600a80546001019055565b6106cb3382610ca9565b6106d58183610cc3565b5050565b60006001600160a01b0382166107425760405162461bcd60e51b815260206004820152602860248201527f4b495031373a2061646472657373207a65726f206973206e6f7420612076616c60448201526734b21037bbb732b960c11b6064820152608401610433565b506001600160a01b031660009081526003602052604090205490565b6006546001600160a01b031633146107885760405162461bcd60e51b815260040161043390611984565b6107926000610d4d565b565b606060018054610349906118dc565b6106d5338383610d9f565b6107b83383610a26565b6107d45760405162461bcd60e51b815260040161043390611917565b6107e084848484610e6e565b50505050565b606061033482610eb3565b6006546001600160a01b0316331461081b5760405162461bcd60e51b815260040161043390611984565b6008546040516370a0823160e01b81523060048201526001600160a01b039091169063a9059cbb90339083906370a0823190602401602060405180830381865afa15801561086d573d6000803e3d6000fd5b505050506040513d601f19601f8201168201806040525081019061089191906119b9565b6040516001600160e01b031960e085901b1681526001600160a01b03909216600483015260248201526044016020604051808303816000875af11580156108dc573d6000803e3d6000fd5b505050506040513d601f19601f820116820180604052508101906109009190611967565b50565b6006546001600160a01b0316331461092d5760405162461bcd60e51b815260040161043390611984565b6001600160a01b0381166109925760405162461bcd60e51b815260206004820152602660248201527f4f776e61626c653a206e6577206f776e657220697320746865207a65726f206160448201526564647265737360d01b6064820152608401610433565b61090081610d4d565b6000908152600260205260409020546001600160a01b0316151590565b600081815260046020526040902080546001600160a01b0319166001600160a01b03841690811790915581906109ed826105b0565b6001600160a01b03167f8c5be1e5ebec7d5bd14f71427d1e84f3dd0314c0f7b2291e5b200ac8c7c3b92560405160405180910390a45050565b6000610a318261099b565b610a915760405162461bcd60e51b815260206004820152602b60248201527f4b495031373a206f70657261746f7220717565727920666f72206e6f6e65786960448201526a39ba32b73a103a37b5b2b760a91b6064820152608401610433565b6000610a9c836105b0565b9050806001600160a01b0316846001600160a01b03161480610ae357506001600160a01b0380821660009081526005602090815260408083209388168352929052205460ff165b80610b075750836001600160a01b0316610afc846103cc565b6001600160a01b0316145b949350505050565b826001600160a01b0316610b22826105b0565b6001600160a01b031614610b845760405162461bcd60e51b8152602060048201526024808201527f4b495031373a207472616e736665722066726f6d20696e636f7272656374206f6044820152633bb732b960e11b6064820152608401610433565b6001600160a01b038216610be65760405162461bcd60e51b815260206004820152602360248201527f4b495031373a207472616e7366657220746f20746865207a65726f206164647260448201526265737360e81b6064820152608401610433565b610bf16000826109b8565b6001600160a01b0383166000908152600360205260408120805460019290610c1a9084906119e8565b90915550506001600160a01b0382166000908152600360205260408120805460019290610c489084906119ff565b909155505060008181526002602052604080822080546001600160a01b0319166001600160a01b0386811691821790925591518493918716917fddf252ad1be2c89b69c2b068fc378daa952ba7f163c4a11628f55a4df523b3ef91a4505050565b6106d5828260405180602001604052806000815250611021565b610ccc8261099b565b610d2e5760405162461bcd60e51b815260206004820152602d60248201527f4b4950313755524953746f726167653a2055524920736574206f66206e6f6e6560448201526c3c34b9ba32b73a103a37b5b2b760991b6064820152608401610433565b6000828152600760209081526040909120825161055f92840190611526565b600680546001600160a01b038381166001600160a01b0319831681179093556040519116919082907f8be0079c531659141344cd1fd0a4f28419497f9722a3daafe3b4186f6b6457e090600090a35050565b816001600160a01b0316836001600160a01b03161415610e015760405162461bcd60e51b815260206004820152601860248201527f4b495031373a20617070726f766520746f2063616c6c657200000000000000006044820152606401610433565b6001600160a01b03838116600081815260056020908152604080832094871680845294825291829020805460ff191686151590811790915591519182527f17307eab39ab6107e8899845ad3d59bd9653f200f220920489ca2b5937696c31910160405180910390a3505050565b610e79848484610b0f565b610e8584848484611067565b80610e975750610e9784848484611157565b6107e05760405162461bcd60e51b815260040161043390611a17565b6060610ebe8261099b565b610f235760405162461bcd60e51b815260206004820152603060248201527f4b4950313755524953746f726167653a2055524920717565727920666f72206e60448201526f37b732bc34b9ba32b73a103a37b5b2b760811b6064820152608401610433565b60008281526007602052604081208054610f3c906118dc565b80601f0160208091040260200160405190810160405280929190818152602001828054610f68906118dc565b8015610fb55780601f10610f8a57610100808354040283529160200191610fb5565b820191906000526020600020905b815481529060010190602001808311610f9857829003601f168201915b505050505090506000610fd360408051602081019091526000815290565b9050805160001415610fe6575092915050565b815115611018578082604051602001611000929190611a7e565b60405160208183030381529060405292505050919050565b610b078461121e565b61102b83836112f5565b6110386000848484611067565b8061104b575061104b6000848484611157565b61055f5760405162461bcd60e51b815260040161043390611a17565b60006001600160a01b0384163b1561114c57604051636745782b60e01b81526001600160a01b03851690636745782b906110ab903390899088908890600401611aad565b6020604051808303816000875af19250505080156110e6575060408051601f3d908101601f191682019092526110e391810190611aea565b60015b611132573d808015611114576040519150601f19603f3d011682016040523d82523d6000602084013e611119565b606091505b50805161112a576000915050610b07565b805181602001fd5b6001600160e01b031916636745782b60e01b149050610b07565b506001949350505050565b60006001600160a01b0384163b1561114c57604051630a85bd0160e11b81526001600160a01b0385169063150b7a029061119b903390899088908890600401611aad565b6020604051808303816000875af19250505080156111d6575060408051601f3d908101601f191682019092526111d391810190611aea565b60015b611204573d808015611114576040519150601f19603f3d011682016040523d82523d6000602084013e611119565b6001600160e01b031916630a85bd0160e11b149050610b07565b60606112298261099b565b61128c5760405162461bcd60e51b815260206004820152602e60248201527f4b495031374d657461646174613a2055524920717565727920666f72206e6f6e60448201526d32bc34b9ba32b73a103a37b5b2b760911b6064820152608401610433565b60006112a360408051602081019091526000815290565b905060008151116112c357604051806020016040528060008152506112ee565b806112cd84611428565b6040516020016112de929190611a7e565b6040516020818303038152906040525b9392505050565b6001600160a01b03821661134b5760405162461bcd60e51b815260206004820152601f60248201527f4b495031373a206d696e7420746f20746865207a65726f2061646472657373006044820152606401610433565b6113548161099b565b156113a15760405162461bcd60e51b815260206004820152601b60248201527f4b495031373a20746f6b656e20616c7265616479206d696e74656400000000006044820152606401610433565b6001600160a01b03821660009081526003602052604081208054600192906113ca9084906119ff565b909155505060008181526002602052604080822080546001600160a01b0319166001600160a01b03861690811790915590518392907fddf252ad1be2c89b69c2b068fc378daa952ba7f163c4a11628f55a4df523b3ef908290a45050565b60608161144c5750506040805180820190915260018152600360fc1b602082015290565b8160005b8115611476578061146081611b07565b915061146f9050600a83611b38565b9150611450565b60008167ffffffffffffffff811115611491576114916116f8565b6040519080825280601f01601f1916602001820160405280156114bb576020820181803683370190505b5090505b8415610b07576114d06001836119e8565b91506114dd600a86611b4c565b6114e89060306119ff565b60f81b8183815181106114fd576114fd611b60565b60200101906001600160f81b031916908160001a90535061151f600a86611b38565b94506114bf565b828054611532906118dc565b90600052602060002090601f016020900481019282611554576000855561159a565b82601f1061156d57805160ff191683800117855561159a565b8280016001018555821561159a579182015b8281111561159a57825182559160200191906001019061157f565b506115a69291506115aa565b5090565b5b808211156115a657600081556001016115ab565b6001600160e01b03198116811461090057600080fd5b6000602082840312156115e757600080fd5b81356112ee816115bf565b60005b8381101561160d5781810151838201526020016115f5565b838111156107e05750506000910152565b600081518084526116368160208601602086016115f2565b601f01601f19169290920160200192915050565b6020815260006112ee602083018461161e565b60006020828403121561166f57600080fd5b5035919050565b80356001600160a01b038116811461168d57600080fd5b919050565b600080604083850312156116a557600080fd5b6116ae83611676565b946020939093013593505050565b6000806000606084860312156116d157600080fd5b6116da84611676565b92506116e860208501611676565b9150604084013590509250925092565b634e487b7160e01b600052604160045260246000fd5b600067ffffffffffffffff80841115611729576117296116f8565b604051601f8501601f19908116603f01168101908282118183101715611751576117516116f8565b8160405280935085815286868601111561176a57600080fd5b858560208301376000602087830101525050509392505050565b60006020828403121561179657600080fd5b813567ffffffffffffffff8111156117ad57600080fd5b8201601f810184136117be57600080fd5b610b078482356020840161170e565b6000602082840312156117df57600080fd5b6112ee82611676565b801515811461090057600080fd5b6000806040838503121561180957600080fd5b61181283611676565b91506020830135611822816117e8565b809150509250929050565b6000806000806080858703121561184357600080fd5b61184c85611676565b935061185a60208601611676565b925060408501359150606085013567ffffffffffffffff81111561187d57600080fd5b8501601f8101871361188e57600080fd5b61189d8782356020840161170e565b91505092959194509250565b600080604083850312156118bc57600080fd5b6118c583611676565b91506118d360208401611676565b90509250929050565b600181811c908216806118f057607f821691505b6020821081141561191157634e487b7160e01b600052602260045260246000fd5b50919050565b60208082526030908201527f4b495031373a207472616e736665722063616c6c6572206973206e6f74206f7760408201526f1b995c881b9bdc88185c1c1c9bdd995960821b606082015260800190565b60006020828403121561197957600080fd5b81516112ee816117e8565b6020808252818101527f4f776e61626c653a2063616c6c6572206973206e6f7420746865206f776e6572604082015260600190565b6000602082840312156119cb57600080fd5b5051919050565b634e487b7160e01b600052601160045260246000fd5b6000828210156119fa576119fa6119d2565b500390565b60008219821115611a1257611a126119d2565b500190565b60208082526041908201527f4b495031373a207472616e7366657220746f206e6f6e20494b4950313752656360408201527f65697665722f49455243373231526563656976657220696d706c656d656e74656060820152603960f91b608082015260a00190565b60008351611a908184602088016115f2565b835190830190611aa48183602088016115f2565b01949350505050565b6001600160a01b0385811682528416602082015260408101839052608060608201819052600090611ae09083018461161e565b9695505050505050565b600060208284031215611afc57600080fd5b81516112ee816115bf565b6000600019821415611b1b57611b1b6119d2565b5060010190565b634e487b7160e01b600052601260045260246000fd5b600082611b4757611b47611b22565b500490565b600082611b5b57611b5b611b22565b500690565b634e487b7160e01b600052603260045260246000fdfea2646970667358221220301aa22ac2e4d1617f00509882851f371636bc3e0149e72f7289c1a69895a13164736f6c634300080c0033",
  "linkReferences": {},
  "deployedLinkReferences": {}
}