{
  "_format": "hh-sol-artifact-1",
  "contractName": "DexRouter",
  "sourceName": "contracts/swap/DexRouter.sol",
  "abi": [
    {
      "inputs": [
        {
          "internalType": "address",
          "name": "_factory",
          "type": "address"
        },
        {
          "internalType": "address",
          "name": "_WKLAY",
          "type": "address"
        }
      ],
      "stateMutability": "nonpayable",
      "type": "constructor"
    },
    {
      "inputs": [],
      "name": "ExcessiveInputAmount",
      "type": "error"
    },
    {
      "inputs": [],
      "name": "Expired",
      "type": "error"
    },
    {
      "inputs": [
        {
          "internalType": "string",
          "name": "",
          "type": "string"
        }
      ],
      "name": "InsufficientAmount",
      "type": "error"
    },
    {
      "inputs": [],
      "name": "InvalidPath",
      "type": "error"
    },
    {
      "inputs": [],
      "name": "WKLAY",
      "outputs": [
        {
          "internalType": "address",
          "name": "",
          "type": "address"
        }
      ],
      "stateMutability": "view",
      "type": "function"
    },
    {
      "inputs": [
        {
          "internalType": "address",
          "name": "tokenA",
          "type": "address"
        },
        {
          "internalType": "address",
          "name": "tokenB",
          "type": "address"
        },
        {
          "internalType": "uint256",
          "name": "amountADesired",
          "type": "uint256"
        },
        {
          "internalType": "uint256",
          "name": "amountBDesired",
          "type": "uint256"
        },
        {
          "internalType": "uint256",
          "name": "amountAMin",
          "type": "uint256"
        },
        {
          "internalType": "uint256",
          "name": "amountBMin",
          "type": "uint256"
        },
        {
          "internalType": "address",
          "name": "to",
          "type": "address"
        },
        {
          "internalType": "uint256",
          "name": "deadline",
          "type": "uint256"
        }
      ],
      "name": "addLiquidity",
      "outputs": [
        {
          "internalType": "uint256",
          "name": "amountA",
          "type": "uint256"
        },
        {
          "internalType": "uint256",
          "name": "amountB",
          "type": "uint256"
        },
        {
          "internalType": "uint256",
          "name": "liquidity",
          "type": "uint256"
        }
      ],
      "stateMutability": "nonpayable",
      "type": "function"
    },
    {
      "inputs": [
        {
          "internalType": "address",
          "name": "token",
          "type": "address"
        },
        {
          "internalType": "uint256",
          "name": "amountTokenDesired",
          "type": "uint256"
        },
        {
          "internalType": "uint256",
          "name": "amountTokenMin",
          "type": "uint256"
        },
        {
          "internalType": "uint256",
          "name": "amountKLAYMin",
          "type": "uint256"
        },
        {
          "internalType": "address",
          "name": "to",
          "type": "address"
        },
        {
          "internalType": "uint256",
          "name": "deadline",
          "type": "uint256"
        }
      ],
      "name": "addLiquidityKLAY",
      "outputs": [
        {
          "internalType": "uint256",
          "name": "amountToken",
          "type": "uint256"
        },
        {
          "internalType": "uint256",
          "name": "amountKLAY",
          "type": "uint256"
        },
        {
          "internalType": "uint256",
          "name": "liquidity",
          "type": "uint256"
        }
      ],
      "stateMutability": "payable",
      "type": "function"
    },
    {
      "inputs": [],
      "name": "factory",
      "outputs": [
        {
          "internalType": "address",
          "name": "",
          "type": "address"
        }
      ],
      "stateMutability": "view",
      "type": "function"
    },
    {
      "inputs": [
        {
          "internalType": "uint256",
          "name": "amountOut",
          "type": "uint256"
        },
        {
          "internalType": "uint256",
          "name": "reserveIn",
          "type": "uint256"
        },
        {
          "internalType": "uint256",
          "name": "reserveOut",
          "type": "uint256"
        }
      ],
      "name": "getAmountIn",
      "outputs": [
        {
          "internalType": "uint256",
          "name": "amountIn",
          "type": "uint256"
        }
      ],
      "stateMutability": "pure",
      "type": "function"
    },
    {
      "inputs": [
        {
          "internalType": "uint256",
          "name": "amountIn",
          "type": "uint256"
        },
        {
          "internalType": "uint256",
          "name": "reserveIn",
          "type": "uint256"
        },
        {
          "internalType": "uint256",
          "name": "reserveOut",
          "type": "uint256"
        }
      ],
      "name": "getAmountOut",
      "outputs": [
        {
          "internalType": "uint256",
          "name": "amountOut",
          "type": "uint256"
        }
      ],
      "stateMutability": "pure",
      "type": "function"
    },
    {
      "inputs": [
        {
          "internalType": "uint256",
          "name": "amountOut",
          "type": "uint256"
        },
        {
          "internalType": "address[]",
          "name": "path",
          "type": "address[]"
        }
      ],
      "name": "getAmountsIn",
      "outputs": [
        {
          "internalType": "uint256[]",
          "name": "amounts",
          "type": "uint256[]"
        }
      ],
      "stateMutability": "view",
      "type": "function"
    },
    {
      "inputs": [
        {
          "internalType": "uint256",
          "name": "amountIn",
          "type": "uint256"
        },
        {
          "internalType": "address[]",
          "name": "path",
          "type": "address[]"
        }
      ],
      "name": "getAmountsOut",
      "outputs": [
        {
          "internalType": "uint256[]",
          "name": "amounts",
          "type": "uint256[]"
        }
      ],
      "stateMutability": "view",
      "type": "function"
    },
    {
      "inputs": [
        {
          "internalType": "uint256",
          "name": "amountA",
          "type": "uint256"
        },
        {
          "internalType": "uint256",
          "name": "reserveA",
          "type": "uint256"
        },
        {
          "internalType": "uint256",
          "name": "reserveB",
          "type": "uint256"
        }
      ],
      "name": "quote",
      "outputs": [
        {
          "internalType": "uint256",
          "name": "amountB",
          "type": "uint256"
        }
      ],
      "stateMutability": "pure",
      "type": "function"
    },
    {
      "inputs": [
        {
          "internalType": "address",
          "name": "tokenA",
          "type": "address"
        },
        {
          "internalType": "address",
          "name": "tokenB",
          "type": "address"
        },
        {
          "internalType": "uint256",
          "name": "liquidity",
          "type": "uint256"
        },
        {
          "internalType": "uint256",
          "name": "amountAMin",
          "type": "uint256"
        },
        {
          "internalType": "uint256",
          "name": "amountBMin",
          "type": "uint256"
        },
        {
          "internalType": "address",
          "name": "to",
          "type": "address"
        },
        {
          "internalType": "uint256",
          "name": "deadline",
          "type": "uint256"
        }
      ],
      "name": "removeLiquidity",
      "outputs": [
        {
          "internalType": "uint256",
          "name": "amountA",
          "type": "uint256"
        },
        {
          "internalType": "uint256",
          "name": "amountB",
          "type": "uint256"
        }
      ],
      "stateMutability": "nonpayable",
      "type": "function"
    },
    {
      "inputs": [
        {
          "internalType": "address",
          "name": "token",
          "type": "address"
        },
        {
          "internalType": "uint256",
          "name": "liquidity",
          "type": "uint256"
        },
        {
          "internalType": "uint256",
          "name": "amountTokenMin",
          "type": "uint256"
        },
        {
          "internalType": "uint256",
          "name": "amountKLAYMin",
          "type": "uint256"
        },
        {
          "internalType": "address",
          "name": "to",
          "type": "address"
        },
        {
          "internalType": "uint256",
          "name": "deadline",
          "type": "uint256"
        }
      ],
      "name": "removeLiquidityKLAY",
      "outputs": [
        {
          "internalType": "uint256",
          "name": "amountToken",
          "type": "uint256"
        },
        {
          "internalType": "uint256",
          "name": "amountKLAY",
          "type": "uint256"
        }
      ],
      "stateMutability": "nonpayable",
      "type": "function"
    },
    {
      "inputs": [
        {
          "internalType": "address",
          "name": "token",
          "type": "address"
        },
        {
          "internalType": "uint256",
          "name": "liquidity",
          "type": "uint256"
        },
        {
          "internalType": "uint256",
          "name": "amountTokenMin",
          "type": "uint256"
        },
        {
          "internalType": "uint256",
          "name": "amountKLAYMin",
          "type": "uint256"
        },
        {
          "internalType": "address",
          "name": "to",
          "type": "address"
        },
        {
          "internalType": "uint256",
          "name": "deadline",
          "type": "uint256"
        }
      ],
      "name": "removeLiquidityKLAYSupportingFeeOnTransferTokens",
      "outputs": [
        {
          "internalType": "uint256",
          "name": "amountKLAY",
          "type": "uint256"
        }
      ],
      "stateMutability": "nonpayable",
      "type": "function"
    },
    {
      "inputs": [
        {
          "internalType": "address",
          "name": "token",
          "type": "address"
        },
        {
          "internalType": "uint256",
          "name": "liquidity",
          "type": "uint256"
        },
        {
          "internalType": "uint256",
          "name": "amountTokenMin",
          "type": "uint256"
        },
        {
          "internalType": "uint256",
          "name": "amountKLAYMin",
          "type": "uint256"
        },
        {
          "internalType": "address",
          "name": "to",
          "type": "address"
        },
        {
          "internalType": "uint256",
          "name": "deadline",
          "type": "uint256"
        },
        {
          "internalType": "bool",
          "name": "approveMax",
          "type": "bool"
        },
        {
          "internalType": "uint8",
          "name": "v",
          "type": "uint8"
        },
        {
          "internalType": "bytes32",
          "name": "r",
          "type": "bytes32"
        },
        {
          "internalType": "bytes32",
          "name": "s",
          "type": "bytes32"
        }
      ],
      "name": "removeLiquidityKLAYWithPermit",
      "outputs": [
        {
          "internalType": "uint256",
          "name": "amountToken",
          "type": "uint256"
        },
        {
          "internalType": "uint256",
          "name": "amountKLAY",
          "type": "uint256"
        }
      ],
      "stateMutability": "nonpayable",
      "type": "function"
    },
    {
      "inputs": [
        {
          "internalType": "address",
          "name": "token",
          "type": "address"
        },
        {
          "internalType": "uint256",
          "name": "liquidity",
          "type": "uint256"
        },
        {
          "internalType": "uint256",
          "name": "amountTokenMin",
          "type": "uint256"
        },
        {
          "internalType": "uint256",
          "name": "amountKLAYMin",
          "type": "uint256"
        },
        {
          "internalType": "address",
          "name": "to",
          "type": "address"
        },
        {
          "internalType": "uint256",
          "name": "deadline",
          "type": "uint256"
        },
        {
          "internalType": "bool",
          "name": "approveMax",
          "type": "bool"
        },
        {
          "internalType": "uint8",
          "name": "v",
          "type": "uint8"
        },
        {
          "internalType": "bytes32",
          "name": "r",
          "type": "bytes32"
        },
        {
          "internalType": "bytes32",
          "name": "s",
          "type": "bytes32"
        }
      ],
      "name": "removeLiquidityKLAYWithPermitSupportingFeeOnTransferTokens",
      "outputs": [
        {
          "internalType": "uint256",
          "name": "amountKLAY",
          "type": "uint256"
        }
      ],
      "stateMutability": "nonpayable",
      "type": "function"
    },
    {
      "inputs": [
        {
          "internalType": "address",
          "name": "tokenA",
          "type": "address"
        },
        {
          "internalType": "address",
          "name": "tokenB",
          "type": "address"
        },
        {
          "internalType": "uint256",
          "name": "liquidity",
          "type": "uint256"
        },
        {
          "internalType": "uint256",
          "name": "amountAMin",
          "type": "uint256"
        },
        {
          "internalType": "uint256",
          "name": "amountBMin",
          "type": "uint256"
        },
        {
          "internalType": "address",
          "name": "to",
          "type": "address"
        },
        {
          "internalType": "uint256",
          "name": "deadline",
          "type": "uint256"
        },
        {
          "internalType": "bool",
          "name": "approveMax",
          "type": "bool"
        },
        {
          "internalType": "uint8",
          "name": "v",
          "type": "uint8"
        },
        {
          "internalType": "bytes32",
          "name": "r",
          "type": "bytes32"
        },
        {
          "internalType": "bytes32",
          "name": "s",
          "type": "bytes32"
        }
      ],
      "name": "removeLiquidityWithPermit",
      "outputs": [
        {
          "internalType": "uint256",
          "name": "amountA",
          "type": "uint256"
        },
        {
          "internalType": "uint256",
          "name": "amountB",
          "type": "uint256"
        }
      ],
      "stateMutability": "nonpayable",
      "type": "function"
    },
    {
      "inputs": [
        {
          "internalType": "uint256",
          "name": "amountOutMin",
          "type": "uint256"
        },
        {
          "internalType": "address[]",
          "name": "path",
          "type": "address[]"
        },
        {
          "internalType": "address",
          "name": "to",
          "type": "address"
        },
        {
          "internalType": "uint256",
          "name": "deadline",
          "type": "uint256"
        }
      ],
      "name": "swapExactKLAYForTokens",
      "outputs": [
        {
          "internalType": "uint256[]",
          "name": "amounts",
          "type": "uint256[]"
        }
      ],
      "stateMutability": "payable",
      "type": "function"
    },
    {
      "inputs": [
        {
          "internalType": "uint256",
          "name": "amountOutMin",
          "type": "uint256"
        },
        {
          "internalType": "address[]",
          "name": "path",
          "type": "address[]"
        },
        {
          "internalType": "address",
          "name": "to",
          "type": "address"
        },
        {
          "internalType": "uint256",
          "name": "deadline",
          "type": "uint256"
        }
      ],
      "name": "swapExactKLAYForTokensSupportingFeeOnTransferTokens",
      "outputs": [],
      "stateMutability": "payable",
      "type": "function"
    },
    {
      "inputs": [
        {
          "internalType": "uint256",
          "name": "amountIn",
          "type": "uint256"
        },
        {
          "internalType": "uint256",
          "name": "amountOutMin",
          "type": "uint256"
        },
        {
          "internalType": "address[]",
          "name": "path",
          "type": "address[]"
        },
        {
          "internalType": "address",
          "name": "to",
          "type": "address"
        },
        {
          "internalType": "uint256",
          "name": "deadline",
          "type": "uint256"
        }
      ],
      "name": "swapExactTokensForKLAY",
      "outputs": [
        {
          "internalType": "uint256[]",
          "name": "amounts",
          "type": "uint256[]"
        }
      ],
      "stateMutability": "nonpayable",
      "type": "function"
    },
    {
      "inputs": [
        {
          "internalType": "uint256",
          "name": "amountIn",
          "type": "uint256"
        },
        {
          "internalType": "uint256",
          "name": "amountOutMin",
          "type": "uint256"
        },
        {
          "internalType": "address[]",
          "name": "path",
          "type": "address[]"
        },
        {
          "internalType": "address",
          "name": "to",
          "type": "address"
        },
        {
          "internalType": "uint256",
          "name": "deadline",
          "type": "uint256"
        }
      ],
      "name": "swapExactTokensForKLAYSupportingFeeOnTransferTokens",
      "outputs": [],
      "stateMutability": "nonpayable",
      "type": "function"
    },
    {
      "inputs": [
        {
          "internalType": "uint256",
          "name": "amountIn",
          "type": "uint256"
        },
        {
          "internalType": "uint256",
          "name": "amountOutMin",
          "type": "uint256"
        },
        {
          "internalType": "address[]",
          "name": "path",
          "type": "address[]"
        },
        {
          "internalType": "address",
          "name": "to",
          "type": "address"
        },
        {
          "internalType": "uint256",
          "name": "deadline",
          "type": "uint256"
        }
      ],
      "name": "swapExactTokensForTokens",
      "outputs": [
        {
          "internalType": "uint256[]",
          "name": "amounts",
          "type": "uint256[]"
        }
      ],
      "stateMutability": "nonpayable",
      "type": "function"
    },
    {
      "inputs": [
        {
          "internalType": "uint256",
          "name": "amountIn",
          "type": "uint256"
        },
        {
          "internalType": "uint256",
          "name": "amountOutMin",
          "type": "uint256"
        },
        {
          "internalType": "address[]",
          "name": "path",
          "type": "address[]"
        },
        {
          "internalType": "address",
          "name": "to",
          "type": "address"
        },
        {
          "internalType": "uint256",
          "name": "deadline",
          "type": "uint256"
        }
      ],
      "name": "swapExactTokensForTokensSupportingFeeOnTransferTokens",
      "outputs": [],
      "stateMutability": "nonpayable",
      "type": "function"
    },
    {
      "inputs": [
        {
          "internalType": "uint256",
          "name": "amountOut",
          "type": "uint256"
        },
        {
          "internalType": "address[]",
          "name": "path",
          "type": "address[]"
        },
        {
          "internalType": "address",
          "name": "to",
          "type": "address"
        },
        {
          "internalType": "uint256",
          "name": "deadline",
          "type": "uint256"
        }
      ],
      "name": "swapKLAYForExactTokens",
      "outputs": [
        {
          "internalType": "uint256[]",
          "name": "amounts",
          "type": "uint256[]"
        }
      ],
      "stateMutability": "payable",
      "type": "function"
    },
    {
      "inputs": [
        {
          "internalType": "uint256",
          "name": "amountOut",
          "type": "uint256"
        },
        {
          "internalType": "uint256",
          "name": "amountInMax",
          "type": "uint256"
        },
        {
          "internalType": "address[]",
          "name": "path",
          "type": "address[]"
        },
        {
          "internalType": "address",
          "name": "to",
          "type": "address"
        },
        {
          "internalType": "uint256",
          "name": "deadline",
          "type": "uint256"
        }
      ],
      "name": "swapTokensForExactKLAY",
      "outputs": [
        {
          "internalType": "uint256[]",
          "name": "amounts",
          "type": "uint256[]"
        }
      ],
      "stateMutability": "nonpayable",
      "type": "function"
    },
    {
      "inputs": [
        {
          "internalType": "uint256",
          "name": "amountOut",
          "type": "uint256"
        },
        {
          "internalType": "uint256",
          "name": "amountInMax",
          "type": "uint256"
        },
        {
          "internalType": "address[]",
          "name": "path",
          "type": "address[]"
        },
        {
          "internalType": "address",
          "name": "to",
          "type": "address"
        },
        {
          "internalType": "uint256",
          "name": "deadline",
          "type": "uint256"
        }
      ],
      "name": "swapTokensForExactTokens",
      "outputs": [
        {
          "internalType": "uint256[]",
          "name": "amounts",
          "type": "uint256[]"
        }
      ],
      "stateMutability": "nonpayable",
      "type": "function"
    },
    {
      "stateMutability": "payable",
      "type": "receive"
    }
  ],
  "bytecode": "0x60c06040523480156200001157600080fd5b50604051620041e0380380620041e0833981016040819052620000349162000069565b6001600160a01b039182166080521660a052620000a1565b80516001600160a01b03811681146200006457600080fd5b919050565b600080604083850312156200007d57600080fd5b62000088836200004c565b915062000098602084016200004c565b90509250929050565b60805160a051613fad620002336000396000818161015f0152818161025a0152818161051b0152818161072a01528181610853015281816108e101528181610c5601528181610ca501528181610d4b01528181610e8201528181610f2e015281816111b40152818161132a015281816114f001528181611604015281816116920152818161184f0152818161199c015281816119f201528181611a2601528181611abb01528181611bee01528181611c6c01528181611ce0015281816122840152818161233c01526123d401526000818161044d015281816104f9015281816105fe01528181610635015281816107a60152818161091301528181610a9401528181610b6701528181610df401528181611231015281816114340152818161156c015281816116c4015281816118cc015281816119d001528181611d1201528181611f2f015281816121350152818161219c015281816123b201528181612a2d01528181612a7d01528181612eda01528181613083015281816132de0152818161338101526133f80152613fad6000f3fe60806040526004361061014f5760003560e01c80638803dbee116100b6578063baa2abde1161006f578063baa2abde1461041b578063c45a01551461043b578063d06ca61f1461046f578063e8e337001461048f578063ec432014146104af578063eca935e5146104cf57600080fd5b80638803dbee14610367578063901336051461038757806398de2cd21461039a578063ad615dec146103ba578063b216fe9b146103da578063b46fec5b1461040857600080fd5b806338ed17391161010857806338ed1739146102a75780633c187a6b146102c75780635bff1aa8146102e75780635c11d795146103075780636fe5f23f1461032757806385f8c2591461034757600080fd5b80630158a31314610193578063054d50d4146101cd5780631f00ca74146101fb5780632195995c14610228578063249502d7146102485780633022d3a81461029457600080fd5b3661018e57336001600160a01b037f0000000000000000000000000000000000000000000000000000000000000000161461018c5761018c6136eb565b005b600080fd5b34801561019f57600080fd5b506101b36101ae366004613748565b6104ef565b604080519283526020830191909152015b60405180910390f35b3480156101d957600080fd5b506101ed6101e83660046137de565b6105e2565b6040519081526020016101c4565b34801561020757600080fd5b5061021b610216366004613820565b6105f7565b6040516101c491906138f1565b34801561023457600080fd5b506101b3610243366004613935565b61062b565b34801561025457600080fd5b5061027c7f000000000000000000000000000000000000000000000000000000000000000081565b6040516001600160a01b0390911681526020016101c4565b61021b6102a2366004613a24565b610704565b3480156102b357600080fd5b5061021b6102c2366004613a8b565b610a6b565b3480156102d357600080fd5b506101b36102e2366004613afe565b610c2b565b3480156102f357600080fd5b5061018c610302366004613a8b565b610d1f565b34801561031357600080fd5b5061018c610322366004613a8b565b610fa6565b34801561033357600080fd5b5061021b610342366004613a8b565b611186565b34801561035357600080fd5b506101ed6103623660046137de565b6113fe565b34801561037357600080fd5b5061021b610382366004613a8b565b61140b565b61021b610395366004613a24565b6114ca565b3480156103a657600080fd5b5061021b6103b5366004613a8b565b611821565b3480156103c657600080fd5b506101ed6103d53660046137de565b611962565b6103ed6103e8366004613afe565b61196f565b604080519384526020840192909252908201526060016101c4565b61018c610416366004613a24565b611bca565b34801561042757600080fd5b506101b3610436366004613b5c565b611f03565b34801561044757600080fd5b5061027c7f000000000000000000000000000000000000000000000000000000000000000081565b34801561047b57600080fd5b5061021b61048a366004613820565b61212e565b34801561049b57600080fd5b506103ed6104aa366004613bce565b61215b565b3480156104bb57600080fd5b506101ed6104ca366004613afe565b61225a565b3480156104db57600080fd5b506101ed6104ea366004613748565b6123aa565b600080600061053f7f00000000000000000000000000000000000000000000000000000000000000008e7f0000000000000000000000000000000000000000000000000000000000000000612497565b905060008761054e578c610552565b6000195b60405163d505accf60e01b81529091506001600160a01b0383169063d505accf9061058d903390309086908f908e908e908e90600401613c4a565b600060405180830381600087803b1580156105a757600080fd5b505af11580156105bb573d6000803e3d6000fd5b505050506105cd8e8e8e8e8e8e610c2b565b909f909e509c50505050505050505050505050565b60006105ef848484612570565b949350505050565b60606106247f00000000000000000000000000000000000000000000000000000000000000008484612649565b9392505050565b600080600061065b7f00000000000000000000000000000000000000000000000000000000000000008f8f612497565b905060008761066a578c61066e565b6000195b60405163d505accf60e01b81529091506001600160a01b0383169063d505accf906106a9903390309086908f908e908e908e90600401613c4a565b600060405180830381600087803b1580156106c357600080fd5b505af11580156106d7573d6000803e3d6000fd5b505050506106ea8f8f8f8f8f8f8f611f03565b809450819550505050509b509b9950505050505050505050565b6060814281101561072857604051630407b05b60e31b815260040160405180910390fd5b7f00000000000000000000000000000000000000000000000000000000000000006001600160a01b03168686600081811061076557610765613c8b565b905060200201602081019061077a9190613ca1565b6001600160a01b0316146107a1576040516320db826760e01b815260040160405180910390fd5b6107ff7f0000000000000000000000000000000000000000000000000000000000000000348888808060200260200160405190810160405280939291908181526020018383602002808284376000920191909152506127d892505050565b91508682600184516108119190613cd4565b8151811061082157610821613c8b565b602002602001015110156108515760405163240bf61760e11b815260040161084890613ceb565b60405180910390fd5b7f00000000000000000000000000000000000000000000000000000000000000006001600160a01b031663d0e30db08360008151811061089357610893613c8b565b60200260200101516040518263ffffffff1660e01b81526004016000604051808303818588803b1580156108c657600080fd5b505af11580156108da573d6000803e3d6000fd5b50505050507f00000000000000000000000000000000000000000000000000000000000000006001600160a01b031663a9059cbb6109877f00000000000000000000000000000000000000000000000000000000000000008989600081811061094557610945613c8b565b905060200201602081019061095a9190613ca1565b8a8a600181811061096d5761096d613c8b565b90506020020160208101906109829190613ca1565b612497565b8460008151811061099a5761099a613c8b565b60200260200101516040518363ffffffff1660e01b81526004016109d39291906001600160a01b03929092168252602082015260400190565b6020604051808303816000875af11580156109f2573d6000803e3d6000fd5b505050506040513d601f19601f82011682018060405250810190610a169190613d30565b610a2257610a226136eb565b610a6182878780806020026020016040519081016040528093929190818152602001838360200280828437600092019190915250899250612947915050565b5095945050505050565b60608142811015610a8f57604051630407b05b60e31b815260040160405180910390fd5b610aed7f0000000000000000000000000000000000000000000000000000000000000000898888808060200260200160405190810160405280939291908181526020018383602002808284376000920191909152506127d892505050565b9150868260018451610aff9190613cd4565b81518110610b0f57610b0f613c8b565b60200260200101511015610b365760405163240bf61760e11b815260040161084890613ceb565b610be186866000818110610b4c57610b4c613c8b565b9050602002016020810190610b619190613ca1565b33610bc17f00000000000000000000000000000000000000000000000000000000000000008a8a6000818110610b9957610b99613c8b565b9050602002016020810190610bae9190613ca1565b8b8b600181811061096d5761096d613c8b565b85600081518110610bd457610bd4613c8b565b6020026020010151612b53565b610c2082878780806020026020016040519081016040528093929190818152602001838360200280828437600092019190915250899250612947915050565b509695505050505050565b6000808242811015610c5057604051630407b05b60e31b815260040160405180910390fd5b610c7f897f00000000000000000000000000000000000000000000000000000000000000008a8a8a308a611f03565b9093509150610c8f898685612c83565b604051632e1a7d4d60e01b8152600481018390527f00000000000000000000000000000000000000000000000000000000000000006001600160a01b031690632e1a7d4d90602401600060405180830381600087803b158015610cf157600080fd5b505af1158015610d05573d6000803e3d6000fd5b50505050610d138583612d97565b50965096945050505050565b8042811015610d4157604051630407b05b60e31b815260040160405180910390fd5b6001600160a01b037f0000000000000000000000000000000000000000000000000000000000000000168585610d78600182613cd4565b818110610d8757610d87613c8b565b9050602002016020810190610d9c9190613ca1565b6001600160a01b031614610dc3576040516320db826760e01b815260040160405180910390fd5b610e2c85856000818110610dd957610dd9613c8b565b9050602002016020810190610dee9190613ca1565b33610e267f00000000000000000000000000000000000000000000000000000000000000008989600081811061094557610945613c8b565b8a612b53565b610e6a858580806020026020016040519081016040528093929190818152602001838360200280828437600092019190915250309250612e65915050565b6040516370a0823160e01b81523060048201526000907f00000000000000000000000000000000000000000000000000000000000000006001600160a01b0316906370a0823190602401602060405180830381865afa158015610ed1573d6000803e3d6000fd5b505050506040513d601f19601f82011682018060405250810190610ef59190613d4d565b905086811015610f185760405163240bf61760e11b815260040161084890613ceb565b604051632e1a7d4d60e01b8152600481018290527f00000000000000000000000000000000000000000000000000000000000000006001600160a01b031690632e1a7d4d90602401600060405180830381600087803b158015610f7a57600080fd5b505af1158015610f8e573d6000803e3d6000fd5b50505050610f9c8482612d97565b5050505050505050565b8042811015610fc857604051630407b05b60e31b815260040160405180910390fd5b610fde85856000818110610dd957610dd9613c8b565b60008585610fed600182613cd4565b818110610ffc57610ffc613c8b565b90506020020160208101906110119190613ca1565b6040516370a0823160e01b81526001600160a01b03868116600483015291909116906370a0823190602401602060405180830381865afa158015611059573d6000803e3d6000fd5b505050506040513d601f19601f8201168201806040525081019061107d9190613d4d565b90506110bd868680806020026020016040519081016040528093929190818152602001838360200280828437600092019190915250889250612e65915050565b868187876110cc600182613cd4565b8181106110db576110db613c8b565b90506020020160208101906110f09190613ca1565b6040516370a0823160e01b81526001600160a01b03888116600483015291909116906370a08231906024015b602060405180830381865afa158015611139573d6000803e3d6000fd5b505050506040513d601f19601f8201168201806040525081019061115d9190613d4d565b6111679190613cd4565b1015610f9c5760405163240bf61760e11b815260040161084890613ceb565b606081428110156111aa57604051630407b05b60e31b815260040160405180910390fd5b6001600160a01b037f00000000000000000000000000000000000000000000000000000000000000001686866111e1600182613cd4565b8181106111f0576111f0613c8b565b90506020020160208101906112059190613ca1565b6001600160a01b03161461122c576040516320db826760e01b815260040160405180910390fd5b61128a7f0000000000000000000000000000000000000000000000000000000000000000898888808060200260200160405190810160405280939291908181526020018383602002808284376000920191909152506127d892505050565b915086826001845161129c9190613cd4565b815181106112ac576112ac613c8b565b602002602001015110156112d35760405163240bf61760e11b815260040161084890613ceb565b6112e986866000818110610b4c57610b4c613c8b565b61132882878780806020026020016040519081016040528093929190818152602001838360200280828437600092019190915250309250612947915050565b7f00000000000000000000000000000000000000000000000000000000000000006001600160a01b0316632e1a7d4d83600185516113669190613cd4565b8151811061137657611376613c8b565b60200260200101516040518263ffffffff1660e01b815260040161139c91815260200190565b600060405180830381600087803b1580156113b657600080fd5b505af11580156113ca573d6000803e3d6000fd5b50505050610c208483600185516113e19190613cd4565b815181106113f1576113f1613c8b565b6020026020010151612d97565b60006105ef84848461313f565b6060814281101561142f57604051630407b05b60e31b815260040160405180910390fd5b61148d7f00000000000000000000000000000000000000000000000000000000000000008988888080602002602001604051908101604052809392919081815260200183836020028082843760009201919091525061264992505050565b915086826000815181106114a3576114a3613c8b565b60200260200101511115610b365760405163e1b0da4f60e01b815260040160405180910390fd5b606081428110156114ee57604051630407b05b60e31b815260040160405180910390fd5b7f00000000000000000000000000000000000000000000000000000000000000006001600160a01b03168686600081811061152b5761152b613c8b565b90506020020160208101906115409190613ca1565b6001600160a01b031614611567576040516320db826760e01b815260040160405180910390fd5b6115c57f00000000000000000000000000000000000000000000000000000000000000008888888080602002602001604051908101604052809392919081815260200183836020028082843760009201919091525061264992505050565b915034826000815181106115db576115db613c8b565b602002602001015111156116025760405163e1b0da4f60e01b815260040160405180910390fd5b7f00000000000000000000000000000000000000000000000000000000000000006001600160a01b031663d0e30db08360008151811061164457611644613c8b565b60200260200101516040518263ffffffff1660e01b81526004016000604051808303818588803b15801561167757600080fd5b505af115801561168b573d6000803e3d6000fd5b50505050507f00000000000000000000000000000000000000000000000000000000000000006001600160a01b031663a9059cbb6116f67f00000000000000000000000000000000000000000000000000000000000000008989600081811061094557610945613c8b565b8460008151811061170957611709613c8b565b60200260200101516040518363ffffffff1660e01b81526004016117429291906001600160a01b03929092168252602082015260400190565b6020604051808303816000875af1158015611761573d6000803e3d6000fd5b505050506040513d601f19601f820116820180604052508101906117859190613d30565b611791576117916136eb565b6117d082878780806020026020016040519081016040528093929190818152602001838360200280828437600092019190915250899250612947915050565b816000815181106117e3576117e3613c8b565b6020026020010151341115610a6157610a61338360008151811061180957611809613c8b565b60200260200101513461181c9190613cd4565b612d97565b6060814281101561184557604051630407b05b60e31b815260040160405180910390fd5b6001600160a01b037f000000000000000000000000000000000000000000000000000000000000000016868661187c600182613cd4565b81811061188b5761188b613c8b565b90506020020160208101906118a09190613ca1565b6001600160a01b0316146118c7576040516320db826760e01b815260040160405180910390fd5b6119257f00000000000000000000000000000000000000000000000000000000000000008988888080602002602001604051908101604052809392919081815260200183836020028082843760009201919091525061264992505050565b9150868260008151811061193b5761193b613c8b565b602002602001015111156112d35760405163e1b0da4f60e01b815260040160405180910390fd5b60006105ef84848461321e565b6000806000834281101561199657604051630407b05b60e31b815260040160405180910390fd5b6119c48a7f00000000000000000000000000000000000000000000000000000000000000008b348c8c6132b0565b90945092506000611a167f00000000000000000000000000000000000000000000000000000000000000008c7f0000000000000000000000000000000000000000000000000000000000000000612497565b9050611a248b338388612b53565b7f00000000000000000000000000000000000000000000000000000000000000006001600160a01b031663d0e30db0856040518263ffffffff1660e01b81526004016000604051808303818588803b158015611a7f57600080fd5b505af1158015611a93573d6000803e3d6000fd5b505060405163a9059cbb60e01b81526001600160a01b038581166004830152602482018990527f000000000000000000000000000000000000000000000000000000000000000016935063a9059cbb925060440190506020604051808303816000875af1158015611b08573d6000803e3d6000fd5b505050506040513d601f19601f82011682018060405250810190611b2c9190613d30565b611b3857611b386136eb565b6040516335313c2160e11b81526001600160a01b038881166004830152821690636a627842906024016020604051808303816000875af1158015611b80573d6000803e3d6000fd5b505050506040513d601f19601f82011682018060405250810190611ba49190613d4d565b925083341115611bbc57611bbc3361181c8634613cd4565b505096509650969350505050565b8042811015611bec57604051630407b05b60e31b815260040160405180910390fd5b7f00000000000000000000000000000000000000000000000000000000000000006001600160a01b031685856000818110611c2957611c29613c8b565b9050602002016020810190611c3e9190613ca1565b6001600160a01b031614611c65576040516320db826760e01b815260040160405180910390fd5b60003490507f00000000000000000000000000000000000000000000000000000000000000006001600160a01b031663d0e30db0826040518263ffffffff1660e01b81526004016000604051808303818588803b158015611cc557600080fd5b505af1158015611cd9573d6000803e3d6000fd5b50505050507f00000000000000000000000000000000000000000000000000000000000000006001600160a01b031663a9059cbb611d447f00000000000000000000000000000000000000000000000000000000000000008989600081811061094557610945613c8b565b6040516001600160e01b031960e084901b1681526001600160a01b039091166004820152602481018490526044016020604051808303816000875af1158015611d91573d6000803e3d6000fd5b505050506040513d601f19601f82011682018060405250810190611db59190613d30565b611dc157611dc16136eb565b60008686611dd0600182613cd4565b818110611ddf57611ddf613c8b565b9050602002016020810190611df49190613ca1565b6040516370a0823160e01b81526001600160a01b03878116600483015291909116906370a0823190602401602060405180830381865afa158015611e3c573d6000803e3d6000fd5b505050506040513d601f19601f82011682018060405250810190611e609190613d4d565b9050611ea0878780806020026020016040519081016040528093929190818152602001838360200280828437600092019190915250899250612e65915050565b87818888611eaf600182613cd4565b818110611ebe57611ebe613c8b565b9050602002016020810190611ed39190613ca1565b6040516370a0823160e01b81526001600160a01b03898116600483015291909116906370a082319060240161111c565b6000808242811015611f2857604051630407b05b60e31b815260040160405180910390fd5b6000611f557f00000000000000000000000000000000000000000000000000000000000000008c8c612497565b6040516323b872dd60e01b81523360048201526001600160a01b03821660248201819052604482018c90529192506323b872dd906064016020604051808303816000875af1158015611fab573d6000803e3d6000fd5b505050506040513d601f19601f82011682018060405250810190611fcf9190613d30565b5060405163226bf2d160e21b81526001600160a01b03878116600483015260009182918416906389afcb449060240160408051808303816000875af115801561201c573d6000803e3d6000fd5b505050506040513d601f19601f820116820180604052508101906120409190613d66565b9150915060006120508e8e613537565b509050806001600160a01b03168e6001600160a01b031614612073578183612076565b82825b90975095508a8710156120cc5760405163240bf61760e11b815260206004820181905260248201527f446578526f757465723a20494e53554646494349454e545f415f414d4f554e546044820152606401610848565b8986101561211d5760405163240bf61760e11b815260206004820181905260248201527f446578526f757465723a20494e53554646494349454e545f425f414d4f554e546044820152606401610848565b505050505097509795505050505050565b60606106247f000000000000000000000000000000000000000000000000000000000000000084846127d8565b6000806000834281101561218257604051630407b05b60e31b815260040160405180910390fd5b6121908c8c8c8c8c8c6132b0565b909450925060006121c27f00000000000000000000000000000000000000000000000000000000000000008e8e612497565b90506121d08d338388612b53565b6121dc8c338387612b53565b6040516335313c2160e11b81526001600160a01b038881166004830152821690636a627842906024016020604051808303816000875af1158015612224573d6000803e3d6000fd5b505050506040513d601f19601f820116820180604052508101906122489190613d4d565b92505050985098509895505050505050565b6000814281101561227e57604051630407b05b60e31b815260040160405180910390fd5b6122ad887f00000000000000000000000000000000000000000000000000000000000000008989893089611f03565b6040516370a0823160e01b81523060048201529093506123269150899086906001600160a01b038316906370a0823190602401602060405180830381865afa1580156122fd573d6000803e3d6000fd5b505050506040513d601f19601f820116820180604052508101906123219190613d4d565b612c83565b604051632e1a7d4d60e01b8152600481018390527f00000000000000000000000000000000000000000000000000000000000000006001600160a01b031690632e1a7d4d90602401600060405180830381600087803b15801561238857600080fd5b505af115801561239c573d6000803e3d6000fd5b50505050610c208483612d97565b6000806123f87f00000000000000000000000000000000000000000000000000000000000000008d7f0000000000000000000000000000000000000000000000000000000000000000612497565b9050600086612407578b61240b565b6000195b60405163d505accf60e01b81529091506001600160a01b0383169063d505accf90612446903390309086908e908d908d908d90600401613c4a565b600060405180830381600087803b15801561246057600080fd5b505af1158015612474573d6000803e3d6000fd5b505050506124868d8d8d8d8d8d61225a565b9d9c50505050505050505050505050565b60008060006124a68585613537565b6040516bffffffffffffffffffffffff19606084811b8216602084015283901b166034820152919350915086906048016040516020818303038152906040528051906020012060405160200161254e9291906001600160f81b0319815260609290921b6bffffffffffffffffffffffff1916600183015260158201527fba4c48f0fc716b78a46b6c7178921b99fa4f6fe05185d5b03f1cb3d4d74ce883603582015260550190565b60408051601f1981840301815291905280516020909101209695505050505050565b60008084116125cf5760405162461bcd60e51b815260206004820152602560248201527f4465784c6962726172793a20494e53554646494349454e545f494e5055545f416044820152641353d5539560da1b6064820152608401610848565b6000831180156125df5750600082115b6125fb5760405162461bcd60e51b815260040161084890613d8a565b6000612609856103e5613dcc565b905060006126178483613dcc565b9050600082612628876103e8613dcc565b6126329190613deb565b905061263e8183613e03565b979650505050505050565b8051606090600281101561269a5760405162461bcd60e51b8152602060048201526018602482015277088caf098d2c4e4c2e4f27440929cac82989288bea082a8960431b6044820152606401610848565b8067ffffffffffffffff8111156126b3576126b361380a565b6040519080825280602002602001820160405280156126dc578160200160208202803683370190505b5091508382600184516126ef9190613cd4565b815181106126ff576126ff613c8b565b60209081029190910101526000612717600183613cd4565b90505b80156127cf5760008061276a8887612733600187613cd4565b8151811061274357612743613c8b565b602002602001015188868151811061275d5761275d613c8b565b6020026020010151613621565b9150915061279285848151811061278357612783613c8b565b6020026020010151838361313f565b8561279e600186613cd4565b815181106127ae576127ae613c8b565b602002602001018181525050505080806127c790613e25565b91505061271a565b50509392505050565b805160609060028110156128295760405162461bcd60e51b8152602060048201526018602482015277088caf098d2c4e4c2e4f27440929cac82989288bea082a8960431b6044820152606401610848565b8067ffffffffffffffff8111156128425761284261380a565b60405190808252806020026020018201604052801561286b578160200160208202803683370190505b509150838260008151811061288257612882613c8b565b60200260200101818152505060005b61289c600183613cd4565b8110156127cf576000806128e2888785815181106128bc576128bc613c8b565b6020026020010151888660016128d29190613deb565b8151811061275d5761275d613c8b565b9150915061290a8584815181106128fb576128fb613c8b565b60200260200101518383612570565b85612916856001613deb565b8151811061292657612926613c8b565b6020026020010181815250505050808061293f90613e3c565b915050612891565b6000600183516129579190613cd4565b905060005b81811015612b4c5760008085838151811061297957612979613c8b565b60200260200101518684600161298f9190613deb565b8151811061299f5761299f613c8b565b60200260200101519150915060006129b78383613537565b5090506000886129c8866001613deb565b815181106129d8576129d8613c8b565b60200260200101519050600080836001600160a01b0316866001600160a01b031614612a0657826000612a0a565b6000835b90925090506000612a1c60018a613cd4565b8810612a285789612a76565b612a767f0000000000000000000000000000000000000000000000000000000000000000878d612a598c6002613deb565b81518110612a6957612a69613c8b565b6020026020010151612497565b9050612aa37f00000000000000000000000000000000000000000000000000000000000000008888612497565b6001600160a01b031663022c0d9f84848460006040519080825280601f01601f191660200182016040528015612ae0576020820181803683370190505b506040518563ffffffff1660e01b8152600401612b009493929190613e87565b600060405180830381600087803b158015612b1a57600080fd5b505af1158015612b2e573d6000803e3d6000fd5b50505050505050505050508080612b4490613e3c565b91505061295c565b5050505050565b604080516001600160a01b0385811660248301528481166044830152606480830185905283518084039091018152608490920183526020820180516001600160e01b03166323b872dd60e01b1790529151600092839290881691612bb79190613ed7565b6000604051808303816000865af19150503d8060008114612bf4576040519150601f19603f3d011682016040523d82523d6000602084013e612bf9565b606091505b5091509150818015612c23575080511580612c23575080806020019051810190612c239190613d30565b612c7b5760405162461bcd60e51b8152602060048201526024808201527f5472616e7366657248656c7065723a205452414e534645525f46524f4d5f46416044820152631253115160e21b6064820152608401610848565b505050505050565b604080516001600160a01b038481166024830152604480830185905283518084039091018152606490920183526020820180516001600160e01b031663a9059cbb60e01b1790529151600092839290871691612cdf9190613ed7565b6000604051808303816000865af19150503d8060008114612d1c576040519150601f19603f3d011682016040523d82523d6000602084013e612d21565b606091505b5091509150818015612d4b575080511580612d4b575080806020019051810190612d4b9190613d30565b612b4c5760405162461bcd60e51b815260206004820152601f60248201527f5472616e7366657248656c7065723a205452414e534645525f4641494c4544006044820152606401610848565b604080516000808252602082019092526001600160a01b038416908390604051612dc19190613ed7565b60006040518083038185875af1925050503d8060008114612dfe576040519150601f19603f3d011682016040523d82523d6000602084013e612e03565b606091505b5050905080612e605760405162461bcd60e51b8152602060048201526024808201527f5472616e7366657248656c7065723a204b4c41595f5452414e534645525f46416044820152631253115160e21b6064820152608401610848565b505050565b60005b60018351612e769190613cd4565b811015612e6057600080848381518110612e9257612e92613c8b565b602002602001015185846001612ea89190613deb565b81518110612eb857612eb8613c8b565b6020026020010151915091506000612ed08383613537565b5090506000612f007f00000000000000000000000000000000000000000000000000000000000000008585612497565b9050600080600080846001600160a01b0316630902f1ac6040518163ffffffff1660e01b8152600401606060405180830381865afa158015612f46573d6000803e3d6000fd5b505050506040513d601f19601f82011682018060405250810190612f6a9190613f0a565b506001600160701b031691506001600160701b03169150600080876001600160a01b03168a6001600160a01b031614612fa4578284612fa7565b83835b6040516370a0823160e01b81526001600160a01b038a8116600483015292945090925083918c16906370a0823190602401602060405180830381865afa158015612ff5573d6000803e3d6000fd5b505050506040513d601f19601f820116820180604052508101906130199190613d4d565b6130239190613cd4565b9550613030868383612570565b945050505050600080856001600160a01b0316886001600160a01b03161461305a5782600061305e565b6000835b91509150600060028c516130729190613cd4565b8a1061307e578a6130af565b6130af7f0000000000000000000000000000000000000000000000000000000000000000898e612a598e6002613deb565b6040805160008152602081019182905263022c0d9f60e01b9091529091506001600160a01b0387169063022c0d9f906130f19086908690869060248101613e87565b600060405180830381600087803b15801561310b57600080fd5b505af115801561311f573d6000803e3d6000fd5b50505050505050505050505050808061313790613e3c565b915050612e68565b600080841161319f5760405162461bcd60e51b815260206004820152602660248201527f4465784c6962726172793a20494e53554646494349454e545f4f55545055545f604482015265105353d5539560d21b6064820152608401610848565b6000831180156131af5750600082115b6131cb5760405162461bcd60e51b815260040161084890613d8a565b60006131d78585613dcc565b6131e3906103e8613dcc565b905060006131f18685613cd4565b6131fd906103e5613dcc565b90506132098183613e03565b613214906001613deb565b9695505050505050565b600080841161326f5760405162461bcd60e51b815260206004820152601f60248201527f4465784c6962726172793a20494e53554646494349454e545f414d4f554e54006044820152606401610848565b60008311801561327f5750600082115b61329b5760405162461bcd60e51b815260040161084890613d8a565b826132a68386613dcc565b6105ef9190613e03565b60405163e6a4390560e01b81526001600160a01b0387811660048301528681166024830152600091829182917f00000000000000000000000000000000000000000000000000000000000000009091169063e6a4390590604401602060405180830381865afa158015613327573d6000803e3d6000fd5b505050506040513d601f19601f8201168201806040525081019061334b9190613f5a565b6001600160a01b031614156133f0576040516364e329cb60e11b81526001600160a01b03898116600483015288811660248301527f0000000000000000000000000000000000000000000000000000000000000000169063c9c65396906044016020604051808303816000875af11580156133ca573d6000803e3d6000fd5b505050506040513d601f19601f820116820180604052508101906133ee9190613f5a565b505b60008061341e7f00000000000000000000000000000000000000000000000000000000000000008b8b613621565b91509150816000148015613430575080155b156134405787935086925061352a565b600061344d89848461321e565b90508781116134b257858110156134a75760405163240bf61760e11b815260206004820181905260248201527f446578526f757465723a20494e53554646494349454e545f425f414d4f554e546044820152606401610848565b889450925082613528565b60006134bf89848661321e565b9050898111156134d1576134d16136eb565b878110156135225760405163240bf61760e11b815260206004820181905260248201527f446578526f757465723a20494e53554646494349454e545f415f414d4f554e546044820152606401610848565b94508793505b505b5050965096945050505050565b600080826001600160a01b0316846001600160a01b0316141561359c5760405162461bcd60e51b815260206004820152601f60248201527f4465784c6962726172793a204944454e544943414c5f414444524553534553006044820152606401610848565b826001600160a01b0316846001600160a01b0316106135bc5782846135bf565b83835b90925090506001600160a01b03821661361a5760405162461bcd60e51b815260206004820152601860248201527f4465784c6962726172793a205a45524f5f4144445245535300000000000000006044820152606401610848565b9250929050565b60008060006136308585613537565b509050600080613641888888612497565b6001600160a01b0316630902f1ac6040518163ffffffff1660e01b8152600401606060405180830381865afa15801561367e573d6000803e3d6000fd5b505050506040513d601f19601f820116820180604052508101906136a29190613f0a565b506001600160701b031691506001600160701b03169150826001600160a01b0316876001600160a01b0316146136d95780826136dc565b81815b90999098509650505050505050565b634e487b7160e01b600052600160045260246000fd5b6001600160a01b038116811461371657600080fd5b50565b803561372481613701565b919050565b801515811461371657600080fd5b803560ff8116811461372457600080fd5b6000806000806000806000806000806101408b8d03121561376857600080fd5b8a3561377381613701565b995060208b0135985060408b0135975060608b0135965060808b013561379881613701565b955060a08b0135945060c08b01356137af81613729565b93506137bd60e08c01613737565b92506101008b013591506101208b013590509295989b9194979a5092959850565b6000806000606084860312156137f357600080fd5b505081359360208301359350604090920135919050565b634e487b7160e01b600052604160045260246000fd5b6000806040838503121561383357600080fd5b8235915060208084013567ffffffffffffffff8082111561385357600080fd5b818601915086601f83011261386757600080fd5b8135818111156138795761387961380a565b8060051b604051601f19603f8301168101818110858211171561389e5761389e61380a565b6040529182528482019250838101850191898311156138bc57600080fd5b938501935b828510156138e1576138d285613719565b845293850193928501926138c1565b8096505050505050509250929050565b6020808252825182820181905260009190848201906040850190845b818110156139295783518352928401929184019160010161390d565b50909695505050505050565b60008060008060008060008060008060006101608c8e03121561395757600080fd5b8b3561396281613701565b9a5060208c013561397281613701565b995060408c0135985060608c0135975060808c0135965060a08c013561399781613701565b955060c08c0135945060e08c01356139ae81613729565b93506139bd6101008d01613737565b92506101208c013591506101408c013590509295989b509295989b9093969950565b60008083601f8401126139f157600080fd5b50813567ffffffffffffffff811115613a0957600080fd5b6020830191508360208260051b850101111561361a57600080fd5b600080600080600060808688031215613a3c57600080fd5b85359450602086013567ffffffffffffffff811115613a5a57600080fd5b613a66888289016139df565b9095509350506040860135613a7a81613701565b949793965091946060013592915050565b60008060008060008060a08789031215613aa457600080fd5b8635955060208701359450604087013567ffffffffffffffff811115613ac957600080fd5b613ad589828a016139df565b9095509350506060870135613ae981613701565b80925050608087013590509295509295509295565b60008060008060008060c08789031215613b1757600080fd5b8635613b2281613701565b95506020870135945060408701359350606087013592506080870135613b4781613701565b8092505060a087013590509295509295509295565b600080600080600080600060e0888a031215613b7757600080fd5b8735613b8281613701565b96506020880135613b9281613701565b955060408801359450606088013593506080880135925060a0880135613bb781613701565b8092505060c0880135905092959891949750929550565b600080600080600080600080610100898b031215613beb57600080fd5b8835613bf681613701565b97506020890135613c0681613701565b965060408901359550606089013594506080890135935060a0890135925060c0890135613c3281613701565b8092505060e089013590509295985092959890939650565b6001600160a01b0397881681529590961660208601526040850193909352606084019190915260ff16608083015260a082015260c081019190915260e00190565b634e487b7160e01b600052603260045260246000fd5b600060208284031215613cb357600080fd5b813561062481613701565b634e487b7160e01b600052601160045260246000fd5b600082821015613ce657613ce6613cbe565b500390565b60208082526025908201527f446578526f757465723a20494e53554646494349454e545f4f55545055545f416040820152641353d5539560da1b606082015260800190565b600060208284031215613d4257600080fd5b815161062481613729565b600060208284031215613d5f57600080fd5b5051919050565b60008060408385031215613d7957600080fd5b505080516020909101519092909150565b60208082526022908201527f4465784c6962726172793a20494e53554646494349454e545f4c495155494449604082015261545960f01b606082015260800190565b6000816000190483118215151615613de657613de6613cbe565b500290565b60008219821115613dfe57613dfe613cbe565b500190565b600082613e2057634e487b7160e01b600052601260045260246000fd5b500490565b600081613e3457613e34613cbe565b506000190190565b6000600019821415613e5057613e50613cbe565b5060010190565b60005b83811015613e72578181015183820152602001613e5a565b83811115613e81576000848401525b50505050565b84815283602082015260018060a01b03831660408201526080606082015260008251806080840152613ec08160a0850160208701613e57565b601f01601f19169190910160a00195945050505050565b60008251613ee9818460208701613e57565b9190910192915050565b80516001600160701b038116811461372457600080fd5b600080600060608486031215613f1f57600080fd5b613f2884613ef3565b9250613f3660208501613ef3565b9150604084015163ffffffff81168114613f4f57600080fd5b809150509250925092565b600060208284031215613f6c57600080fd5b81516106248161370156fea26469706673582212205cb11b9347b40e1666394c354ba893bae067a5f7306422257a122fad10c593cf64736f6c634300080c0033",
  "linkReferences": {},
  "deployedLinkReferences": {}
}