{
  "_format": "hh-sol-artifact-1",
  "contractName": "PlatformToken",
  "sourceName": "contracts/tokens/PlatformToken.sol",
  "abi": [
    {
      "inputs": [],
      "stateMutability": "nonpayable",
      "type": "constructor"
    },
    {
      "anonymous": false,
      "inputs": [
        {
          "indexed": true,
          "internalType": "address",
          "name": "owner",
          "type": "address"
        },
        {
          "indexed": true,
          "internalType": "address",
          "name": "spender",
          "type": "address"
        },
        {
          "indexed": false,
          "internalType": "uint256",
          "name": "value",
          "type": "uint256"
        }
      ],
      "name": "Approval",
      "type": "event"
    },
    {
      "anonymous": false,
      "inputs": [
        {
          "indexed": true,
          "internalType": "address",
          "name": "previousOwner",
          "type": "address"
        },
        {
          "indexed": true,
          "internalType": "address",
          "name": "newOwner",
          "type": "address"
        }
      ],
      "name": "OwnershipTransferred",
      "type": "event"
    },
    {
      "anonymous": false,
      "inputs": [
        {
          "indexed": true,
          "internalType": "address",
          "name": "from",
          "type": "address"
        },
        {
          "indexed": true,
          "internalType": "address",
          "name": "to",
          "type": "address"
        },
        {
          "indexed": false,
          "internalType": "uint256",
          "name": "value",
          "type": "uint256"
        }
      ],
      "name": "Transfer",
      "type": "event"
    },
    {
      "inputs": [
        {
          "internalType": "address",
          "name": "owner",
          "type": "address"
        },
        {
          "internalType": "address",
          "name": "spender",
          "type": "address"
        }
      ],
      "name": "allowance",
      "outputs": [
        {
          "internalType": "uint256",
          "name": "",
          "type": "uint256"
        }
      ],
      "stateMutability": "view",
      "type": "function"
    },
    {
      "inputs": [
        {
          "internalType": "address",
          "name": "spender",
          "type": "address"
        },
        {
          "internalType": "uint256",
          "name": "amount",
          "type": "uint256"
        }
      ],
      "name": "approve",
      "outputs": [
        {
          "internalType": "bool",
          "name": "",
          "type": "bool"
        }
      ],
      "stateMutability": "nonpayable",
      "type": "function"
    },
    {
      "inputs": [
        {
          "internalType": "address",
          "name": "account",
          "type": "address"
        }
      ],
      "name": "balanceOf",
      "outputs": [
        {
          "internalType": "uint256",
          "name": "",
          "type": "uint256"
        }
      ],
      "stateMutability": "view",
      "type": "function"
    },
    {
      "inputs": [
        {
          "internalType": "address",
          "name": "account",
          "type": "address"
        },
        {
          "internalType": "uint256",
          "name": "amount",
          "type": "uint256"
        }
      ],
      "name": "burn",
      "outputs": [],
      "stateMutability": "nonpayable",
      "type": "function"
    },
    {
      "inputs": [],
      "name": "decimals",
      "outputs": [
        {
          "internalType": "uint8",
          "name": "",
          "type": "uint8"
        }
      ],
      "stateMutability": "view",
      "type": "function"
    },
    {
      "inputs": [
        {
          "internalType": "address",
          "name": "spender",
          "type": "address"
        },
        {
          "internalType": "uint256",
          "name": "subtractedValue",
          "type": "uint256"
        }
      ],
      "name": "decreaseAllowance",
      "outputs": [
        {
          "internalType": "bool",
          "name": "",
          "type": "bool"
        }
      ],
      "stateMutability": "nonpayable",
      "type": "function"
    },
    {
      "inputs": [],
      "name": "getChainId",
      "outputs": [
        {
          "internalType": "uint256",
          "name": "",
          "type": "uint256"
        }
      ],
      "stateMutability": "view",
      "type": "function"
    },
    {
      "inputs": [
        {
          "internalType": "address",
          "name": "spender",
          "type": "address"
        },
        {
          "internalType": "uint256",
          "name": "addedValue",
          "type": "uint256"
        }
      ],
      "name": "increaseAllowance",
      "outputs": [
        {
          "internalType": "bool",
          "name": "",
          "type": "bool"
        }
      ],
      "stateMutability": "nonpayable",
      "type": "function"
    },
    {
      "inputs": [
        {
          "internalType": "address",
          "name": "account",
          "type": "address"
        },
        {
          "internalType": "uint256",
          "name": "amount",
          "type": "uint256"
        }
      ],
      "name": "mint",
      "outputs": [
        {
          "internalType": "bool",
          "name": "",
          "type": "bool"
        }
      ],
      "stateMutability": "nonpayable",
      "type": "function"
    },
    {
      "inputs": [],
      "name": "name",
      "outputs": [
        {
          "internalType": "string",
          "name": "",
          "type": "string"
        }
      ],
      "stateMutability": "view",
      "type": "function"
    },
    {
      "inputs": [],
      "name": "owner",
      "outputs": [
        {
          "internalType": "address",
          "name": "",
          "type": "address"
        }
      ],
      "stateMutability": "view",
      "type": "function"
    },
    {
      "inputs": [],
      "name": "renounceOwnership",
      "outputs": [],
      "stateMutability": "nonpayable",
      "type": "function"
    },
    {
      "inputs": [
        {
          "internalType": "address",
          "name": "recipient",
          "type": "address"
        },
        {
          "internalType": "uint256",
          "name": "amount",
          "type": "uint256"
        }
      ],
      "name": "safeTransfer",
      "outputs": [],
      "stateMutability": "nonpayable",
      "type": "function"
    },
    {
      "inputs": [
        {
          "internalType": "address",
          "name": "recipient",
          "type": "address"
        },
        {
          "internalType": "uint256",
          "name": "amount",
          "type": "uint256"
        },
        {
          "internalType": "bytes",
          "name": "_data",
          "type": "bytes"
        }
      ],
      "name": "safeTransfer",
      "outputs": [],
      "stateMutability": "nonpayable",
      "type": "function"
    },
    {
      "inputs": [
        {
          "internalType": "address",
          "name": "sender",
          "type": "address"
        },
        {
          "internalType": "address",
          "name": "recipient",
          "type": "address"
        },
        {
          "internalType": "uint256",
          "name": "amount",
          "type": "uint256"
        }
      ],
      "name": "safeTransferFrom",
      "outputs": [],
      "stateMutability": "nonpayable",
      "type": "function"
    },
    {
      "inputs": [
        {
          "internalType": "address",
          "name": "sender",
          "type": "address"
        },
        {
          "internalType": "address",
          "name": "recipient",
          "type": "address"
        },
        {
          "internalType": "uint256",
          "name": "amount",
          "type": "uint256"
        },
        {
          "internalType": "bytes",
          "name": "_data",
          "type": "bytes"
        }
      ],
      "name": "safeTransferFrom",
      "outputs": [],
      "stateMutability": "nonpayable",
      "type": "function"
    },
    {
      "inputs": [
        {
          "internalType": "bytes4",
          "name": "interfaceId",
          "type": "bytes4"
        }
      ],
      "name": "supportsInterface",
      "outputs": [
        {
          "internalType": "bool",
          "name": "",
          "type": "bool"
        }
      ],
      "stateMutability": "view",
      "type": "function"
    },
    {
      "inputs": [],
      "name": "symbol",
      "outputs": [
        {
          "internalType": "string",
          "name": "",
          "type": "string"
        }
      ],
      "stateMutability": "view",
      "type": "function"
    },
    {
      "inputs": [],
      "name": "totalSupply",
      "outputs": [
        {
          "internalType": "uint256",
          "name": "",
          "type": "uint256"
        }
      ],
      "stateMutability": "view",
      "type": "function"
    },
    {
      "inputs": [
        {
          "internalType": "address",
          "name": "to",
          "type": "address"
        },
        {
          "internalType": "uint256",
          "name": "amount",
          "type": "uint256"
        }
      ],
      "name": "transfer",
      "outputs": [
        {
          "internalType": "bool",
          "name": "",
          "type": "bool"
        }
      ],
      "stateMutability": "nonpayable",
      "type": "function"
    },
    {
      "inputs": [
        {
          "internalType": "address",
          "name": "from",
          "type": "address"
        },
        {
          "internalType": "address",
          "name": "to",
          "type": "address"
        },
        {
          "internalType": "uint256",
          "name": "amount",
          "type": "uint256"
        }
      ],
      "name": "transferFrom",
      "outputs": [
        {
          "internalType": "bool",
          "name": "",
          "type": "bool"
        }
      ],
      "stateMutability": "nonpayable",
      "type": "function"
    },
    {
      "inputs": [
        {
          "internalType": "address",
          "name": "newOwner",
          "type": "address"
        }
      ],
      "name": "transferOwnership",
      "outputs": [],
      "stateMutability": "nonpayable",
      "type": "function"
    }
  ],
  "bytecode": "0x60806040523480156200001157600080fd5b50604080518082018252600d81526c2ca222ac2a32b9ba2a37b5b2b760991b6020808301918252835180850190945260058452640b2a8888ab60db1b9084015281519192916200006491600391620000f3565b5080516200007a906004906020840190620000f3565b50505062000097620000916200009d60201b60201c565b620000a1565b620001d6565b3390565b600580546001600160a01b038381166001600160a01b0319831681179093556040519116919082907f8be0079c531659141344cd1fd0a4f28419497f9722a3daafe3b4186f6b6457e090600090a35050565b828054620001019062000199565b90600052602060002090601f01602090048101928262000125576000855562000170565b82601f106200014057805160ff191683800117855562000170565b8280016001018555821562000170579182015b828111156200017057825182559160200191906001019062000153565b506200017e92915062000182565b5090565b5b808211156200017e576000815560010162000183565b600181811c90821680620001ae57607f821691505b60208210811415620001d057634e487b7160e01b600052602260045260246000fd5b50919050565b61123b80620001e66000396000f3fe608060405234801561001057600080fd5b50600436106101425760003560e01c806370a08231116100b8578063a457c2d71161007c578063a457c2d714610286578063a9059cbb14610299578063b88d4fde146102ac578063dd62ed3e146102bf578063eb795549146102d2578063f2fde38b146102e557600080fd5b806370a082311461021f578063715018a6146102485780638da5cb5b1461025057806395d89b411461026b5780639dc29fac1461027357600080fd5b8063313ce5671161010a578063313ce567146101bc5780633408e470146101cb57806339509351146101d157806340c10f19146101e4578063423f6cef146101f757806342842e0e1461020c57600080fd5b806301ffc9a71461014757806306fdde031461016f578063095ea7b31461018457806318160ddd1461019757806323b872dd146101a9575b600080fd5b61015a610155366004610e75565b6102f8565b60405190151581526020015b60405180910390f35b61017761034a565b6040516101669190610ee6565b61015a610192366004610f15565b6103dc565b6002545b604051908152602001610166565b61015a6101b7366004610f3f565b6103f4565b60405160128152602001610166565b4661019b565b61015a6101df366004610f15565b610418565b61015a6101f2366004610f15565b61043a565b61020a610205366004610f15565b61044f565b005b61020a61021a366004610f3f565b610474565b61019b61022d366004610f7b565b6001600160a01b031660009081526020819052604090205490565b61020a6104a1565b6005546040516001600160a01b039091168152602001610166565b61017761050c565b61020a610281366004610f15565b61051b565b61015a610294366004610f15565b610529565b61015a6102a7366004610f15565b6105a2565b61020a6102ba366004611039565b6105b0565b61019b6102cd3660046110a1565b6105cf565b61020a6102e03660046110d4565b6105fa565b61020a6102f3366004610f7b565b610607565b60006001600160e01b03198216636578737160e01b148061032957506001600160e01b0319821663a219a02560e01b145b8061034457506301ffc9a760e01b6001600160e01b03198316145b92915050565b6060600380546103599061112b565b80601f01602080910402602001604051908101604052809291908181526020018280546103859061112b565b80156103d25780601f106103a7576101008083540402835291602001916103d2565b820191906000526020600020905b8154815290600101906020018083116103b557829003601f168201915b5050505050905090565b6000336103ea8185856106d2565b5060019392505050565b6000336104028582856107f5565b61040d858585610869565b506001949350505050565b6000336103ea81858561042b83836105cf565b610435919061117c565b6106d2565b60006104468383610a33565b50600192915050565b600033905061046f81848460405180602001604052806000815250610b12565b505050565b336104808482846107f5565b61049b84848460405180602001604052806000815250610b12565b50505050565b6005546001600160a01b031633146105005760405162461bcd60e51b815260206004820181905260248201527f4f776e61626c653a2063616c6c6572206973206e6f7420746865206f776e657260448201526064015b60405180910390fd5b61050a6000610b8d565b565b6060600480546103599061112b565b6105258282610bdf565b5050565b6000338161053782866105cf565b9050838110156105955760405162461bcd60e51b8152602060048201526024808201527f4b4950373a2064656372656173656420616c6c6f77616e63652062656c6f77206044820152637a65726f60e01b60648201526084016104f7565b61040d82868684036106d2565b6000336103ea818585610869565b336105bc8582856107f5565b6105c885858585610b12565b5050505050565b6001600160a01b03918216600090815260016020908152604080832093909416825291909152205490565b3361049b81858585610b12565b6005546001600160a01b031633146106615760405162461bcd60e51b815260206004820181905260248201527f4f776e61626c653a2063616c6c6572206973206e6f7420746865206f776e657260448201526064016104f7565b6001600160a01b0381166106c65760405162461bcd60e51b815260206004820152602660248201527f4f776e61626c653a206e6577206f776e657220697320746865207a65726f206160448201526564647265737360d01b60648201526084016104f7565b6106cf81610b8d565b50565b6001600160a01b0383166107345760405162461bcd60e51b815260206004820152602360248201527f4b4950373a20617070726f76652066726f6d20746865207a65726f206164647260448201526265737360e81b60648201526084016104f7565b6001600160a01b0382166107945760405162461bcd60e51b815260206004820152602160248201527f4b4950373a20617070726f766520746f20746865207a65726f206164647265736044820152607360f81b60648201526084016104f7565b6001600160a01b0383811660008181526001602090815260408083209487168084529482529182902085905590518481527f8c5be1e5ebec7d5bd14f71427d1e84f3dd0314c0f7b2291e5b200ac8c7c3b925910160405180910390a3505050565b600061080184846105cf565b9050600019811461049b578181101561085c5760405162461bcd60e51b815260206004820152601c60248201527f4b4950373a20696e73756666696369656e7420616c6c6f77616e63650000000060448201526064016104f7565b61049b84848484036106d2565b6001600160a01b0383166108cb5760405162461bcd60e51b8152602060048201526024808201527f4b4950373a207472616e736665722066726f6d20746865207a65726f206164646044820152637265737360e01b60648201526084016104f7565b6001600160a01b03821661092c5760405162461bcd60e51b815260206004820152602260248201527f4b4950373a207472616e7366657220746f20746865207a65726f206164647265604482015261737360f01b60648201526084016104f7565b6001600160a01b038316600090815260208190526040902054818110156109a35760405162461bcd60e51b815260206004820152602560248201527f4b4950373a207472616e7366657220616d6f756e7420657863656564732062616044820152646c616e636560d81b60648201526084016104f7565b6001600160a01b038085166000908152602081905260408082208585039055918516815290812080548492906109da90849061117c565b92505081905550826001600160a01b0316846001600160a01b03167fddf252ad1be2c89b69c2b068fc378daa952ba7f163c4a11628f55a4df523b3ef84604051610a2691815260200190565b60405180910390a361049b565b6001600160a01b038216610a895760405162461bcd60e51b815260206004820152601e60248201527f4b4950373a206d696e7420746f20746865207a65726f2061646472657373000060448201526064016104f7565b8060026000828254610a9b919061117c565b90915550506001600160a01b03821660009081526020819052604081208054839290610ac890849061117c565b90915550506040518181526001600160a01b038316906000907fddf252ad1be2c89b69c2b068fc378daa952ba7f163c4a11628f55a4df523b3ef9060200160405180910390a35050565b610b1d848484610869565b610b2984848484610d22565b61049b5760405162461bcd60e51b815260206004820152602f60248201527f4b4950373a207472616e7366657220746f206e6f6e20494b495037526563656960448201526e3b32b91034b6b83632b6b2b73a32b960891b60648201526084016104f7565b600580546001600160a01b038381166001600160a01b0319831681179093556040519116919082907f8be0079c531659141344cd1fd0a4f28419497f9722a3daafe3b4186f6b6457e090600090a35050565b6001600160a01b038216610c355760405162461bcd60e51b815260206004820181905260248201527f4b4950373a206275726e2066726f6d20746865207a65726f206164647265737360448201526064016104f7565b6001600160a01b03821660009081526020819052604090205481811015610ca85760405162461bcd60e51b815260206004820152602160248201527f4b4950373a206275726e20616d6f756e7420657863656564732062616c616e636044820152606560f81b60648201526084016104f7565b6001600160a01b0383166000908152602081905260408120838303905560028054849290610cd7908490611194565b90915550506040518281526000906001600160a01b038516907fddf252ad1be2c89b69c2b068fc378daa952ba7f163c4a11628f55a4df523b3ef9060200160405180910390a3505050565b60006001600160a01b0384163b1561040d57604051634e8c461160e11b81526001600160a01b03851690639d188c2290610d669033908990889088906004016111ab565b6020604051808303816000875af1925050508015610da1575060408051601f3d908101601f19168201909252610d9e918101906111e8565b60015b610e42573d808015610dcf576040519150601f19603f3d011682016040523d82523d6000602084013e610dd4565b606091505b508051610e3a5760405162461bcd60e51b815260206004820152602e60248201527f4b4950373a207472616e7366657220746f206e6f6e204b49503752656365697660448201526d32b91034b6b83632b6b2b73a32b960911b60648201526084016104f7565b805181602001fd5b6001600160e01b031916634e8c461160e11b149050949350505050565b6001600160e01b0319811681146106cf57600080fd5b600060208284031215610e8757600080fd5b8135610e9281610e5f565b9392505050565b6000815180845260005b81811015610ebf57602081850181015186830182015201610ea3565b81811115610ed1576000602083870101525b50601f01601f19169290920160200192915050565b602081526000610e926020830184610e99565b80356001600160a01b0381168114610f1057600080fd5b919050565b60008060408385031215610f2857600080fd5b610f3183610ef9565b946020939093013593505050565b600080600060608486031215610f5457600080fd5b610f5d84610ef9565b9250610f6b60208501610ef9565b9150604084013590509250925092565b600060208284031215610f8d57600080fd5b610e9282610ef9565b634e487b7160e01b600052604160045260246000fd5b600082601f830112610fbd57600080fd5b813567ffffffffffffffff80821115610fd857610fd8610f96565b604051601f8301601f19908116603f0116810190828211818310171561100057611000610f96565b8160405283815286602085880101111561101957600080fd5b836020870160208301376000602085830101528094505050505092915050565b6000806000806080858703121561104f57600080fd5b61105885610ef9565b935061106660208601610ef9565b925060408501359150606085013567ffffffffffffffff81111561108957600080fd5b61109587828801610fac565b91505092959194509250565b600080604083850312156110b457600080fd5b6110bd83610ef9565b91506110cb60208401610ef9565b90509250929050565b6000806000606084860312156110e957600080fd5b6110f284610ef9565b925060208401359150604084013567ffffffffffffffff81111561111557600080fd5b61112186828701610fac565b9150509250925092565b600181811c9082168061113f57607f821691505b6020821081141561116057634e487b7160e01b600052602260045260246000fd5b50919050565b634e487b7160e01b600052601160045260246000fd5b6000821982111561118f5761118f611166565b500190565b6000828210156111a6576111a6611166565b500390565b6001600160a01b03858116825284166020820152604081018390526080606082018190526000906111de90830184610e99565b9695505050505050565b6000602082840312156111fa57600080fd5b8151610e9281610e5f56fea264697066735822122077c9648cc1889aaa8d938f4cc07c7b596d6bb2be3209d4a49cd7678a5b8c63cc64736f6c634300080c0033",
  "linkReferences": {},
  "deployedLinkReferences": {}
}