{
  "_format": "hh-sol-artifact-1",
  "contractName": "DexKIP7Test",
  "sourceName": "contracts/mocks/DexKIP7Test.sol",
  "abi": [
    {
      "inputs": [
        {
          "internalType": "uint256",
          "name": "_totalSupply",
          "type": "uint256"
        }
      ],
      "stateMutability": "nonpayable",
      "type": "constructor"
    },
    {
      "anonymous": false,
      "inputs": [
        {
          "indexed": true,
          "internalType": "address",
          "name": "owner",
          "type": "address"
        },
        {
          "indexed": true,
          "internalType": "address",
          "name": "spender",
          "type": "address"
        },
        {
          "indexed": false,
          "internalType": "uint256",
          "name": "value",
          "type": "uint256"
        }
      ],
      "name": "Approval",
      "type": "event"
    },
    {
      "anonymous": false,
      "inputs": [
        {
          "indexed": true,
          "internalType": "address",
          "name": "from",
          "type": "address"
        },
        {
          "indexed": true,
          "internalType": "address",
          "name": "to",
          "type": "address"
        },
        {
          "indexed": false,
          "internalType": "uint256",
          "name": "value",
          "type": "uint256"
        }
      ],
      "name": "Transfer",
      "type": "event"
    },
    {
      "inputs": [],
      "name": "DOMAIN_SEPARATOR",
      "outputs": [
        {
          "internalType": "bytes32",
          "name": "",
          "type": "bytes32"
        }
      ],
      "stateMutability": "view",
      "type": "function"
    },
    {
      "inputs": [],
      "name": "PERMIT_TYPEHASH",
      "outputs": [
        {
          "internalType": "bytes32",
          "name": "",
          "type": "bytes32"
        }
      ],
      "stateMutability": "view",
      "type": "function"
    },
    {
      "inputs": [
        {
          "internalType": "address",
          "name": "",
          "type": "address"
        },
        {
          "internalType": "address",
          "name": "",
          "type": "address"
        }
      ],
      "name": "allowance",
      "outputs": [
        {
          "internalType": "uint256",
          "name": "",
          "type": "uint256"
        }
      ],
      "stateMutability": "view",
      "type": "function"
    },
    {
      "inputs": [
        {
          "internalType": "address",
          "name": "spender",
          "type": "address"
        },
        {
          "internalType": "uint256",
          "name": "amount",
          "type": "uint256"
        }
      ],
      "name": "approve",
      "outputs": [
        {
          "internalType": "bool",
          "name": "",
          "type": "bool"
        }
      ],
      "stateMutability": "nonpayable",
      "type": "function"
    },
    {
      "inputs": [
        {
          "internalType": "address",
          "name": "",
          "type": "address"
        }
      ],
      "name": "balanceOf",
      "outputs": [
        {
          "internalType": "uint256",
          "name": "",
          "type": "uint256"
        }
      ],
      "stateMutability": "view",
      "type": "function"
    },
    {
      "inputs": [],
      "name": "decimals",
      "outputs": [
        {
          "internalType": "uint8",
          "name": "",
          "type": "uint8"
        }
      ],
      "stateMutability": "view",
      "type": "function"
    },
    {
      "inputs": [],
      "name": "name",
      "outputs": [
        {
          "internalType": "string",
          "name": "",
          "type": "string"
        }
      ],
      "stateMutability": "view",
      "type": "function"
    },
    {
      "inputs": [
        {
          "internalType": "address",
          "name": "",
          "type": "address"
        }
      ],
      "name": "nonces",
      "outputs": [
        {
          "internalType": "uint256",
          "name": "",
          "type": "uint256"
        }
      ],
      "stateMutability": "view",
      "type": "function"
    },
    {
      "inputs": [
        {
          "internalType": "address",
          "name": "owner",
          "type": "address"
        },
        {
          "internalType": "address",
          "name": "spender",
          "type": "address"
        },
        {
          "internalType": "uint256",
          "name": "value",
          "type": "uint256"
        },
        {
          "internalType": "uint256",
          "name": "deadline",
          "type": "uint256"
        },
        {
          "internalType": "uint8",
          "name": "v",
          "type": "uint8"
        },
        {
          "internalType": "bytes32",
          "name": "r",
          "type": "bytes32"
        },
        {
          "internalType": "bytes32",
          "name": "s",
          "type": "bytes32"
        }
      ],
      "name": "permit",
      "outputs": [],
      "stateMutability": "nonpayable",
      "type": "function"
    },
    {
      "inputs": [
        {
          "internalType": "address",
          "name": "recipient",
          "type": "address"
        },
        {
          "internalType": "uint256",
          "name": "amount",
          "type": "uint256"
        }
      ],
      "name": "safeTransfer",
      "outputs": [],
      "stateMutability": "nonpayable",
      "type": "function"
    },
    {
      "inputs": [
        {
          "internalType": "address",
          "name": "recipient",
          "type": "address"
        },
        {
          "internalType": "uint256",
          "name": "amount",
          "type": "uint256"
        },
        {
          "internalType": "bytes",
          "name": "data",
          "type": "bytes"
        }
      ],
      "name": "safeTransfer",
      "outputs": [],
      "stateMutability": "nonpayable",
      "type": "function"
    },
    {
      "inputs": [
        {
          "internalType": "address",
          "name": "sender",
          "type": "address"
        },
        {
          "internalType": "address",
          "name": "recipient",
          "type": "address"
        },
        {
          "internalType": "uint256",
          "name": "amount",
          "type": "uint256"
        }
      ],
      "name": "safeTransferFrom",
      "outputs": [],
      "stateMutability": "nonpayable",
      "type": "function"
    },
    {
      "inputs": [
        {
          "internalType": "address",
          "name": "sender",
          "type": "address"
        },
        {
          "internalType": "address",
          "name": "recipient",
          "type": "address"
        },
        {
          "internalType": "uint256",
          "name": "amount",
          "type": "uint256"
        },
        {
          "internalType": "bytes",
          "name": "data",
          "type": "bytes"
        }
      ],
      "name": "safeTransferFrom",
      "outputs": [],
      "stateMutability": "nonpayable",
      "type": "function"
    },
    {
      "inputs": [
        {
          "internalType": "bytes4",
          "name": "interfaceId",
          "type": "bytes4"
        }
      ],
      "name": "supportsInterface",
      "outputs": [
        {
          "internalType": "bool",
          "name": "",
          "type": "bool"
        }
      ],
      "stateMutability": "view",
      "type": "function"
    },
    {
      "inputs": [],
      "name": "symbol",
      "outputs": [
        {
          "internalType": "string",
          "name": "",
          "type": "string"
        }
      ],
      "stateMutability": "view",
      "type": "function"
    },
    {
      "inputs": [],
      "name": "totalSupply",
      "outputs": [
        {
          "internalType": "uint256",
          "name": "",
          "type": "uint256"
        }
      ],
      "stateMutability": "view",
      "type": "function"
    },
    {
      "inputs": [
        {
          "internalType": "address",
          "name": "to",
          "type": "address"
        },
        {
          "internalType": "uint256",
          "name": "amount",
          "type": "uint256"
        }
      ],
      "name": "transfer",
      "outputs": [
        {
          "internalType": "bool",
          "name": "",
          "type": "bool"
        }
      ],
      "stateMutability": "nonpayable",
      "type": "function"
    },
    {
      "inputs": [
        {
          "internalType": "address",
          "name": "from",
          "type": "address"
        },
        {
          "internalType": "address",
          "name": "to",
          "type": "address"
        },
        {
          "internalType": "uint256",
          "name": "amount",
          "type": "uint256"
        }
      ],
      "name": "transferFrom",
      "outputs": [
        {
          "internalType": "bool",
          "name": "",
          "type": "bool"
        }
      ],
      "stateMutability": "nonpayable",
      "type": "function"
    }
  ],
  "bytecode": "0x60a06040523480156200001157600080fd5b506040516200125338038062001253833981016040819052620000349162000192565b60405146907f8b73c3c69bb8fe3d512ecc4cf759cc79239f7b179b0ffacaa9a75d522b39400f906200006990600090620001ac565b60408051918290038220828201825260018352603160f81b6020938401528151928301939093528101919091527fc89efdaa54c0f20c7adf612882df0950f5a951637e0307cdcb4c672f298b8bc66060820152608081018290523060a082015260c00160408051601f19818403018152919052805160209091012060805250620000f43382620000fb565b5062000277565b806001546200010b919062000250565b6001556001600160a01b0382166000908152600260205260409020546200013490829062000250565b6001600160a01b0383166000818152600260205260408082209390935591519091907fddf252ad1be2c89b69c2b068fc378daa952ba7f163c4a11628f55a4df523b3ef90620001869085815260200190565b60405180910390a35050565b600060208284031215620001a557600080fd5b5051919050565b600080835481600182811c915080831680620001c957607f831692505b6020808410821415620001ea57634e487b7160e01b86526022600452602486fd5b818015620002015760018114620002135762000242565b60ff1986168952848901965062000242565b60008a81526020902060005b868110156200023a5781548b8201529085019083016200021f565b505084890196505b509498975050505050505050565b600082198211156200027257634e487b7160e01b600052601160045260246000fd5b500190565b608051610fb96200029a600039600081816101db01526106830152610fb96000f3fe608060405234801561001057600080fd5b50600436106101165760003560e01c806342842e0e116100a2578063a9059cbb11610071578063a9059cbb1461028b578063b88d4fde1461029e578063d505accf146102b1578063dd62ed3e146102c4578063eb795549146102ef57600080fd5b806342842e0e1461021257806370a08231146102255780637ecebe001461024557806395d89b411461026557600080fd5b806323b872dd116100e957806323b872dd1461018257806330adf81f14610195578063313ce567146101bc5780633644e515146101d6578063423f6cef146101fd57600080fd5b806301ffc9a71461011b57806306fdde0314610143578063095ea7b31461015857806318160ddd1461016b575b600080fd5b61012e610129366004610ad5565b610302565b60405190151581526020015b60405180910390f35b61014b610354565b60405161013a9190610b46565b61012e610166366004610b75565b6103e2565b61017460015481565b60405190815260200161013a565b61012e610190366004610b9f565b6103f8565b6101747f6e71edae12b1b97f4d1f60370fef10105fa2faae0126114a169c64845d6126c981565b6101c4601281565b60405160ff909116815260200161013a565b6101747f000000000000000000000000000000000000000000000000000000000000000081565b61021061020b366004610b75565b61046a565b005b610210610220366004610b9f565b610488565b610174610233366004610bdb565b60026020526000908152604090205481565b610174610253366004610bdb565b60046020526000908152604090205481565b61014b604051806040016040528060078152602001660594445582d4c560cc1b81525081565b61012e610299366004610b75565b6104a8565b6102106102ac366004610c99565b6104b5565b6102106102bf366004610d01565b610628565b6101746102d2366004610d74565b600360209081526000928352604080842090915290825290205481565b6102106102fd366004610da7565b61084a565b60006001600160e01b03198216636578737160e01b148061033357506001600160e01b0319821663a219a02560e01b145b8061034e57506301ffc9a760e01b6001600160e01b03198316145b92915050565b6000805461036190610dfe565b80601f016020809104026020016040519081016040528092919081815260200182805461038d90610dfe565b80156103da5780601f106103af576101008083540402835291602001916103da565b820191906000526020600020905b8154815290600101906020018083116103bd57829003601f168201915b505050505081565b60006103ef3384846108a3565b50600192915050565b6001600160a01b038316600090815260036020908152604080832033845290915281205460001981146104545761042f8382610e4f565b6001600160a01b03861660009081526003602090815260408083203384529091529020555b61045f858585610904565b506001949350505050565b61048482826040518060200160405280600081525061084a565b5050565b6104a3838383604051806020016040528060008152506104b5565b505050565b60006103ef338484610904565b6001600160a01b03841661051c5760405162461bcd60e51b8152602060048201526024808201527f4b4950373a207472616e736665722066726f6d20746865207a65726f206164646044820152637265737360e01b60648201526084015b60405180910390fd5b6001600160a01b0383166105425760405162461bcd60e51b815260040161051390610e66565b6001600160a01b038416600090815260036020908152604080832033845290915290205460001981146105ee57828110156105bf5760405162461bcd60e51b815260206004820152601c60248201527f4b4950373a20696e73756666696369656e7420616c6c6f77616e6365000000006044820152606401610513565b6105c98382610e4f565b6001600160a01b03861660009081526003602090815260408083203384529091529020555b6105f9858585610904565b61060585858585610a0c565b6106215760405162461bcd60e51b815260040161051390610ea8565b5050505050565b428410156106675760405162461bcd60e51b815260206004820152600c60248201526b1111560e881156141254915160a21b6044820152606401610513565b6001600160a01b038716600090815260046020526040812080547f0000000000000000000000000000000000000000000000000000000000000000917f6e71edae12b1b97f4d1f60370fef10105fa2faae0126114a169c64845d6126c9918b918b918b91876106d583610ef6565b909155506040805160208101969096526001600160a01b0394851690860152929091166060840152608083015260a082015260c0810187905260e0016040516020818303038152906040528051906020012060405160200161074e92919061190160f01b81526002810192909252602282015260420190565b60408051601f198184030181528282528051602091820120600080855291840180845281905260ff88169284019290925260608301869052608083018590529092509060019060a0016020604051602081039080840390855afa1580156107b9573d6000803e3d6000fd5b5050604051601f1901519150506001600160a01b038116158015906107ef5750886001600160a01b0316816001600160a01b0316145b6108345760405162461bcd60e51b81526020600482015260166024820152754445583a20494e56414c49445f5349474e415455524560501b6044820152606401610513565b61083f8989896108a3565b505050505050505050565b6001600160a01b0383166108705760405162461bcd60e51b815260040161051390610e66565b61087b338484610904565b61088733848484610a0c565b6104a35760405162461bcd60e51b815260040161051390610ea8565b6001600160a01b0383811660008181526003602090815260408083209487168084529482529182902085905590518481527f8c5be1e5ebec7d5bd14f71427d1e84f3dd0314c0f7b2291e5b200ac8c7c3b925910160405180910390a3505050565b6001600160a01b0383166000908152600260205260409020548181101561097b5760405162461bcd60e51b815260206004820152602560248201527f4b4950373a207472616e7366657220616d6f756e7420657863656564732062616044820152646c616e636560d81b6064820152608401610513565b6001600160a01b038085166000908152600260205260408082208585039055918516815290812080548492906109b2908490610f11565b92505081905550826001600160a01b0316846001600160a01b03167fddf252ad1be2c89b69c2b068fc378daa952ba7f163c4a11628f55a4df523b3ef846040516109fe91815260200190565b60405180910390a350505050565b60006001600160a01b0384163b610a2557506001610ab4565b604051634e8c461160e11b81526000906001600160a01b03861690639d188c2290610a5a9033908a9089908990600401610f29565b6020604051808303816000875af1158015610a79573d6000803e3d6000fd5b505050506040513d601f19601f82011682018060405250810190610a9d9190610f66565b6001600160e01b031916634e8c461160e11b149150505b949350505050565b6001600160e01b031981168114610ad257600080fd5b50565b600060208284031215610ae757600080fd5b8135610af281610abc565b9392505050565b6000815180845260005b81811015610b1f57602081850181015186830182015201610b03565b81811115610b31576000602083870101525b50601f01601f19169290920160200192915050565b602081526000610af26020830184610af9565b80356001600160a01b0381168114610b7057600080fd5b919050565b60008060408385031215610b8857600080fd5b610b9183610b59565b946020939093013593505050565b600080600060608486031215610bb457600080fd5b610bbd84610b59565b9250610bcb60208501610b59565b9150604084013590509250925092565b600060208284031215610bed57600080fd5b610af282610b59565b634e487b7160e01b600052604160045260246000fd5b600082601f830112610c1d57600080fd5b813567ffffffffffffffff80821115610c3857610c38610bf6565b604051601f8301601f19908116603f01168101908282118183101715610c6057610c60610bf6565b81604052838152866020858801011115610c7957600080fd5b836020870160208301376000602085830101528094505050505092915050565b60008060008060808587031215610caf57600080fd5b610cb885610b59565b9350610cc660208601610b59565b925060408501359150606085013567ffffffffffffffff811115610ce957600080fd5b610cf587828801610c0c565b91505092959194509250565b600080600080600080600060e0888a031215610d1c57600080fd5b610d2588610b59565b9650610d3360208901610b59565b95506040880135945060608801359350608088013560ff81168114610d5757600080fd5b9699959850939692959460a0840135945060c09093013592915050565b60008060408385031215610d8757600080fd5b610d9083610b59565b9150610d9e60208401610b59565b90509250929050565b600080600060608486031215610dbc57600080fd5b610dc584610b59565b925060208401359150604084013567ffffffffffffffff811115610de857600080fd5b610df486828701610c0c565b9150509250925092565b600181811c90821680610e1257607f821691505b60208210811415610e3357634e487b7160e01b600052602260045260246000fd5b50919050565b634e487b7160e01b600052601160045260246000fd5b600082821015610e6157610e61610e39565b500390565b60208082526022908201527f4b4950373a207472616e7366657220746f20746865207a65726f206164647265604082015261737360f01b606082015260800190565b6020808252602e908201527f4b4950373a207472616e7366657220746f206e6f6e204b49503752656365697660408201526d32b91034b6b83632b6b2b73a32b960911b606082015260800190565b6000600019821415610f0a57610f0a610e39565b5060010190565b60008219821115610f2457610f24610e39565b500190565b6001600160a01b0385811682528416602082015260408101839052608060608201819052600090610f5c90830184610af9565b9695505050505050565b600060208284031215610f7857600080fd5b8151610af281610abc56fea2646970667358221220b02483815ac119795610d4450a011e74b61f25d421b0820f1f086b838a1625ba64736f6c634300080c0033",
  "linkReferences": {},
  "deployedLinkReferences": {}
}