{
	"data": {
		"bytecode": {
			"linkReferences": {},
			"object": "608060405234801561001057600080fd5b50604051610b12380380610b1283398101604081905261002f91610054565b600380546001600160a01b0319166001600160a01b0392909216919091179055610084565b60006020828403121561006657600080fd5b81516001600160a01b038116811461007d57600080fd5b9392505050565b610a7f806100936000396000f3fe6080604052600436106100705760003560e01c806385dba8611161004e57806385dba861146100fa5780638a72ea6a1461010d578063ac307773146101a9578063ef706adf146101be57610070565b806305b7cdd3146100825780631115c24d146100a45780638387c6e1146100cd575b34801561007c57600080fd5b50600080fd5b34801561008e57600080fd5b506100a261009d366004610995565b6101de565b005b3480156100b057600080fd5b506100ba60005481565b6040519081526020015b60405180910390f35b3480156100d957600080fd5b506100ba6100e83660046109b7565b60026020526000908152604090205481565b6100a26101083660046109e7565b61035e565b34801561011957600080fd5b5061016c6101283660046109e7565b60016020819052600091825260409091208054918101546002820154600383015460049093015491926001600160a01b039091169160ff8082169161010090041686565b6040805196875260208701959095526001600160a01b039093169385019390935260608401529015156080830152151560a082015260c0016100c4565b3480156101b557600080fd5b506100a261064a565b3480156101ca57600080fd5b506100a26101d93660046109e7565b610744565b6003546040516323b872dd60e01b8152336004820152306024820152604481018490526001600160a01b03909116906323b872dd90606401600060405180830381600087803b15801561023057600080fd5b505af1158015610244573d6000803e3d6000fd5b505060008054925090508061025883610a16565b90915550506040805160c080820183526000805480845260208085018881523386880181815260608089018b81526080808b0189815260a0808d018b8152998b526001808a528e8c209d518e559751978d0197909755935160028c0180546001600160a01b0319166001600160a01b03909216919091179055905160038b0155915160049099018054965161ffff1990971699151561ff001916999099176101009615159690960295909517909755845488519081529283018a905296820196909652908101869052928301819052928201929092527f93e711896d4ef527d199d7e101922e20f918cbb248a0fb0977c52fda24aa1f1d91015b60405180910390a15050565b6000818152600160205260409020805482146103b85760405162461bcd60e51b8152602060048201526014602482015273151a19481bd999995c881b5d5cdd08195e1a5cdd60621b60448201526064015b60405180910390fd5b60028101546001600160a01b03163314156104235760405162461bcd60e51b815260206004820152602560248201527f546865206f776e6572206f6620746865206f666665722063616e6e6f742066696044820152641b1b081a5d60da1b60648201526084016103af565b600481015460ff16156104835760405162461bcd60e51b815260206004820152602260248201527f416e206f666665722063616e6e6f742062652066756c66696c6c656420747769604482015261636560f01b60648201526084016103af565b6004810154610100900460ff16156104eb5760405162461bcd60e51b815260206004820152602560248201527f412063616e63656c6c6564206f666665722063616e6e6f742062652066756c666044820152641a5b1b195960da1b60648201526084016103af565b806003015434146105555760405162461bcd60e51b815260206004820152602e60248201527f5468652045544820616d6f756e742073686f756c64206d61746368207769746860448201526d20746865204e465420507269636560901b60648201526084016103af565b60035460018201546040516323b872dd60e01b815230600482015233602482015260448101919091526001600160a01b03909116906323b872dd90606401600060405180830381600087803b1580156105ad57600080fd5b505af11580156105c1573d6000803e3d6000fd5b50505060048201805460ff19166001179055506002808201546001600160a01b03166000908152602091909152604081208054349290610602908490610a31565b9091555050600181015460408051848152602081019290925233908201527fd9157c065213ada613694e84b1e27fe2efd62d85c6b82bd6c842a4999491e72a90606001610352565b336000908152600260205260409020546106b25760405162461bcd60e51b8152602060048201526024808201527f54686973207573657220686173206e6f2066756e647320746f20626520636c616044820152631a5b595960e21b60648201526084016103af565b3360008181526002602052604080822054905181156108fc0292818181858888f193505050501580156106e9573d6000803e3d6000fd5b5033600081815260026020908152604091829020548251938452908301527f4f0554190111f93f8c2ccef2cc41473f187d7f29ff5a5c308ca41f9dfe4e989a910160405180910390a133600090815260026020526040812055565b6000818152600160205260409020805482146107995760405162461bcd60e51b8152602060048201526014602482015273151a19481bd999995c881b5d5cdd08195e1a5cdd60621b60448201526064016103af565b60028101546001600160a01b031633146108095760405162461bcd60e51b815260206004820152602b60248201527f546865206f666665722063616e206f6e6c792062652063616e63656c6564206260448201526a3c903a34329037bbb732b960a91b60648201526084016103af565b600481015460ff161561086c5760405162461bcd60e51b815260206004820152602560248201527f412066756c66696c6c6564206f666665722063616e6e6f742062652063616e63604482015264195b1b195960da1b60648201526084016103af565b6004810154610100900460ff16156108d15760405162461bcd60e51b815260206004820152602260248201527f416e206f666665722063616e6e6f742062652063616e63656c6c656420747769604482015261636560f01b60648201526084016103af565b60035460018201546040516323b872dd60e01b815230600482015233602482015260448101919091526001600160a01b03909116906323b872dd90606401600060405180830381600087803b15801561092957600080fd5b505af115801561093d573d6000803e3d6000fd5b5050505060048101805461ff001916610100179055600181015460408051848152602081019290925233908201527f5b166b4d0498ff8c4719999cb6154c5d197e6f020f9fbfcf9d347f84576cfab790606001610352565b600080604083850312156109a857600080fd5b50508035926020909101359150565b6000602082840312156109c957600080fd5b81356001600160a01b03811681146109e057600080fd5b9392505050565b6000602082840312156109f957600080fd5b5035919050565b634e487b7160e01b600052601160045260246000fd5b6000600019821415610a2a57610a2a610a00565b5060010190565b60008219821115610a4457610a44610a00565b50019056fea2646970667358221220dd294b2c263ae0344a0d374b5ecd9b121a5fd23778092396d71b3fb90f317a1f64736f6c634300080c0033",
			"opcodes": "PUSH1 0x80 PUSH1 0x40 MSTORE CALLVALUE DUP1 ISZERO PUSH2 0x10 JUMPI PUSH1 0x0 DUP1 REVERT JUMPDEST POP PUSH1 0x40 MLOAD PUSH2 0xB12 CODESIZE SUB DUP1 PUSH2 0xB12 DUP4 CODECOPY DUP2 ADD PUSH1 0x40 DUP2 SWAP1 MSTORE PUSH2 0x2F SWAP2 PUSH2 0x54 JUMP JUMPDEST PUSH1 0x3 DUP1 SLOAD PUSH1 0x1 PUSH1 0x1 PUSH1 0xA0 SHL SUB NOT AND PUSH1 0x1 PUSH1 0x1 PUSH1 0xA0 SHL SUB SWAP3 SWAP1 SWAP3 AND SWAP2 SWAP1 SWAP2 OR SWAP1 SSTORE PUSH2 0x84 JUMP JUMPDEST PUSH1 0x0 PUSH1 0x20 DUP3 DUP5 SUB SLT ISZERO PUSH2 0x66 JUMPI PUSH1 0x0 DUP1 REVERT JUMPDEST DUP2 MLOAD PUSH1 0x1 PUSH1 0x1 PUSH1 0xA0 SHL SUB DUP2 AND DUP2 EQ PUSH2 0x7D JUMPI PUSH1 0x0 DUP1 REVERT JUMPDEST SWAP4 SWAP3 POP POP POP JUMP JUMPDEST PUSH2 0xA7F DUP1 PUSH2 0x93 PUSH1 0x0 CODECOPY PUSH1 0x0 RETURN INVALID PUSH1 0x80 PUSH1 0x40 MSTORE PUSH1 0x4 CALLDATASIZE LT PUSH2 0x70 JUMPI PUSH1 0x0 CALLDATALOAD PUSH1 0xE0 SHR DUP1 PUSH4 0x85DBA861 GT PUSH2 0x4E JUMPI DUP1 PUSH4 0x85DBA861 EQ PUSH2 0xFA JUMPI DUP1 PUSH4 0x8A72EA6A EQ PUSH2 0x10D JUMPI DUP1 PUSH4 0xAC307773 EQ PUSH2 0x1A9 JUMPI DUP1 PUSH4 0xEF706ADF EQ PUSH2 0x1BE JUMPI PUSH2 0x70 JUMP JUMPDEST DUP1 PUSH4 0x5B7CDD3 EQ PUSH2 0x82 JUMPI DUP1 PUSH4 0x1115C24D EQ PUSH2 0xA4 JUMPI DUP1 PUSH4 0x8387C6E1 EQ PUSH2 0xCD JUMPI JUMPDEST CALLVALUE DUP1 ISZERO PUSH2 0x7C JUMPI PUSH1 0x0 DUP1 REVERT JUMPDEST POP PUSH1 0x0 DUP1 REVERT JUMPDEST CALLVALUE DUP1 ISZERO PUSH2 0x8E JUMPI PUSH1 0x0 DUP1 REVERT JUMPDEST POP PUSH2 0xA2 PUSH2 0x9D CALLDATASIZE PUSH1 0x4 PUSH2 0x995 JUMP JUMPDEST PUSH2 0x1DE JUMP JUMPDEST STOP JUMPDEST CALLVALUE DUP1 ISZERO PUSH2 0xB0 JUMPI PUSH1 0x0 DUP1 REVERT JUMPDEST POP PUSH2 0xBA PUSH1 0x0 SLOAD DUP2 JUMP JUMPDEST PUSH1 0x40 MLOAD SWAP1 DUP2 MSTORE PUSH1 0x20 ADD JUMPDEST PUSH1 0x40 MLOAD DUP1 SWAP2 SUB SWAP1 RETURN JUMPDEST CALLVALUE DUP1 ISZERO PUSH2 0xD9 JUMPI PUSH1 0x0 DUP1 REVERT JUMPDEST POP PUSH2 0xBA PUSH2 0xE8 CALLDATASIZE PUSH1 0x4 PUSH2 0x9B7 JUMP JUMPDEST PUSH1 0x2 PUSH1 0x20 MSTORE PUSH1 0x0 SWAP1 DUP2 MSTORE PUSH1 0x40 SWAP1 KECCAK256 SLOAD DUP2 JUMP JUMPDEST PUSH2 0xA2 PUSH2 0x108 CALLDATASIZE PUSH1 0x4 PUSH2 0x9E7 JUMP JUMPDEST PUSH2 0x35E JUMP JUMPDEST CALLVALUE DUP1 ISZERO PUSH2 0x119 JUMPI PUSH1 0x0 DUP1 REVERT JUMPDEST POP PUSH2 0x16C PUSH2 0x128 CALLDATASIZE PUSH1 0x4 PUSH2 0x9E7 JUMP JUMPDEST PUSH1 0x1 PUSH1 0x20 DUP2 SWAP1 MSTORE PUSH1 0x0 SWAP2 DUP3 MSTORE PUSH1 0x40 SWAP1 SWAP2 KECCAK256 DUP1 SLOAD SWAP2 DUP2 ADD SLOAD PUSH1 0x2 DUP3 ADD SLOAD PUSH1 0x3 DUP4 ADD SLOAD PUSH1 0x4 SWAP1 SWAP4 ADD SLOAD SWAP2 SWAP3 PUSH1 0x1 PUSH1 0x1 PUSH1 0xA0 SHL SUB SWAP1 SWAP2 AND SWAP2 PUSH1 0xFF DUP1 DUP3 AND SWAP2 PUSH2 0x100 SWAP1 DIV AND DUP7 JUMP JUMPDEST PUSH1 0x40 DUP1 MLOAD SWAP7 DUP8 MSTORE PUSH1 0x20 DUP8 ADD SWAP6 SWAP1 SWAP6 MSTORE PUSH1 0x1 PUSH1 0x1 PUSH1 0xA0 SHL SUB SWAP1 SWAP4 AND SWAP4 DUP6 ADD SWAP4 SWAP1 SWAP4 MSTORE PUSH1 0x60 DUP5 ADD MSTORE SWAP1 ISZERO ISZERO PUSH1 0x80 DUP4 ADD MSTORE ISZERO ISZERO PUSH1 0xA0 DUP3 ADD MSTORE PUSH1 0xC0 ADD PUSH2 0xC4 JUMP JUMPDEST CALLVALUE DUP1 ISZERO PUSH2 0x1B5 JUMPI PUSH1 0x0 DUP1 REVERT JUMPDEST POP PUSH2 0xA2 PUSH2 0x64A JUMP JUMPDEST CALLVALUE DUP1 ISZERO PUSH2 0x1CA JUMPI PUSH1 0x0 DUP1 REVERT JUMPDEST POP PUSH2 0xA2 PUSH2 0x1D9 CALLDATASIZE PUSH1 0x4 PUSH2 0x9E7 JUMP JUMPDEST PUSH2 0x744 JUMP JUMPDEST PUSH1 0x3 SLOAD PUSH1 0x40 MLOAD PUSH4 0x23B872DD PUSH1 0xE0 SHL DUP2 MSTORE CALLER PUSH1 0x4 DUP3 ADD MSTORE ADDRESS PUSH1 0x24 DUP3 ADD MSTORE PUSH1 0x44 DUP2 ADD DUP5 SWAP1 MSTORE PUSH1 0x1 PUSH1 0x1 PUSH1 0xA0 SHL SUB SWAP1 SWAP2 AND SWAP1 PUSH4 0x23B872DD SWAP1 PUSH1 0x64 ADD PUSH1 0x0 PUSH1 0x40 MLOAD DUP1 DUP4 SUB DUP2 PUSH1 0x0 DUP8 DUP1 EXTCODESIZE ISZERO DUP1 ISZERO PUSH2 0x230 JUMPI PUSH1 0x0 DUP1 REVERT JUMPDEST POP GAS CALL ISZERO DUP1 ISZERO PUSH2 0x244 JUMPI RETURNDATASIZE PUSH1 0x0 DUP1 RETURNDATACOPY RETURNDATASIZE PUSH1 0x0 REVERT JUMPDEST POP POP PUSH1 0x0 DUP1 SLOAD SWAP3 POP SWAP1 POP DUP1 PUSH2 0x258 DUP4 PUSH2 0xA16 JUMP JUMPDEST SWAP1 SWAP2 SSTORE POP POP PUSH1 0x40 DUP1 MLOAD PUSH1 0xC0 DUP1 DUP3 ADD DUP4 MSTORE PUSH1 0x0 DUP1 SLOAD DUP1 DUP5 MSTORE PUSH1 0x20 DUP1 DUP6 ADD DUP9 DUP2 MSTORE CALLER DUP7 DUP9 ADD DUP2 DUP2 MSTORE PUSH1 0x60 DUP1 DUP10 ADD DUP12 DUP2 MSTORE PUSH1 0x80 DUP1 DUP12 ADD DUP10 DUP2 MSTORE PUSH1 0xA0 DUP1 DUP14 ADD DUP12 DUP2 MSTORE SWAP10 DUP12 MSTORE PUSH1 0x1 DUP1 DUP11 MSTORE DUP15 DUP13 KECCAK256 SWAP14 MLOAD DUP15 SSTORE SWAP8 MLOAD SWAP8 DUP14 ADD SWAP8 SWAP1 SWAP8 SSTORE SWAP4 MLOAD PUSH1 0x2 DUP13 ADD DUP1 SLOAD PUSH1 0x1 PUSH1 0x1 PUSH1 0xA0 SHL SUB NOT AND PUSH1 0x1 PUSH1 0x1 PUSH1 0xA0 SHL SUB SWAP1 SWAP3 AND SWAP2 SWAP1 SWAP2 OR SWAP1 SSTORE SWAP1 MLOAD PUSH1 0x3 DUP12 ADD SSTORE SWAP2 MLOAD PUSH1 0x4 SWAP1 SWAP10 ADD DUP1 SLOAD SWAP7 MLOAD PUSH2 0xFFFF NOT SWAP1 SWAP8 AND SWAP10 ISZERO ISZERO PUSH2 0xFF00 NOT AND SWAP10 SWAP1 SWAP10 OR PUSH2 0x100 SWAP7 ISZERO ISZERO SWAP7 SWAP1 SWAP7 MUL SWAP6 SWAP1 SWAP6 OR SWAP1 SWAP8 SSTORE DUP5 SLOAD DUP9 MLOAD SWAP1 DUP2 MSTORE SWAP3 DUP4 ADD DUP11 SWAP1 MSTORE SWAP7 DUP3 ADD SWAP7 SWAP1 SWAP7 MSTORE SWAP1 DUP2 ADD DUP7 SWAP1 MSTORE SWAP3 DUP4 ADD DUP2 SWAP1 MSTORE SWAP3 DUP3 ADD SWAP3 SWAP1 SWAP3 MSTORE PUSH32 0x93E711896D4EF527D199D7E101922E20F918CBB248A0FB0977C52FDA24AA1F1D SWAP2 ADD JUMPDEST PUSH1 0x40 MLOAD DUP1 SWAP2 SUB SWAP1 LOG1 POP POP JUMP JUMPDEST PUSH1 0x0 DUP2 DUP2 MSTORE PUSH1 0x1 PUSH1 0x20 MSTORE PUSH1 0x40 SWAP1 KECCAK256 DUP1 SLOAD DUP3 EQ PUSH2 0x3B8 JUMPI PUSH1 0x40 MLOAD PUSH3 0x461BCD PUSH1 0xE5 SHL DUP2 MSTORE PUSH1 0x20 PUSH1 0x4 DUP3 ADD MSTORE PUSH1 0x14 PUSH1 0x24 DUP3 ADD MSTORE PUSH20 0x151A19481BD999995C881B5D5CDD08195E1A5CDD PUSH1 0x62 SHL PUSH1 0x44 DUP3 ADD MSTORE PUSH1 0x64 ADD JUMPDEST PUSH1 0x40 MLOAD DUP1 SWAP2 SUB SWAP1 REVERT JUMPDEST PUSH1 0x2 DUP2 ADD SLOAD PUSH1 0x1 PUSH1 0x1 PUSH1 0xA0 SHL SUB AND CALLER EQ ISZERO PUSH2 0x423 JUMPI PUSH1 0x40 MLOAD PUSH3 0x461BCD PUSH1 0xE5 SHL DUP2 MSTORE PUSH1 0x20 PUSH1 0x4 DUP3 ADD MSTORE PUSH1 0x25 PUSH1 0x24 DUP3 ADD MSTORE PUSH32 0x546865206F776E6572206F6620746865206F666665722063616E6E6F74206669 PUSH1 0x44 DUP3 ADD MSTORE PUSH5 0x1B1B081A5D PUSH1 0xDA SHL PUSH1 0x64 DUP3 ADD MSTORE PUSH1 0x84 ADD PUSH2 0x3AF JUMP JUMPDEST PUSH1 0x4 DUP2 ADD SLOAD PUSH1 0xFF AND ISZERO PUSH2 0x483 JUMPI PUSH1 0x40 MLOAD PUSH3 0x461BCD PUSH1 0xE5 SHL DUP2 MSTORE PUSH1 0x20 PUSH1 0x4 DUP3 ADD MSTORE PUSH1 0x22 PUSH1 0x24 DUP3 ADD MSTORE PUSH32 0x416E206F666665722063616E6E6F742062652066756C66696C6C656420747769 PUSH1 0x44 DUP3 ADD MSTORE PUSH2 0x6365 PUSH1 0xF0 SHL PUSH1 0x64 DUP3 ADD MSTORE PUSH1 0x84 ADD PUSH2 0x3AF JUMP JUMPDEST PUSH1 0x4 DUP2 ADD SLOAD PUSH2 0x100 SWAP1 DIV PUSH1 0xFF AND ISZERO PUSH2 0x4EB JUMPI PUSH1 0x40 MLOAD PUSH3 0x461BCD PUSH1 0xE5 SHL DUP2 MSTORE PUSH1 0x20 PUSH1 0x4 DUP3 ADD MSTORE PUSH1 0x25 PUSH1 0x24 DUP3 ADD MSTORE PUSH32 0x412063616E63656C6C6564206F666665722063616E6E6F742062652066756C66 PUSH1 0x44 DUP3 ADD MSTORE PUSH5 0x1A5B1B1959 PUSH1 0xDA SHL PUSH1 0x64 DUP3 ADD MSTORE PUSH1 0x84 ADD PUSH2 0x3AF JUMP JUMPDEST DUP1 PUSH1 0x3 ADD SLOAD CALLVALUE EQ PUSH2 0x555 JUMPI PUSH1 0x40 MLOAD PUSH3 0x461BCD PUSH1 0xE5 SHL DUP2 MSTORE PUSH1 0x20 PUSH1 0x4 DUP3 ADD MSTORE PUSH1 0x2E PUSH1 0x24 DUP3 ADD MSTORE PUSH32 0x5468652045544820616D6F756E742073686F756C64206D617463682077697468 PUSH1 0x44 DUP3 ADD MSTORE PUSH14 0x20746865204E4654205072696365 PUSH1 0x90 SHL PUSH1 0x64 DUP3 ADD MSTORE PUSH1 0x84 ADD PUSH2 0x3AF JUMP JUMPDEST PUSH1 0x3 SLOAD PUSH1 0x1 DUP3 ADD SLOAD PUSH1 0x40 MLOAD PUSH4 0x23B872DD PUSH1 0xE0 SHL DUP2 MSTORE ADDRESS PUSH1 0x4 DUP3 ADD MSTORE CALLER PUSH1 0x24 DUP3 ADD MSTORE PUSH1 0x44 DUP2 ADD SWAP2 SWAP1 SWAP2 MSTORE PUSH1 0x1 PUSH1 0x1 PUSH1 0xA0 SHL SUB SWAP1 SWAP2 AND SWAP1 PUSH4 0x23B872DD SWAP1 PUSH1 0x64 ADD PUSH1 0x0 PUSH1 0x40 MLOAD DUP1 DUP4 SUB DUP2 PUSH1 0x0 DUP8 DUP1 EXTCODESIZE ISZERO DUP1 ISZERO PUSH2 0x5AD JUMPI PUSH1 0x0 DUP1 REVERT JUMPDEST POP GAS CALL ISZERO DUP1 ISZERO PUSH2 0x5C1 JUMPI RETURNDATASIZE PUSH1 0x0 DUP1 RETURNDATACOPY RETURNDATASIZE PUSH1 0x0 REVERT JUMPDEST POP POP POP PUSH1 0x4 DUP3 ADD DUP1 SLOAD PUSH1 0xFF NOT AND PUSH1 0x1 OR SWAP1 SSTORE POP PUSH1 0x2 DUP1 DUP3 ADD SLOAD PUSH1 0x1 PUSH1 0x1 PUSH1 0xA0 SHL SUB AND PUSH1 0x0 SWAP1 DUP2 MSTORE PUSH1 0x20 SWAP2 SWAP1 SWAP2 MSTORE PUSH1 0x40 DUP2 KECCAK256 DUP1 SLOAD CALLVALUE SWAP3 SWAP1 PUSH2 0x602 SWAP1 DUP5 SWAP1 PUSH2 0xA31 JUMP JUMPDEST SWAP1 SWAP2 SSTORE POP POP PUSH1 0x1 DUP2 ADD SLOAD PUSH1 0x40 DUP1 MLOAD DUP5 DUP2 MSTORE PUSH1 0x20 DUP2 ADD SWAP3 SWAP1 SWAP3 MSTORE CALLER SWAP1 DUP3 ADD MSTORE PUSH32 0xD9157C065213ADA613694E84B1E27FE2EFD62D85C6B82BD6C842A4999491E72A SWAP1 PUSH1 0x60 ADD PUSH2 0x352 JUMP JUMPDEST CALLER PUSH1 0x0 SWAP1 DUP2 MSTORE PUSH1 0x2 PUSH1 0x20 MSTORE PUSH1 0x40 SWAP1 KECCAK256 SLOAD PUSH2 0x6B2 JUMPI PUSH1 0x40 MLOAD PUSH3 0x461BCD PUSH1 0xE5 SHL DUP2 MSTORE PUSH1 0x20 PUSH1 0x4 DUP3 ADD MSTORE PUSH1 0x24 DUP1 DUP3 ADD MSTORE PUSH32 0x54686973207573657220686173206E6F2066756E647320746F20626520636C61 PUSH1 0x44 DUP3 ADD MSTORE PUSH4 0x1A5B5959 PUSH1 0xE2 SHL PUSH1 0x64 DUP3 ADD MSTORE PUSH1 0x84 ADD PUSH2 0x3AF JUMP JUMPDEST CALLER PUSH1 0x0 DUP2 DUP2 MSTORE PUSH1 0x2 PUSH1 0x20 MSTORE PUSH1 0x40 DUP1 DUP3 KECCAK256 SLOAD SWAP1 MLOAD DUP2 ISZERO PUSH2 0x8FC MUL SWAP3 DUP2 DUP2 DUP2 DUP6 DUP9 DUP9 CALL SWAP4 POP POP POP POP ISZERO DUP1 ISZERO PUSH2 0x6E9 JUMPI RETURNDATASIZE PUSH1 0x0 DUP1 RETURNDATACOPY RETURNDATASIZE PUSH1 0x0 REVERT JUMPDEST POP CALLER PUSH1 0x0 DUP2 DUP2 MSTORE PUSH1 0x2 PUSH1 0x20 SWAP1 DUP2 MSTORE PUSH1 0x40 SWAP2 DUP3 SWAP1 KECCAK256 SLOAD DUP3 MLOAD SWAP4 DUP5 MSTORE SWAP1 DUP4 ADD MSTORE PUSH32 0x4F0554190111F93F8C2CCEF2CC41473F187D7F29FF5A5C308CA41F9DFE4E989A SWAP2 ADD PUSH1 0x40 MLOAD DUP1 SWAP2 SUB SWAP1 LOG1 CALLER PUSH1 0x0 SWAP1 DUP2 MSTORE PUSH1 0x2 PUSH1 0x20 MSTORE PUSH1 0x40 DUP2 KECCAK256 SSTORE JUMP JUMPDEST PUSH1 0x0 DUP2 DUP2 MSTORE PUSH1 0x1 PUSH1 0x20 MSTORE PUSH1 0x40 SWAP1 KECCAK256 DUP1 SLOAD DUP3 EQ PUSH2 0x799 JUMPI PUSH1 0x40 MLOAD PUSH3 0x461BCD PUSH1 0xE5 SHL DUP2 MSTORE PUSH1 0x20 PUSH1 0x4 DUP3 ADD MSTORE PUSH1 0x14 PUSH1 0x24 DUP3 ADD MSTORE PUSH20 0x151A19481BD999995C881B5D5CDD08195E1A5CDD PUSH1 0x62 SHL PUSH1 0x44 DUP3 ADD MSTORE PUSH1 0x64 ADD PUSH2 0x3AF JUMP JUMPDEST PUSH1 0x2 DUP2 ADD SLOAD PUSH1 0x1 PUSH1 0x1 PUSH1 0xA0 SHL SUB AND CALLER EQ PUSH2 0x809 JUMPI PUSH1 0x40 MLOAD PUSH3 0x461BCD PUSH1 0xE5 SHL DUP2 MSTORE PUSH1 0x20 PUSH1 0x4 DUP3 ADD MSTORE PUSH1 0x2B PUSH1 0x24 DUP3 ADD MSTORE PUSH32 0x546865206F666665722063616E206F6E6C792062652063616E63656C65642062 PUSH1 0x44 DUP3 ADD MSTORE PUSH11 0x3C903A34329037BBB732B9 PUSH1 0xA9 SHL PUSH1 0x64 DUP3 ADD MSTORE PUSH1 0x84 ADD PUSH2 0x3AF JUMP JUMPDEST PUSH1 0x4 DUP2 ADD SLOAD PUSH1 0xFF AND ISZERO PUSH2 0x86C JUMPI PUSH1 0x40 MLOAD PUSH3 0x461BCD PUSH1 0xE5 SHL DUP2 MSTORE PUSH1 0x20 PUSH1 0x4 DUP3 ADD MSTORE PUSH1 0x25 PUSH1 0x24 DUP3 ADD MSTORE PUSH32 0x412066756C66696C6C6564206F666665722063616E6E6F742062652063616E63 PUSH1 0x44 DUP3 ADD MSTORE PUSH5 0x195B1B1959 PUSH1 0xDA SHL PUSH1 0x64 DUP3 ADD MSTORE PUSH1 0x84 ADD PUSH2 0x3AF JUMP JUMPDEST PUSH1 0x4 DUP2 ADD SLOAD PUSH2 0x100 SWAP1 DIV PUSH1 0xFF AND ISZERO PUSH2 0x8D1 JUMPI PUSH1 0x40 MLOAD PUSH3 0x461BCD PUSH1 0xE5 SHL DUP2 MSTORE PUSH1 0x20 PUSH1 0x4 DUP3 ADD MSTORE PUSH1 0x22 PUSH1 0x24 DUP3 ADD MSTORE PUSH32 0x416E206F666665722063616E6E6F742062652063616E63656C6C656420747769 PUSH1 0x44 DUP3 ADD MSTORE PUSH2 0x6365 PUSH1 0xF0 SHL PUSH1 0x64 DUP3 ADD MSTORE PUSH1 0x84 ADD PUSH2 0x3AF JUMP JUMPDEST PUSH1 0x3 SLOAD PUSH1 0x1 DUP3 ADD SLOAD PUSH1 0x40 MLOAD PUSH4 0x23B872DD PUSH1 0xE0 SHL DUP2 MSTORE ADDRESS PUSH1 0x4 DUP3 ADD MSTORE CALLER PUSH1 0x24 DUP3 ADD MSTORE PUSH1 0x44 DUP2 ADD SWAP2 SWAP1 SWAP2 MSTORE PUSH1 0x1 PUSH1 0x1 PUSH1 0xA0 SHL SUB SWAP1 SWAP2 AND SWAP1 PUSH4 0x23B872DD SWAP1 PUSH1 0x64 ADD PUSH1 0x0 PUSH1 0x40 MLOAD DUP1 DUP4 SUB DUP2 PUSH1 0x0 DUP8 DUP1 EXTCODESIZE ISZERO DUP1 ISZERO PUSH2 0x929 JUMPI PUSH1 0x0 DUP1 REVERT JUMPDEST POP GAS CALL ISZERO DUP1 ISZERO PUSH2 0x93D JUMPI RETURNDATASIZE PUSH1 0x0 DUP1 RETURNDATACOPY RETURNDATASIZE PUSH1 0x0 REVERT JUMPDEST POP POP POP POP PUSH1 0x4 DUP2 ADD DUP1 SLOAD PUSH2 0xFF00 NOT AND PUSH2 0x100 OR SWAP1 SSTORE PUSH1 0x1 DUP2 ADD SLOAD PUSH1 0x40 DUP1 MLOAD DUP5 DUP2 MSTORE PUSH1 0x20 DUP2 ADD SWAP3 SWAP1 SWAP3 MSTORE CALLER SWAP1 DUP3 ADD MSTORE PUSH32 0x5B166B4D0498FF8C4719999CB6154C5D197E6F020F9FBFCF9D347F84576CFAB7 SWAP1 PUSH1 0x60 ADD PUSH2 0x352 JUMP JUMPDEST PUSH1 0x0 DUP1 PUSH1 0x40 DUP4 DUP6 SUB SLT ISZERO PUSH2 0x9A8 JUMPI PUSH1 0x0 DUP1 REVERT JUMPDEST POP POP DUP1 CALLDATALOAD SWAP3 PUSH1 0x20 SWAP1 SWAP2 ADD CALLDATALOAD SWAP2 POP JUMP JUMPDEST PUSH1 0x0 PUSH1 0x20 DUP3 DUP5 SUB SLT ISZERO PUSH2 0x9C9 JUMPI PUSH1 0x0 DUP1 REVERT JUMPDEST DUP2 CALLDATALOAD PUSH1 0x1 PUSH1 0x1 PUSH1 0xA0 SHL SUB DUP2 AND DUP2 EQ PUSH2 0x9E0 JUMPI PUSH1 0x0 DUP1 REVERT JUMPDEST SWAP4 SWAP3 POP POP POP JUMP JUMPDEST PUSH1 0x0 PUSH1 0x20 DUP3 DUP5 SUB SLT ISZERO PUSH2 0x9F9 JUMPI PUSH1 0x0 DUP1 REVERT JUMPDEST POP CALLDATALOAD SWAP2 SWAP1 POP JUMP JUMPDEST PUSH4 0x4E487B71 PUSH1 0xE0 SHL PUSH1 0x0 MSTORE PUSH1 0x11 PUSH1 0x4 MSTORE PUSH1 0x24 PUSH1 0x0 REVERT JUMPDEST PUSH1 0x0 PUSH1 0x0 NOT DUP3 EQ ISZERO PUSH2 0xA2A JUMPI PUSH2 0xA2A PUSH2 0xA00 JUMP JUMPDEST POP PUSH1 0x1 ADD SWAP1 JUMP JUMPDEST PUSH1 0x0 DUP3 NOT DUP3 GT ISZERO PUSH2 0xA44 JUMPI PUSH2 0xA44 PUSH2 0xA00 JUMP JUMPDEST POP ADD SWAP1 JUMP INVALID LOG2 PUSH5 0x6970667358 0x22 SLT KECCAK256 0xDD 0x29 0x4B 0x2C 0x26 GASPRICE 0xE0 CALLVALUE 0x4A 0xD CALLDATACOPY 0x4B 0x5E 0xCD SWAP12 SLT BYTE 0x5F 0xD2 CALLDATACOPY PUSH25 0x92396D71B3FB90F317A1F64736F6C634300080C0033000000 "
		},
		"gasEstimates": {
			"creation": {
				"codeDepositCost": "537400",
				"executionCost": "infinite",
				"totalCost": "infinite"
			},
			"external": {
				"": "171",
				"cancelOffer(uint256)": "infinite",
				"claimFunds()": "infinite",
				"fillOffer(uint256)": "infinite",
				"makeOffer(uint256,uint256)": "infinite",
				"offerCount()": "2307",
				"offers(uint256)": "11108",
				"userFunds(address)": "2518"
			}
		},
		"methodIdentifiers": {
			"cancelOffer(uint256)": "ef706adf",
			"claimFunds()": "ac307773",
			"fillOffer(uint256)": "85dba861",
			"makeOffer(uint256,uint256)": "05b7cdd3",
			"offerCount()": "1115c24d",
			"offers(uint256)": "8a72ea6a",
			"userFunds(address)": "8387c6e1"
		}
	},
	"abi": [
		{
			"inputs": [
				{
					"internalType": "address",
					"name": "_nftCollection",
					"type": "address"
				}
			],
			"stateMutability": "nonpayable",
			"type": "constructor"
		},
		{
			"anonymous": false,
			"inputs": [
				{
					"indexed": false,
					"internalType": "address",
					"name": "user",
					"type": "address"
				},
				{
					"indexed": false,
					"internalType": "uint256",
					"name": "amount",
					"type": "uint256"
				}
			],
			"name": "ClaimFunds",
			"type": "event"
		},
		{
			"anonymous": false,
			"inputs": [
				{
					"indexed": false,
					"internalType": "uint256",
					"name": "offerId",
					"type": "uint256"
				},
				{
					"indexed": false,
					"internalType": "uint256",
					"name": "id",
					"type": "uint256"
				},
				{
					"indexed": false,
					"internalType": "address",
					"name": "user",
					"type": "address"
				},
				{
					"indexed": false,
					"internalType": "uint256",
					"name": "price",
					"type": "uint256"
				},
				{
					"indexed": false,
					"internalType": "bool",
					"name": "fulfilled",
					"type": "bool"
				},
				{
					"indexed": false,
					"internalType": "bool",
					"name": "cancelled",
					"type": "bool"
				}
			],
			"name": "Offer",
			"type": "event"
		},
		{
			"anonymous": false,
			"inputs": [
				{
					"indexed": false,
					"internalType": "uint256",
					"name": "offerId",
					"type": "uint256"
				},
				{
					"indexed": false,
					"internalType": "uint256",
					"name": "id",
					"type": "uint256"
				},
				{
					"indexed": false,
					"internalType": "address",
					"name": "owner",
					"type": "address"
				}
			],
			"name": "OfferCancelled",
			"type": "event"
		},
		{
			"anonymous": false,
			"inputs": [
				{
					"indexed": false,
					"internalType": "uint256",
					"name": "offerId",
					"type": "uint256"
				},
				{
					"indexed": false,
					"internalType": "uint256",
					"name": "id",
					"type": "uint256"
				},
				{
					"indexed": false,
					"internalType": "address",
					"name": "newOwner",
					"type": "address"
				}
			],
			"name": "OfferFilled",
			"type": "event"
		},
		{
			"stateMutability": "nonpayable",
			"type": "fallback"
		},
		{
			"inputs": [
				{
					"internalType": "uint256",
					"name": "_offerId",
					"type": "uint256"
				}
			],
			"name": "cancelOffer",
			"outputs": [],
			"stateMutability": "nonpayable",
			"type": "function"
		},
		{
			"inputs": [],
			"name": "claimFunds",
			"outputs": [],
			"stateMutability": "nonpayable",
			"type": "function"
		},
		{
			"inputs": [
				{
					"internalType": "uint256",
					"name": "_offerId",
					"type": "uint256"
				}
			],
			"name": "fillOffer",
			"outputs": [],
			"stateMutability": "payable",
			"type": "function"
		},
		{
			"inputs": [
				{
					"internalType": "uint256",
					"name": "_id",
					"type": "uint256"
				},
				{
					"internalType": "uint256",
					"name": "_price",
					"type": "uint256"
				}
			],
			"name": "makeOffer",
			"outputs": [],
			"stateMutability": "nonpayable",
			"type": "function"
		},
		{
			"inputs": [],
			"name": "offerCount",
			"outputs": [
				{
					"internalType": "uint256",
					"name": "",
					"type": "uint256"
				}
			],
			"stateMutability": "view",
			"type": "function"
		},
		{
			"inputs": [
				{
					"internalType": "uint256",
					"name": "",
					"type": "uint256"
				}
			],
			"name": "offers",
			"outputs": [
				{
					"internalType": "uint256",
					"name": "offerId",
					"type": "uint256"
				},
				{
					"internalType": "uint256",
					"name": "id",
					"type": "uint256"
				},
				{
					"internalType": "address",
					"name": "user",
					"type": "address"
				},
				{
					"internalType": "uint256",
					"name": "price",
					"type": "uint256"
				},
				{
					"internalType": "bool",
					"name": "fulfilled",
					"type": "bool"
				},
				{
					"internalType": "bool",
					"name": "cancelled",
					"type": "bool"
				}
			],
			"stateMutability": "view",
			"type": "function"
		},
		{
			"inputs": [
				{
					"internalType": "address",
					"name": "",
					"type": "address"
				}
			],
			"name": "userFunds",
			"outputs": [
				{
					"internalType": "uint256",
					"name": "",
					"type": "uint256"
				}
			],
			"stateMutability": "view",
			"type": "function"
		}
	]
}