{
  "_format": "hh-sol-artifact-1",
  "contractName": "PriceOracle",
  "sourceName": "contracts/lending/PriceOracle.sol",
  "abi": [
    {
      "anonymous": false,
      "inputs": [
        {
          "indexed": true,
          "internalType": "address",
          "name": "previousOwner",
          "type": "address"
        },
        {
          "indexed": true,
          "internalType": "address",
          "name": "newOwner",
          "type": "address"
        }
      ],
      "name": "OwnershipTransferred",
      "type": "event"
    },
    {
      "inputs": [
        {
          "internalType": "address",
          "name": "token",
          "type": "address"
        }
      ],
      "name": "getVirtualPrice",
      "outputs": [
        {
          "internalType": "uint256",
          "name": "",
          "type": "uint256"
        }
      ],
      "stateMutability": "view",
      "type": "function"
    },
    {
      "inputs": [],
      "name": "owner",
      "outputs": [
        {
          "internalType": "address",
          "name": "",
          "type": "address"
        }
      ],
      "stateMutability": "view",
      "type": "function"
    },
    {
      "inputs": [],
      "name": "renounceOwnership",
      "outputs": [],
      "stateMutability": "nonpayable",
      "type": "function"
    },
    {
      "inputs": [
        {
          "internalType": "address",
          "name": "token",
          "type": "address"
        },
        {
          "internalType": "uint256",
          "name": "newPrice",
          "type": "uint256"
        }
      ],
      "name": "setVirtualPrice",
      "outputs": [
        {
          "internalType": "bool",
          "name": "",
          "type": "bool"
        }
      ],
      "stateMutability": "nonpayable",
      "type": "function"
    },
    {
      "inputs": [
        {
          "internalType": "address",
          "name": "newOwner",
          "type": "address"
        }
      ],
      "name": "transferOwnership",
      "outputs": [],
      "stateMutability": "nonpayable",
      "type": "function"
    }
  ],
  "bytecode": "0x608060405234801561001057600080fd5b50600080546001600160a01b031916339081178255604051909182917f8be0079c531659141344cd1fd0a4f28419497f9722a3daafe3b4186f6b6457e0908290a350610417806100616000396000f3fe608060405234801561001057600080fd5b50600436106100575760003560e01c8063715018a61461005c5780638553d0e2146100665780638da5cb5b1461008e578063f1be0eba146100a9578063f2fde38b146100ca575b600080fd5b6100646100dd565b005b610079610074366004610360565b61015a565b60405190151581526020015b60405180910390f35b6000546040516001600160a01b039091168152602001610085565b6100bc6100b736600461038a565b610212565b604051908152602001610085565b6100646100d836600461038a565b61025f565b6000546001600160a01b031633146101105760405162461bcd60e51b8152600401610107906103ac565b60405180910390fd5b600080546040516001600160a01b03909116907f8be0079c531659141344cd1fd0a4f28419497f9722a3daafe3b4186f6b6457e0908390a3600080546001600160a01b0319169055565b600080546001600160a01b031633146101855760405162461bcd60e51b8152600401610107906103ac565b6001600160a01b0383166000908152600160205260409020548214156101ed5760405162461bcd60e51b815260206004820152601f60248201527f6e657720616e64206f6c642070726963657320617265207468652073616d65006044820152606401610107565b506001600160a01b038216600090815260016020819052604090912082905592915050565b6001600160a01b03811660009081526001602052604081205461023e5750670de0b6b3a7640000919050565b506001600160a01b031660009081526001602052604090205490565b919050565b6000546001600160a01b031633146102895760405162461bcd60e51b8152600401610107906103ac565b6001600160a01b0381166102ee5760405162461bcd60e51b815260206004820152602660248201527f4f776e61626c653a206e6577206f776e657220697320746865207a65726f206160448201526564647265737360d01b6064820152608401610107565b600080546040516001600160a01b03808516939216917f8be0079c531659141344cd1fd0a4f28419497f9722a3daafe3b4186f6b6457e091a3600080546001600160a01b0319166001600160a01b0392909216919091179055565b80356001600160a01b038116811461025a57600080fd5b6000806040838503121561037357600080fd5b61037c83610349565b946020939093013593505050565b60006020828403121561039c57600080fd5b6103a582610349565b9392505050565b6020808252818101527f4f776e61626c653a2063616c6c6572206973206e6f7420746865206f776e657260408201526060019056fea26469706673582212204e59d906730a5925683ec5428dbc64cbc2eaac37285328d94211e1c58d92f96664736f6c634300080c0033",
  "linkReferences": {},
  "deployedLinkReferences": {}
}