{
  "_format": "hh-sol-artifact-1",
  "contractName": "StakingInitializable",
  "sourceName": "contracts/farming/StakingFactoryPool.sol",
  "abi": [
    {
      "inputs": [],
      "stateMutability": "nonpayable",
      "type": "constructor"
    },
    {
      "anonymous": false,
      "inputs": [
        {
          "indexed": true,
          "internalType": "address",
          "name": "user",
          "type": "address"
        },
        {
          "indexed": false,
          "internalType": "uint256",
          "name": "amount",
          "type": "uint256"
        }
      ],
      "name": "Deposit",
      "type": "event"
    },
    {
      "anonymous": false,
      "inputs": [
        {
          "indexed": true,
          "internalType": "address",
          "name": "user",
          "type": "address"
        },
        {
          "indexed": false,
          "internalType": "uint256",
          "name": "amount",
          "type": "uint256"
        }
      ],
      "name": "EmergencyWithdraw",
      "type": "event"
    },
    {
      "anonymous": false,
      "inputs": [
        {
          "indexed": false,
          "internalType": "uint256",
          "name": "poolLimitPerUser",
          "type": "uint256"
        }
      ],
      "name": "NewPoolLimit",
      "type": "event"
    },
    {
      "anonymous": false,
      "inputs": [
        {
          "indexed": false,
          "internalType": "uint256",
          "name": "rewardPerBlock",
          "type": "uint256"
        }
      ],
      "name": "NewRewardPerBlock",
      "type": "event"
    },
    {
      "anonymous": false,
      "inputs": [
        {
          "indexed": false,
          "internalType": "uint256",
          "name": "startBlock",
          "type": "uint256"
        },
        {
          "indexed": false,
          "internalType": "uint256",
          "name": "endBlock",
          "type": "uint256"
        }
      ],
      "name": "NewStartAndEndBlocks",
      "type": "event"
    },
    {
      "anonymous": false,
      "inputs": [
        {
          "indexed": true,
          "internalType": "address",
          "name": "previousOwner",
          "type": "address"
        },
        {
          "indexed": true,
          "internalType": "address",
          "name": "newOwner",
          "type": "address"
        }
      ],
      "name": "OwnershipTransferred",
      "type": "event"
    },
    {
      "anonymous": false,
      "inputs": [
        {
          "indexed": false,
          "internalType": "uint256",
          "name": "blockNumber",
          "type": "uint256"
        }
      ],
      "name": "RewardsStop",
      "type": "event"
    },
    {
      "anonymous": false,
      "inputs": [
        {
          "indexed": true,
          "internalType": "address",
          "name": "token",
          "type": "address"
        },
        {
          "indexed": false,
          "internalType": "address",
          "name": "recipient",
          "type": "address"
        },
        {
          "indexed": false,
          "internalType": "uint256",
          "name": "amount",
          "type": "uint256"
        }
      ],
      "name": "TokenRecovery",
      "type": "event"
    },
    {
      "anonymous": false,
      "inputs": [
        {
          "indexed": false,
          "internalType": "uint256",
          "name": "lastRewardBlock",
          "type": "uint256"
        },
        {
          "indexed": false,
          "internalType": "uint256",
          "name": "stakedTokenSupply",
          "type": "uint256"
        },
        {
          "indexed": false,
          "internalType": "uint256",
          "name": "accTokenPerShare",
          "type": "uint256"
        }
      ],
      "name": "UpdatePool",
      "type": "event"
    },
    {
      "anonymous": false,
      "inputs": [
        {
          "indexed": true,
          "internalType": "address",
          "name": "user",
          "type": "address"
        },
        {
          "indexed": false,
          "internalType": "uint256",
          "name": "amount",
          "type": "uint256"
        }
      ],
      "name": "Withdraw",
      "type": "event"
    },
    {
      "inputs": [],
      "name": "PRECISION_FACTOR",
      "outputs": [
        {
          "internalType": "uint256",
          "name": "",
          "type": "uint256"
        }
      ],
      "stateMutability": "view",
      "type": "function"
    },
    {
      "inputs": [],
      "name": "STAKING_FACTORY",
      "outputs": [
        {
          "internalType": "address",
          "name": "",
          "type": "address"
        }
      ],
      "stateMutability": "view",
      "type": "function"
    },
    {
      "inputs": [
        {
          "internalType": "uint256",
          "name": "_amount",
          "type": "uint256"
        }
      ],
      "name": "deposit",
      "outputs": [],
      "stateMutability": "nonpayable",
      "type": "function"
    },
    {
      "inputs": [
        {
          "internalType": "uint256",
          "name": "_amount",
          "type": "uint256"
        },
        {
          "internalType": "address",
          "name": "_recipient",
          "type": "address"
        }
      ],
      "name": "emergencyRewardWithdraw",
      "outputs": [],
      "stateMutability": "nonpayable",
      "type": "function"
    },
    {
      "inputs": [],
      "name": "emergencyWithdraw",
      "outputs": [],
      "stateMutability": "nonpayable",
      "type": "function"
    },
    {
      "inputs": [],
      "name": "hasUserLimit",
      "outputs": [
        {
          "internalType": "bool",
          "name": "",
          "type": "bool"
        }
      ],
      "stateMutability": "view",
      "type": "function"
    },
    {
      "inputs": [
        {
          "internalType": "address",
          "name": "_stakedToken",
          "type": "address"
        },
        {
          "internalType": "address",
          "name": "_rewardToken",
          "type": "address"
        },
        {
          "internalType": "uint256",
          "name": "_rewardPerBlock",
          "type": "uint256"
        },
        {
          "internalType": "uint256",
          "name": "_startBlock",
          "type": "uint256"
        },
        {
          "internalType": "uint256",
          "name": "_rewardEndBlock",
          "type": "uint256"
        },
        {
          "internalType": "uint256",
          "name": "_poolLimitPerUser",
          "type": "uint256"
        },
        {
          "internalType": "uint256",
          "name": "_numberBlocksForUserLimit",
          "type": "uint256"
        }
      ],
      "name": "initialize",
      "outputs": [],
      "stateMutability": "nonpayable",
      "type": "function"
    },
    {
      "inputs": [],
      "name": "owner",
      "outputs": [
        {
          "internalType": "address",
          "name": "",
          "type": "address"
        }
      ],
      "stateMutability": "view",
      "type": "function"
    },
    {
      "inputs": [
        {
          "internalType": "address",
          "name": "_user",
          "type": "address"
        }
      ],
      "name": "pendingReward",
      "outputs": [
        {
          "internalType": "uint256",
          "name": "",
          "type": "uint256"
        }
      ],
      "stateMutability": "view",
      "type": "function"
    },
    {
      "inputs": [],
      "name": "pool",
      "outputs": [
        {
          "internalType": "bool",
          "name": "isInitialized",
          "type": "bool"
        },
        {
          "internalType": "address",
          "name": "stakedToken",
          "type": "address"
        },
        {
          "internalType": "bool",
          "name": "userLimit",
          "type": "bool"
        },
        {
          "internalType": "address",
          "name": "rewardToken",
          "type": "address"
        },
        {
          "internalType": "uint64",
          "name": "startBlock",
          "type": "uint64"
        },
        {
          "internalType": "uint64",
          "name": "rewardEndBlock",
          "type": "uint64"
        },
        {
          "internalType": "uint64",
          "name": "lastRewardBlock",
          "type": "uint64"
        },
        {
          "internalType": "uint64",
          "name": "numberBlocksForUserLimit",
          "type": "uint64"
        },
        {
          "internalType": "uint256",
          "name": "poolLimitPerUser",
          "type": "uint256"
        },
        {
          "internalType": "uint256",
          "name": "accTokenPerShare",
          "type": "uint256"
        },
        {
          "internalType": "uint256",
          "name": "rewardPerBlock",
          "type": "uint256"
        },
        {
          "internalType": "uint256",
          "name": "totalStaked",
          "type": "uint256"
        }
      ],
      "stateMutability": "view",
      "type": "function"
    },
    {
      "inputs": [
        {
          "internalType": "address",
          "name": "_token",
          "type": "address"
        },
        {
          "internalType": "address",
          "name": "_recipient",
          "type": "address"
        }
      ],
      "name": "recoverToken",
      "outputs": [],
      "stateMutability": "nonpayable",
      "type": "function"
    },
    {
      "inputs": [],
      "name": "renounceOwnership",
      "outputs": [],
      "stateMutability": "nonpayable",
      "type": "function"
    },
    {
      "inputs": [],
      "name": "stopReward",
      "outputs": [],
      "stateMutability": "nonpayable",
      "type": "function"
    },
    {
      "inputs": [
        {
          "internalType": "address",
          "name": "newOwner",
          "type": "address"
        }
      ],
      "name": "transferOwnership",
      "outputs": [],
      "stateMutability": "nonpayable",
      "type": "function"
    },
    {
      "inputs": [
        {
          "internalType": "bool",
          "name": "_userLimit",
          "type": "bool"
        },
        {
          "internalType": "uint256",
          "name": "_poolLimitPerUser",
          "type": "uint256"
        }
      ],
      "name": "updatePoolLimitPerUser",
      "outputs": [],
      "stateMutability": "nonpayable",
      "type": "function"
    },
    {
      "inputs": [
        {
          "internalType": "uint256",
          "name": "_rewardPerBlock",
          "type": "uint256"
        }
      ],
      "name": "updateRewardPerBlock",
      "outputs": [],
      "stateMutability": "nonpayable",
      "type": "function"
    },
    {
      "inputs": [
        {
          "internalType": "uint256",
          "name": "_startBlock",
          "type": "uint256"
        },
        {
          "internalType": "uint256",
          "name": "_rewardEndBlock",
          "type": "uint256"
        }
      ],
      "name": "updateStartAndEndBlocks",
      "outputs": [],
      "stateMutability": "nonpayable",
      "type": "function"
    },
    {
      "inputs": [
        {
          "internalType": "address",
          "name": "",
          "type": "address"
        }
      ],
      "name": "userInfo",
      "outputs": [
        {
          "internalType": "uint256",
          "name": "amount",
          "type": "uint256"
        },
        {
          "internalType": "uint256",
          "name": "rewardDebt",
          "type": "uint256"
        }
      ],
      "stateMutability": "view",
      "type": "function"
    },
    {
      "inputs": [
        {
          "internalType": "uint256",
          "name": "_amount",
          "type": "uint256"
        }
      ],
      "name": "withdraw",
      "outputs": [],
      "stateMutability": "nonpayable",
      "type": "function"
    }
  ],
  "bytecode": "0x60a060405234801561001057600080fd5b5061001a33610027565b6001805533608052610077565b600080546001600160a01b038381166001600160a01b0319831681178455604051919092169283917f8be0079c531659141344cd1fd0a4f28419497f9722a3daafe3b4186f6b6457e09190a35050565b608051611b85610099600039600081816103020152610cad0152611b856000f3fe608060405234801561001057600080fd5b50600436106101215760003560e01c80639513997f116100ad578063db2e21bc11610071578063db2e21bc1461034e578063edbf4ac214610356578063f2fde38b14610369578063f40f0f521461037c578063feaea5861461038f57600080fd5b80639513997f146102d7578063a0b40905146102ea578063aac551e1146102fd578063b6b55f2514610324578063ccd34cd51461033757600080fd5b8063662a2cb5116100f4578063662a2cb514610277578063715018a61461028a57806380dc0672146102925780638da5cb5b1461029a57806392e8990e146102bf57600080fd5b806301f8a9761461012657806316f0115b1461013b5780631959a002146102285780632e1a7d4d14610264575b600080fd5b610139610134366004611747565b6103a2565b005b6003546004546005546006546007546008546009546101aa9660ff808216976001600160a01b036101008404811698600160a81b90940490921696918116956001600160401b03600160a01b90920482169584831695600160401b8604841695600160801b900490931693928c565b604080519c15158d526001600160a01b039b8c1660208e0152991515998c01999099529890961660608a01526001600160401b0394851660808a015292841660a089015290831660c08801529190911660e0860152610100850152610120840152610140830191909152610160820152610180015b60405180910390f35b61024f61023636600461177c565b600a602052600090815260409020805460019091015482565b6040805192835260208301919091520161021f565b610139610272366004611747565b610437565b61013961028536600461179e565b6105c0565b610139610605565b61013961063b565b6000546001600160a01b03165b6040516001600160a01b03909116815260200161021f565b6102c7610699565b604051901515815260200161021f565b6101396102e53660046117ca565b6106f8565b6101396102f83660046117fa565b6108ec565b6102a77f000000000000000000000000000000000000000000000000000000000000000081565b610139610332366004611747565b6109e4565b61034060025481565b60405190815260200161021f565b610139610bb2565b610139610364366004611826565b610c59565b61013961037736600461177c565b610f13565b61034061038a36600461177c565b610fae565b61013961039d366004611884565b6110b7565b600454600160a01b90046001600160401b031643106103fb5760405162461bcd60e51b815260206004820152601060248201526f141bdbdb081a185cc81cdd185c9d195960821b60448201526064015b60405180910390fd5b60088190556040518181527f0c4d677eef92893ac7ec52faf8140fc6c851ab4736302b4f3a89dfb20696a0df906020015b60405180910390a150565b6002600154141561045a5760405162461bcd60e51b81526004016103f2906118ae565b6002600155336000908152600a6020526040902080548211156104bf5760405162461bcd60e51b815260206004820152601b60248201527f416d6f756e7420746f20776974686472617720746f6f2068696768000000000060448201526064016103f2565b6104c76112e2565b6007546001820154600254835460009291906104e49085906118fb565b6104ee919061191a565b6104f8919061193c565b9050831561054557825461050d90859061193c565b83556009805485919060009061052490849061193c565b90915550506003546105459061010090046001600160a01b031633866113e3565b801561056257600454610562906001600160a01b031633836113e3565b60025483546105729084906118fb565b61057c919061191a565b600184015560405184815233907f884edad9ce6fa2440d8a54cc123490eb96d2768479d49ff9c7366125a94243649060200160405180910390a25050600180555050565b6000546001600160a01b031633146105ea5760405162461bcd60e51b81526004016103f290611953565b600454610601906001600160a01b031682846113e3565b5050565b6000546001600160a01b0316331461062f5760405162461bcd60e51b81526004016103f290611953565b61063960006114fe565b565b6106444361154e565b6005805467ffffffffffffffff19166001600160401b039290921691821790556040519081527ffed9fcb0ca3d1e761a4b929792bb24082fba92dca81252646ad306d3068065669060200160405180910390a1565b600354600090600160a81b900460ff1615806106e757506005546004546106da916001600160401b03600160801b909104811691600160a01b900416611988565b6001600160401b03164310155b156106f25750600090565b50600190565b600454600160a01b90046001600160401b0316431061074c5760405162461bcd60e51b815260206004820152601060248201526f141bdbdb081a185cc81cdd185c9d195960821b60448201526064016103f2565b8082106107b25760405162461bcd60e51b815260206004820152602e60248201527f4e6577207374617274426c6f636b206d757374206265206c6f7765722074686160448201526d6e206e657720656e64426c6f636b60901b60648201526084016103f2565b81431061081a5760405162461bcd60e51b815260206004820152603060248201527f4e6577207374617274426c6f636b206d7573742062652068696768657220746860448201526f616e2063757272656e7420626c6f636b60801b60648201526084016103f2565b6108238261154e565b600480546001600160401b0392909216600160a01b0267ffffffffffffffff60a01b199092169190911790556108588161154e565b6005805467ffffffffffffffff19166001600160401b03929092169190911790556108828261154e565b600580546001600160401b0392909216600160401b0267ffffffffffffffff60401b1990921691909117905560408051838152602081018390527f7cd0ab87d19036f3dfadadb232c78aa4879dda3f0c994a9d637532410ee2ce0691015b60405180910390a15050565b600354600160a81b900460ff166109335760405162461bcd60e51b815260206004820152600b60248201526a135d5cdd081899481cd95d60aa1b60448201526064016103f2565b811561099457600654811161098a5760405162461bcd60e51b815260206004820152601860248201527f4e6577206c696d6974206d75737420626520686967686572000000000000000060448201526064016103f2565b60068190556109b1565b6003805460ff60a81b1916600160a81b8415150217905560006006555b6006546040519081527f241f67ee5f41b7a5cabf911367329be7215900f602ebfc47f89dce2a6bcd847c906020016108e0565b60026001541415610a075760405162461bcd60e51b81526004016103f2906118ae565b6002600155336000908152600a60205260409020610a23610699565b6003805460ff60a81b1916600160a81b9215158302179081905560ff919004161580610a5c57506006548154610a5990846119b3565b11155b610aa85760405162461bcd60e51b815260206004820152601b60248201527f4465706f7369743a20416d6f756e742061626f7665206c696d6974000000000060448201526064016103f2565b610ab06112e2565b600754815415610b095760008260010154600254838560000154610ad491906118fb565b610ade919061191a565b610ae8919061193c565b90508015610b0757600454610b07906001600160a01b031633836113e3565b505b8215610b55578154610b1c9084906119b3565b825560098054849190600090610b339084906119b3565b9091555050600354610b559061010090046001600160a01b03163330866115ba565b6002548254610b659083906118fb565b610b6f919061191a565b600183015560405183815233907fe1fffcc4923d04b559f4d29a8bfc6cda04eb5b0d3c460751c2402c5c5cc9109c9060200160405180910390a250506001805550565b60026001541415610bd55760405162461bcd60e51b81526004016103f2906118ae565b60026001908155336000908152600a60205260408120805482825592810191909155908015610c1a57600354610c1a9061010090046001600160a01b031633836113e3565b815460405190815233907f5fafa99d0643513820be26656b45130b01e1c03062e1266bf36f88cbd3bd96959060200160405180910390a2505060018055565b60035460ff1615610ca25760405162461bcd60e51b8152602060048201526013602482015272105b1c9958591e481a5b9a5d1a585b1a5e9959606a1b60448201526064016103f2565b336001600160a01b037f00000000000000000000000000000000000000000000000000000000000000001614610d085760405162461bcd60e51b815260206004820152600b60248201526a4e6f7420666163746f727960a81b60448201526064016103f2565b600380546001600160a01b03808a16610100026001600160a81b031990921691909117600117909155600480549188166001600160a01b0319909216919091179055610d538461154e565b600480546001600160401b0392909216600160a01b0267ffffffffffffffff60a01b19909216919091179055610d888361154e565b6005805467ffffffffffffffff19166001600160401b0392909216919091179055610db28461154e565b600580546001600160401b0392909216600160401b0267ffffffffffffffff60401b1990921691909117905560088590558115610e37576003805460ff60a81b1916600160a81b1790556006829055610e0a8161154e565b600580546001600160401b0392909216600160801b0267ffffffffffffffff60801b199092169190911790555b6000866001600160a01b031663313ce5676040518163ffffffff1660e01b8152600401602060405180830381865afa158015610e77573d6000803e3d6000fd5b505050506040513d601f19601f82011682018060405250810190610e9b91906119cb565b60ff169050601e8110610ee75760405162461bcd60e51b815260206004820152601460248201527304d757374206265206c657373207468616e2033360641b60448201526064016103f2565b610ef281601e61193c565b610efd90600a611ad2565b600255610f0933610f13565b5050505050505050565b6000546001600160a01b03163314610f3d5760405162461bcd60e51b81526004016103f290611953565b6001600160a01b038116610fa25760405162461bcd60e51b815260206004820152602660248201527f4f776e61626c653a206e6577206f776e657220697320746865207a65726f206160448201526564647265737360d01b60648201526084016103f2565b610fab816114fe565b50565b6001600160a01b0381166000908152600a60205260408120600954600754600554600160401b90046001600160401b031643118015610fec57508115155b156110855760055460009061101190600160401b90046001600160401b0316436116ea565b60085490915060009061102490836118fb565b90506000846002548361103791906118fb565b611041919061191a565b61104b90856119b3565b9050856001015460025482886000015461106591906118fb565b61106f919061191a565b611079919061193c565b98975050505050505050565b6001830154600254845461109a9084906118fb565b6110a4919061191a565b6110ae919061193c565b95945050505050565b6000546001600160a01b031633146110e15760405162461bcd60e51b81526004016103f290611953565b6003546001600160a01b038381166101009092041614156111545760405162461bcd60e51b815260206004820152602760248201527f4f7065726174696f6e733a2043616e6e6f74207265636f766572207374616b6560448201526632103a37b5b2b760c91b60648201526084016103f2565b6004546001600160a01b03838116911614156111c25760405162461bcd60e51b815260206004820152602760248201527f4f7065726174696f6e733a2043616e6e6f74207265636f76657220726577617260448201526632103a37b5b2b760c91b60648201526084016103f2565b6040516370a0823160e01b81523060048201526000906001600160a01b038416906370a0823190602401602060405180830381865afa158015611209573d6000803e3d6000fd5b505050506040513d601f19601f8201168201806040525081019061122d9190611ade565b90508061128c5760405162461bcd60e51b815260206004820152602760248201527f4f7065726174696f6e733a2043616e6e6f74207265636f766572207a65726f2060448201526662616c616e636560c81b60648201526084016103f2565b6112978383836113e3565b604080516001600160a01b038481168252602082018490528516917f12908d7ca4e5f7eaa347942be653a85ee08a103570143e4a7309fca3243bdf60910160405180910390a2505050565b600554600160401b90046001600160401b03164311156106395760095480156113665760055460009061132590600160401b90046001600160401b0316436116ea565b60085490915060009061133890836118fb565b9050826002548261134991906118fb565b611353919061191a565b60075461136091906119b3565b60075550505b61136f4361154e565b6005805467ffffffffffffffff60401b1916600160401b6001600160401b03938416810291909117918290556007546040805192909304909316815260208101849052908101919091527ff5d2d72d9b25d6853afd7d0554a113b705234b6a68bb36b7f1436629946324119060600161042c565b604080516001600160a01b038481166024830152604480830185905283518084039091018152606490920183526020820180516001600160e01b031663a9059cbb60e01b179052915160009283929087169161143f9190611af7565b6000604051808303816000865af19150503d806000811461147c576040519150601f19603f3d011682016040523d82523d6000602084013e611481565b606091505b50915091508180156114ab5750805115806114ab5750808060200190518101906114ab9190611b32565b6114f75760405162461bcd60e51b815260206004820152601f60248201527f5472616e7366657248656c7065723a205452414e534645525f4641494c45440060448201526064016103f2565b5050505050565b600080546001600160a01b038381166001600160a01b0319831681178455604051919092169283917f8be0079c531659141344cd1fd0a4f28419497f9722a3daafe3b4186f6b6457e09190a35050565b60006001600160401b038211156115b65760405162461bcd60e51b815260206004820152602660248201527f53616665436173743a2076616c756520646f65736e27742066697420696e203660448201526534206269747360d01b60648201526084016103f2565b5090565b604080516001600160a01b0385811660248301528481166044830152606480830185905283518084039091018152608490920183526020820180516001600160e01b03166323b872dd60e01b179052915160009283929088169161161e9190611af7565b6000604051808303816000865af19150503d806000811461165b576040519150601f19603f3d011682016040523d82523d6000602084013e611660565b606091505b509150915081801561168a57508051158061168a57508080602001905181019061168a9190611b32565b6116e25760405162461bcd60e51b8152602060048201526024808201527f5472616e7366657248656c7065723a205452414e534645525f46524f4d5f46416044820152631253115160e21b60648201526084016103f2565b505050505050565b6005546000906001600160401b0316821161171057611709838361193c565b9050611741565b6005546001600160401b0316831061172a57506000611741565b6005546117099084906001600160401b031661193c565b92915050565b60006020828403121561175957600080fd5b5035919050565b80356001600160a01b038116811461177757600080fd5b919050565b60006020828403121561178e57600080fd5b61179782611760565b9392505050565b600080604083850312156117b157600080fd5b823591506117c160208401611760565b90509250929050565b600080604083850312156117dd57600080fd5b50508035926020909101359150565b8015158114610fab57600080fd5b6000806040838503121561180d57600080fd5b8235611818816117ec565b946020939093013593505050565b600080600080600080600060e0888a03121561184157600080fd5b61184a88611760565b965061185860208901611760565b96999698505050506040850135946060810135946080820135945060a0820135935060c0909101359150565b6000806040838503121561189757600080fd5b6118a083611760565b91506117c160208401611760565b6020808252601f908201527f5265656e7472616e637947756172643a207265656e7472616e742063616c6c00604082015260600190565b634e487b7160e01b600052601160045260246000fd5b6000816000190483118215151615611915576119156118e5565b500290565b60008261193757634e487b7160e01b600052601260045260246000fd5b500490565b60008282101561194e5761194e6118e5565b500390565b6020808252818101527f4f776e61626c653a2063616c6c6572206973206e6f7420746865206f776e6572604082015260600190565b60006001600160401b038083168185168083038211156119aa576119aa6118e5565b01949350505050565b600082198211156119c6576119c66118e5565b500190565b6000602082840312156119dd57600080fd5b815160ff8116811461179757600080fd5b600181815b80851115611a29578160001904821115611a0f57611a0f6118e5565b80851615611a1c57918102915b93841c93908002906119f3565b509250929050565b600082611a4057506001611741565b81611a4d57506000611741565b8160018114611a635760028114611a6d57611a89565b6001915050611741565b60ff841115611a7e57611a7e6118e5565b50506001821b611741565b5060208310610133831016604e8410600b8410161715611aac575081810a611741565b611ab683836119ee565b8060001904821115611aca57611aca6118e5565b029392505050565b60006117978383611a31565b600060208284031215611af057600080fd5b5051919050565b6000825160005b81811015611b185760208186018101518583015201611afe565b81811115611b27576000828501525b509190910192915050565b600060208284031215611b4457600080fd5b8151611797816117ec56fea2646970667358221220f4b02646ed06fa1a54494827d4502fc4e78be0fd65e33b2820aa3f21dc75a9ef64736f6c634300080c0033",
  "linkReferences": {},
  "deployedLinkReferences": {}
}